{"abi":[{"type":"constructor","inputs":[{"name":"admin","type":"address","internalType":"address"}],"stateMutability":"nonpayable"},{"type":"function","name":"CLOCK_MODE","inputs":[],"outputs":[{"name":"","type":"string","internalType":"string"}],"stateMutability":"pure"},{"type":"function","name":"DEFAULT_ADMIN_ROLE","inputs":[],"outputs":[{"name":"","type":"bytes32","internalType":"bytes32"}],"stateMutability":"view"},{"type":"function","name":"DOMAIN_SEPARATOR","inputs":[],"outputs":[{"name":"","type":"bytes32","internalType":"bytes32"}],"stateMutability":"view"},{"type":"function","name":"MINTER_ROLE","inputs":[],"outputs":[{"name":"","type":"bytes32","internalType":"bytes32"}],"stateMutability":"view"},{"type":"function","name":"allowance","inputs":[{"name":"owner","type":"address","internalType":"address"},{"name":"spender","type":"address","internalType":"address"}],"outputs":[{"name":"","type":"uint256","internalType":"uint256"}],"stateMutability":"view"},{"type":"function","name":"approve","inputs":[{"name":"spender","type":"address","internalType":"address"},{"name":"value","type":"uint256","internalType":"uint256"}],"outputs":[{"name":"","type":"bool","internalType":"bool"}],"stateMutability":"nonpayable"},{"type":"function","name":"balanceOf","inputs":[{"name":"account","type":"address","internalType":"address"}],"outputs":[{"name":"","type":"uint256","internalType":"uint256"}],"stateMutability":"view"},{"type":"function","name":"checkpoints","inputs":[{"name":"account","type":"address","internalType":"address"},{"name":"pos","type":"uint32","internalType":"uint32"}],"outputs":[{"name":"","type":"tuple","internalType":"struct Checkpoints.Checkpoint208","components":[{"name":"_key","type":"uint48","internalType":"uint48"},{"name":"_value","type":"uint208","internalType":"uint208"}]}],"stateMutability":"view"},{"type":"function","name":"clock","inputs":[],"outputs":[{"name":"","type":"uint48","internalType":"uint48"}],"stateMutability":"view"},{"type":"function","name":"decimals","inputs":[],"outputs":[{"name":"","type":"uint8","internalType":"uint8"}],"stateMutability":"view"},{"type":"function","name":"delegate","inputs":[{"name":"delegatee","type":"address","internalType":"address"}],"outputs":[],"stateMutability":"nonpayable"},{"type":"function","name":"delegateBySig","inputs":[{"name":"delegatee","type":"address","internalType":"address"},{"name":"nonce","type":"uint256","internalType":"uint256"},{"name":"expiry","type":"uint256","internalType":"uint256"},{"name":"v","type":"uint8","internalType":"uint8"},{"name":"r","type":"bytes32","internalType":"bytes32"},{"name":"s","type":"bytes32","internalType":"bytes32"}],"outputs":[],"stateMutability":"nonpayable"},{"type":"function","name":"delegates","inputs":[{"name":"account","type":"address","internalType":"address"}],"outputs":[{"name":"","type":"address","internalType":"address"}],"stateMutability":"view"},{"type":"function","name":"eip712Domain","inputs":[],"outputs":[{"name":"fields","type":"bytes1","internalType":"bytes1"},{"name":"name","type":"string","internalType":"string"},{"name":"version","type":"string","internalType":"string"},{"name":"chainId","type":"uint256","internalType":"uint256"},{"name":"verifyingContract","type":"address","internalType":"address"},{"name":"salt","type":"bytes32","internalType":"bytes32"},{"name":"extensions","type":"uint256[]","internalType":"uint256[]"}],"stateMutability":"view"},{"type":"function","name":"getPastTotalSupply","inputs":[{"name":"timepoint","type":"uint256","internalType":"uint256"}],"outputs":[{"name":"","type":"uint256","internalType":"uint256"}],"stateMutability":"view"},{"type":"function","name":"getPastVotes","inputs":[{"name":"account","type":"address","internalType":"address"},{"name":"timepoint","type":"uint256","internalType":"uint256"}],"outputs":[{"name":"","type":"uint256","internalType":"uint256"}],"stateMutability":"view"},{"type":"function","name":"getRoleAdmin","inputs":[{"name":"role","type":"bytes32","internalType":"bytes32"}],"outputs":[{"name":"","type":"bytes32","internalType":"bytes32"}],"stateMutability":"view"},{"type":"function","name":"getVotes","inputs":[{"name":"account","type":"address","internalType":"address"}],"outputs":[{"name":"","type":"uint256","internalType":"uint256"}],"stateMutability":"view"},{"type":"function","name":"grantRole","inputs":[{"name":"role","type":"bytes32","internalType":"bytes32"},{"name":"account","type":"address","internalType":"address"}],"outputs":[],"stateMutability":"nonpayable"},{"type":"function","name":"hasRole","inputs":[{"name":"role","type":"bytes32","internalType":"bytes32"},{"name":"account","type":"address","internalType":"address"}],"outputs":[{"name":"","type":"bool","internalType":"bool"}],"stateMutability":"view"},{"type":"function","name":"mint","inputs":[{"name":"to","type":"address","internalType":"address"},{"name":"amount","type":"uint256","internalType":"uint256"}],"outputs":[],"stateMutability":"nonpayable"},{"type":"function","name":"name","inputs":[],"outputs":[{"name":"","type":"string","internalType":"string"}],"stateMutability":"view"},{"type":"function","name":"nonces","inputs":[{"name":"owner","type":"address","internalType":"address"}],"outputs":[{"name":"","type":"uint256","internalType":"uint256"}],"stateMutability":"view"},{"type":"function","name":"numCheckpoints","inputs":[{"name":"account","type":"address","internalType":"address"}],"outputs":[{"name":"","type":"uint32","internalType":"uint32"}],"stateMutability":"view"},{"type":"function","name":"permit","inputs":[{"name":"owner","type":"address","internalType":"address"},{"name":"spender","type":"address","internalType":"address"},{"name":"value","type":"uint256","internalType":"uint256"},{"name":"deadline","type":"uint256","internalType":"uint256"},{"name":"v","type":"uint8","internalType":"uint8"},{"name":"r","type":"bytes32","internalType":"bytes32"},{"name":"s","type":"bytes32","internalType":"bytes32"}],"outputs":[],"stateMutability":"nonpayable"},{"type":"function","name":"renounceRole","inputs":[{"name":"role","type":"bytes32","internalType":"bytes32"},{"name":"callerConfirmation","type":"address","internalType":"address"}],"outputs":[],"stateMutability":"nonpayable"},{"type":"function","name":"revokeRole","inputs":[{"name":"role","type":"bytes32","internalType":"bytes32"},{"name":"account","type":"address","internalType":"address"}],"outputs":[],"stateMutability":"nonpayable"},{"type":"function","name":"supportsInterface","inputs":[{"name":"interfaceId","type":"bytes4","internalType":"bytes4"}],"outputs":[{"name":"","type":"bool","internalType":"bool"}],"stateMutability":"view"},{"type":"function","name":"symbol","inputs":[],"outputs":[{"name":"","type":"string","internalType":"string"}],"stateMutability":"view"},{"type":"function","name":"totalSupply","inputs":[],"outputs":[{"name":"","type":"uint256","internalType":"uint256"}],"stateMutability":"view"},{"type":"function","name":"transfer","inputs":[{"name":"to","type":"address","internalType":"address"},{"name":"value","type":"uint256","internalType":"uint256"}],"outputs":[{"name":"","type":"bool","internalType":"bool"}],"stateMutability":"nonpayable"},{"type":"function","name":"transferFrom","inputs":[{"name":"from","type":"address","internalType":"address"},{"name":"to","type":"address","internalType":"address"},{"name":"value","type":"uint256","internalType":"uint256"}],"outputs":[{"name":"","type":"bool","internalType":"bool"}],"stateMutability":"nonpayable"},{"type":"event","name":"Approval","inputs":[{"name":"owner","type":"address","indexed":true,"internalType":"address"},{"name":"spender","type":"address","indexed":true,"internalType":"address"},{"name":"value","type":"uint256","indexed":false,"internalType":"uint256"}],"anonymous":false},{"type":"event","name":"DelegateChanged","inputs":[{"name":"delegator","type":"address","indexed":true,"internalType":"address"},{"name":"fromDelegate","type":"address","indexed":true,"internalType":"address"},{"name":"toDelegate","type":"address","indexed":true,"internalType":"address"}],"anonymous":false},{"type":"event","name":"DelegateVotesChanged","inputs":[{"name":"delegate","type":"address","indexed":true,"internalType":"address"},{"name":"previousVotes","type":"uint256","indexed":false,"internalType":"uint256"},{"name":"newVotes","type":"uint256","indexed":false,"internalType":"uint256"}],"anonymous":false},{"type":"event","name":"EIP712DomainChanged","inputs":[],"anonymous":false},{"type":"event","name":"RoleAdminChanged","inputs":[{"name":"role","type":"bytes32","indexed":true,"internalType":"bytes32"},{"name":"previousAdminRole","type":"bytes32","indexed":true,"internalType":"bytes32"},{"name":"newAdminRole","type":"bytes32","indexed":true,"internalType":"bytes32"}],"anonymous":false},{"type":"event","name":"RoleGranted","inputs":[{"name":"role","type":"bytes32","indexed":true,"internalType":"bytes32"},{"name":"account","type":"address","indexed":true,"internalType":"address"},{"name":"sender","type":"address","indexed":true,"internalType":"address"}],"anonymous":false},{"type":"event","name":"RoleRevoked","inputs":[{"name":"role","type":"bytes32","indexed":true,"internalType":"bytes32"},{"name":"account","type":"address","indexed":true,"internalType":"address"},{"name":"sender","type":"address","indexed":true,"internalType":"address"}],"anonymous":false},{"type":"event","name":"Transfer","inputs":[{"name":"from","type":"address","indexed":true,"internalType":"address"},{"name":"to","type":"address","indexed":true,"internalType":"address"},{"name":"value","type":"uint256","indexed":false,"internalType":"uint256"}],"anonymous":false},{"type":"error","name":"AccessControlBadConfirmation","inputs":[]},{"type":"error","name":"AccessControlUnauthorizedAccount","inputs":[{"name":"account","type":"address","internalType":"address"},{"name":"neededRole","type":"bytes32","internalType":"bytes32"}]},{"type":"error","name":"CheckpointUnorderedInsertion","inputs":[]},{"type":"error","name":"ECDSAInvalidSignature","inputs":[]},{"type":"error","name":"ECDSAInvalidSignatureLength","inputs":[{"name":"length","type":"uint256","internalType":"uint256"}]},{"type":"error","name":"ECDSAInvalidSignatureS","inputs":[{"name":"s","type":"bytes32","internalType":"bytes32"}]},{"type":"error","name":"ERC20ExceededSafeSupply","inputs":[{"name":"increasedSupply","type":"uint256","internalType":"uint256"},{"name":"cap","type":"uint256","internalType":"uint256"}]},{"type":"error","name":"ERC20InsufficientAllowance","inputs":[{"name":"spender","type":"address","internalType":"address"},{"name":"allowance","type":"uint256","internalType":"uint256"},{"name":"needed","type":"uint256","internalType":"uint256"}]},{"type":"error","name":"ERC20InsufficientBalance","inputs":[{"name":"sender","type":"address","internalType":"address"},{"name":"balance","type":"uint256","internalType":"uint256"},{"name":"needed","type":"uint256","internalType":"uint256"}]},{"type":"error","name":"ERC20InvalidApprover","inputs":[{"name":"approver","type":"address","internalType":"address"}]},{"type":"error","name":"ERC20InvalidReceiver","inputs":[{"name":"receiver","type":"address","internalType":"address"}]},{"type":"error","name":"ERC20InvalidSender","inputs":[{"name":"sender","type":"address","internalType":"address"}]},{"type":"error","name":"ERC20InvalidSpender","inputs":[{"name":"spender","type":"address","internalType":"address"}]},{"type":"error","name":"ERC2612ExpiredSignature","inputs":[{"name":"deadline","type":"uint256","internalType":"uint256"}]},{"type":"error","name":"ERC2612InvalidSigner","inputs":[{"name":"signer","type":"address","internalType":"address"},{"name":"owner","type":"address","internalType":"address"}]},{"type":"error","name":"ERC5805FutureLookup","inputs":[{"name":"timepoint","type":"uint256","internalType":"uint256"},{"name":"clock","type":"uint48","internalType":"uint48"}]},{"type":"error","name":"ERC6372InconsistentClock","inputs":[]},{"type":"error","name":"InvalidAccountNonce","inputs":[{"name":"account","type":"address","internalType":"address"},{"name":"currentNonce","type":"uint256","internalType":"uint256"}]},{"type":"error","name":"InvalidShortString","inputs":[]},{"type":"error","name":"SafeCastOverflowedUintDowncast","inputs":[{"name":"bits","type":"uint8","internalType":"uint8"},{"name":"value","type":"uint256","internalType":"uint256"}]},{"type":"error","name":"StringTooLong","inputs":[{"name":"str","type":"string","internalType":"string"}]},{"type":"error","name":"VotesExpiredSignature","inputs":[{"name":"expiry","type":"uint256","internalType":"uint256"}]}],"bytecode":{"object":"0x610160346200052f57601f62002c7738819003918201601f19168301916001600160401b0383118484101762000310578084926020946040528339810103126200052f57516001600160a01b03811681036200052f5760405190620000648262000533565b601582527f5265616c6d466f72676520476f7665726e616e6365000000000000000000000090816020840152604051916200009f8362000533565b60158352602083015260405192620000b78462000533565b6003845262524c4d60e81b602085015260405192620000d68462000533565b60018452603160f81b60208501528051906001600160401b038211620003105760035490600182811c9216801562000524575b6020831014620003fd5781601f849311620004b1575b50602090601f831160011462000428575f926200041c575b50508160011b915f199060031b1c1916176003555b83516001600160401b0381116200031057600454600181811c9116801562000411575b6020821014620003fd57601f811162000399575b50602094601f821160011462000330579481929394955f9262000324575b50508160011b915f199060031b1c1916176004555b620001c18162000660565b91610120928352620001d38462000818565b9161014092835260208151910120938460e0526020815191012093610100948086524660a0526040519060208201927f8b73c3c69bb8fe3d512ecc4cf759cc79239f7b179b0ffacaa9a75d522b39400f8452604083015260608201524660808201523060a082015260a0815260c081019181831060018060401b0384111762000310576040839052815190206080523060c0526001600160a01b03831615620002da57505080620002886200028f926200054f565b50620005bf565b50604051916122719384620009c6853960805184611350015260a0518461140b015260c0518461131a015260e0518461139f015251836113c5015251826109120152518161093b0152f35b62461bcd60e51b8252602060c4820152600f60e48201526e2926269d103d32b9379030b236b4b760891b61010490910152606490fd5b634e487b7160e01b5f52604160045260245ffd5b015190505f80620001a1565b601f1982169560045f5260205f20915f5b888110620003805750836001959697981062000367575b505050811b01600455620001b6565b01515f1960f88460031b161c191690555f808062000358565b9192602060018192868501518155019401920162000341565b60045f527f8a35acfbc15ff81a39ae7d344fd709f28e8600b4aa8c65c6b64bfe7fe36bd19b601f830160051c810160208410620003f5575b601f830160051c82018110620003e957505062000183565b5f8155600101620003d1565b5080620003d1565b634e487b7160e01b5f52602260045260245ffd5b90607f16906200016f565b015190505f8062000137565b60035f9081527fc2575a0e9e593c00f959f8c92f12db2869c3395a3b0502d05e2516446f71f85b9350601f198516905b8181106200049857509084600195949392106200047f575b505050811b016003556200014c565b01515f1960f88460031b161c191690555f808062000470565b9293602060018192878601518155019501930162000458565b60035f529091507fc2575a0e9e593c00f959f8c92f12db2869c3395a3b0502d05e2516446f71f85b601f840160051c8101916020851062000519575b90601f859493920160051c01905b8181106200050a57506200011f565b5f8155849350600101620004fb565b9091508190620004ed565b91607f169162000109565b5f80fd5b604081019081106001600160401b038211176200031057604052565b6001600160a01b03165f8181525f8051602062002c57833981519152602052604090205460ff16620005ba575f8181525f8051602062002c5783398151915260205260408120805460ff191660011790553391905f8051602062002c378339815191528180a4600190565b505f90565b6001600160a01b03165f8181527ff70e363b3d7895af770c4a138460777d52eebd3cb9962ccc6b58721f6127bbc860205260409020547f9f2df0fed2c77648de5860a4cc508cd0818c85b8b8a1ab4ceeef8d981c8956a6919060ff166200065a57815f52600b60205260405f20815f5260205260405f20600160ff1982541617905533915f8051602062002c378339815191525f80a4600190565b50505f90565b80516020919082811015620006fc575090601f8251116200069d57808251920151908083106200068f57501790565b825f19910360031b1b161790565b90604051809263305a27a960e01b82528060048301528251908160248401525f935b828510620006e2575050604492505f838284010152601f80199101168101030190fd5b8481018201518686016044015293810193859350620006bf565b6001600160401b03811162000310576005928354926001938481811c911680156200080d575b83821014620003fd57601f8111620007d9575b5081601f84116001146200077357509282939183925f9462000767575b50501b915f199060031b1c191617905560ff90565b015192505f8062000752565b919083601f198116875f52845f20945f905b88838310620007be5750505010620007a5575b505050811b01905560ff90565b01515f1960f88460031b161c191690555f808062000798565b85870151885590960195948501948793509081019062000785565b855f5284601f845f209201871c820191601f8601881c015b8281106200080157505062000735565b5f8155018590620007f1565b90607f169062000722565b805160209081811015620008a45750601f8251116200084557808251920151908083106200068f57501790565b90604051809263305a27a960e01b82528060048301528251908160248401525f935b8285106200088a575050604492505f838284010152601f80199101168101030190fd5b848101820151868601604401529381019385935062000867565b906001600160401b0382116200031057600654926001938481811c91168015620009ba575b83821014620003fd57601f811162000983575b5081601f84116001146200091b57509282939183925f946200090f575b50501b915f199060031b1c19161760065560ff90565b015192505f80620008f9565b919083601f19811660065f52845f20945f905b888383106200096857505050106200094f575b505050811b0160065560ff90565b01515f1960f88460031b161c191690555f808062000941565b8587015188559096019594850194879350908101906200092e565b60065f5284601f845f20920160051c820191601f860160051c015b828110620009ae575050620008dc565b5f81550185906200099e565b90607f1690620008c956fe60806040526004361015610011575f80fd5b5f3560e01c806301ffc9a71461021457806306fdde031461020f578063095ea7b31461020a57806318160ddd1461020557806323b872dd14610200578063248a9ca3146101fb5780632f2ff15d146101f6578063313ce567146101f15780633644e515146101ec57806336568abe146101e75780633a46b1a8146101e257806340c10f19146101dd5780634bf5d7e9146101d8578063587cde1e146101d35780635c19a95c146101ce5780636fcfff45146101c957806370a08231146101c45780637ecebe00146101bf57806384b0196e146101ba5780638e539e8c146101b557806391d14854146101b057806391ddadf4146101ab57806395d89b41146101a65780639ab24eb0146101a1578063a217fddf1461019c578063a9059cbb14610197578063c3cda52014610192578063d505accf1461018d578063d539139314610188578063d547741f14610183578063dd62ed3e1461017e5763f1127ed814610179575f80fd5b610f3d565b610ee6565b610ea9565b610e6f565b610d3c565b610c73565b610c2d565b610c13565b610bcc565b610b27565b610b05565b610ab7565b6109f0565b6108fa565b6108c2565b61088a565b610824565b610802565b6107c9565b61077b565b610693565b6105b5565b61056e565b61054c565b610531565b6104f2565b6104c5565b61041a565b6103fd565b6103cc565b6102c0565b3461026a57602036600319011261026a5760043563ffffffff60e01b811680910361026a57602090637965db0b60e01b8114908115610259575b506040519015158152f35b6301ffc9a760e01b1490505f61024e565b5f80fd5b91908251928382525f5b848110610298575050825f602080949584010152601f8019910116010190565b602081830181015184830182015201610278565b9060206102bd92818152019061026e565b90565b3461026a575f36600319011261026a576040515f6003546102e081610fef565b80845290602090600190818116908115610376575060011461031d575b6103198561030d818703826110b0565b604051918291826102ac565b0390f35b60035f90815293507fc2575a0e9e593c00f959f8c92f12db2869c3395a3b0502d05e2516446f71f85b5b8385106103635750505050810160200161030d826103196102fd565b8054868601840152938201938101610347565b8695506103199693506020925061030d94915060ff191682840152151560051b82010192936102fd565b600435906001600160a01b038216820361026a57565b602435906001600160a01b038216820361026a57565b3461026a57604036600319011261026a576103f26103e86103a0565b60243590336116d2565b602060405160018152f35b3461026a575f36600319011261026a576020600254604051908152f35b3461026a57606036600319011261026a576104336103a0565b61043b6103b6565b6001600160a01b0382165f9081526001602090815260408083203384529091529020604435919054925f198410610483575b61047793506110f9565b60405160018152602090f35b82841061049f5761049a8361047795033383611780565b61046d565b604051637dc7a0d960e11b81523360048201526024810185905260448101849052606490fd5b3461026a57602036600319011261026a576004355f52600b6020526020600160405f200154604051908152f35b3461026a57604036600319011261026a5761052f6004356105116103b6565b90805f52600b60205261052a600160405f200154611267565b611287565b005b3461026a575f36600319011261026a57602060405160128152f35b3461026a575f36600319011261026a576020610566611317565b604051908152f35b3461026a57604036600319011261026a576105876103b6565b336001600160a01b038216036105a35761052f90600435611431565b60405163334bd91960e11b8152600490fd5b3461026a57604036600319011261026a576001600160a01b036105d66103a0565b165f52600960205260405f206105ed6024356114b9565b8154905f829160058411610640575b61060793508461195b565b908161062557505060205f5b6040516001600160d01b039091168152f35b610630602092611529565b905f52815f20015460301c610613565b919261064b816117d6565b810390811161068e5761060793855f5265ffffffffffff808360205f20015416908516105f1461067c5750916105fc565b92915061068890611537565b906105fc565b611515565b3461026a57604036600319011261026a576106ac6103a0565b6024356106b76111ec565b6001600160a01b0382168015610763576106db6106d683600254611545565b600255565b6001600160a01b0383165f90815260208181526040808320805486019055518481527fddf252ad1be2c89b69c2b068fc378daa952ba7f163c4a11628f55a4df523b3ef9190a3600254916001600160d01b03831161073d5761052f9250611ee5565b604051630e58ae9360e11b8152600481018490526001600160d01b036024820152604490fd5b60405163ec442f0560e01b81525f6004820152602490fd5b3461026a575f36600319011261026a5761031960405161079a8161103b565b600e81526d06d6f64653d74696d657374616d760941b602082015260405191829160208352602083019061026e565b3461026a57602036600319011261026a5760206001600160a01b03806107ed6103a0565b165f526008825260405f205416604051908152f35b3461026a57602036600319011261026a5761052f61081e6103a0565b33611552565b3461026a57602036600319011261026a576001600160a01b036108456103a0565b165f52600960205260405f205463ffffffff9081811161086b5760209160405191168152f35b604490604051906306dfcc6560e41b8252602060048301526024820152fd5b3461026a57602036600319011261026a5760206105666108a86103a0565b6001600160a01b03165f9081526020819052604090205490565b3461026a57602036600319011261026a576001600160a01b036108e36103a0565b165f526007602052602060405f2054604051908152f35b3461026a575f36600319011261026a576109936109367f0000000000000000000000000000000000000000000000000000000000000000611afe565b61095f7f0000000000000000000000000000000000000000000000000000000000000000611bfc565b6040519061096c8261105c565b5f82526109a1602091604051958695600f60f81b875260e0602088015260e087019061026e565b90858203604087015261026e565b4660608501523060808501525f60a085015283810360c0850152602080845192838152019301915f5b8281106109d957505050500390f35b8351855286955093810193928101926001016109ca565b3461026a57602036600319011261026a57610a0c6004356114b9565b600a54905f829160058411610a5e575b610a269350611901565b80610a3757506040515f8152602090f35b610a42602091611529565b600a5f525f8051602061221c833981519152015460301c610613565b9192610a69816117d6565b810390811161068e57610a2693600a5f5265ffffffffffff80835f8051602061221c833981519152015416908516105f14610aa5575091610a1c565b929150610ab190611537565b90610a1c565b3461026a57604036600319011261026a57602060ff610af9610ad76103b6565b6004355f52600b845260405f209060018060a01b03165f5260205260405f2090565b54166040519015158152f35b3461026a575f36600319011261026a57602060405165ffffffffffff42168152f35b3461026a575f36600319011261026a576040515f600454610b4781610fef565b808452906020906001908181169081156103765750600114610b73576103198561030d818703826110b0565b60045f90815293507f8a35acfbc15ff81a39ae7d344fd709f28e8600b4aa8c65c6b64bfe7fe36bd19b5b838510610bb95750505050810160200161030d826103196102fd565b8054868601840152938201938101610b9d565b3461026a57602036600319011261026a576001600160a01b03610bed6103a0565b165f526009602052602060018060d01b03610c0a60405f20611617565b16604051908152f35b3461026a575f36600319011261026a5760206040515f8152f35b3461026a57604036600319011261026a576103f2610c496103a0565b60243590336110f9565b6064359060ff8216820361026a57565b6084359060ff8216820361026a57565b3461026a5760c036600319011261026a57610c8c6103a0565b60443590602435610c9b610c53565b834211610d2357610d1761052f94610d1e926040519060208201927fe48329057bfd03d55e49b547132e39cffd9c1820ad7b9d4c5307691425d15adf845260018060a01b0388166040840152866060840152608083015260808252610cff82611078565b610d1260a435936084359351902061163f565b611665565b918261167d565b611552565b604051632341d78760e11b815260048101859052602490fd5b3461026a5760e036600319011261026a57610d556103a0565b610d5d6103b6565b60443590606435610d6c610c63565b814211610e56576001600160a01b038581165f8181526007602090815260409182902080546001810190915582517f6e71edae12b1b97f4d1f60370fef10105fa2faae0126114a169c64845d6126c99281019283529283019390935292861660608201526080810187905260a081019190915260c080820194909452928352610e0f929091610dfc60e0836110b0565b610d1260c4359360a4359351902061163f565b6001600160a01b0384811690821603610e2c575061052f926116d2565b6040516325c0072360e11b81526001600160a01b0391821660048201529084166024820152604490fd5b60405163313c898160e11b815260048101839052602490fd5b3461026a575f36600319011261026a5760206040517f9f2df0fed2c77648de5860a4cc508cd0818c85b8b8a1ab4ceeef8d981c8956a68152f35b3461026a57604036600319011261026a5761052f600435610ec86103b6565b90805f52600b602052610ee1600160405f200154611267565b611431565b3461026a57604036600319011261026a576020610f34610f046103a0565b610f0c6103b6565b6001600160a01b039182165f9081526001855260408082209290931681526020919091522090565b54604051908152f35b3461026a57604036600319011261026a57610f566103a0565b6024359063ffffffff8216820361026a5761031991610fa591610f776110e1565b50610f806110e1565b506001600160a01b03165f908152600960205260409020610f9f6110e1565b50611df1565b5060405190610fb38261103b565b5465ffffffffffff811680835260309190911c60209283019081526040805192835290516001600160d01b031692820192909252918291820190565b90600182811c9216801561101d575b602083101461100957565b634e487b7160e01b5f52602260045260245ffd5b91607f1691610ffe565b634e487b7160e01b5f52604160045260245ffd5b6040810190811067ffffffffffffffff82111761105757604052565b611027565b6020810190811067ffffffffffffffff82111761105757604052565b60a0810190811067ffffffffffffffff82111761105757604052565b60c0810190811067ffffffffffffffff82111761105757604052565b90601f8019910116810190811067ffffffffffffffff82111761105757604052565b604051906110df8261103b565b565b604051906110ee8261103b565b5f6020838281520152565b6001600160a01b03808216949392919085156111d45782168015610763576001600160a01b0382165f90815260208190526040902054958487106111a557846110df9697036111578460018060a01b03165f525f60205260405f2090565b556001600160a01b0384165f908152602081815260409182902080548801905590518681527fddf252ad1be2c89b69c2b068fc378daa952ba7f163c4a11628f55a4df523b3ef9190a3611f62565b60405163391434e360e21b81526001600160a01b03841660048201526024810188905260448101869052606490fd5b604051634b637e8f60e11b81525f6004820152602490fd5b335f9081527ff70e363b3d7895af770c4a138460777d52eebd3cb9962ccc6b58721f6127bbc8602052604090207f9f2df0fed2c77648de5860a4cc508cd0818c85b8b8a1ab4ceeef8d981c8956a69060ff905b5416156112495750565b6044906040519063e2517d3f60e01b82523360048301526024820152fd5b5f818152600b60209081526040808320338452909152902060ff9061123f565b5f818152600b602090815260408083206001600160a01b038616845290915290205460ff16611311575f818152600b602090815260408083206001600160a01b03861684529091529020805460ff1916600117905533916001600160a01b0316907f2f8788117e7eff1d82e926ec794901d17c78024a50270940304540a733656f0d5f80a4600190565b50505f90565b307f00000000000000000000000000000000000000000000000000000000000000006001600160a01b03161480611408575b15611372577f000000000000000000000000000000000000000000000000000000000000000090565b60405160208101907f8b73c3c69bb8fe3d512ecc4cf759cc79239f7b179b0ffacaa9a75d522b39400f82527f000000000000000000000000000000000000000000000000000000000000000060408201527f000000000000000000000000000000000000000000000000000000000000000060608201524660808201523060a082015260a0815261140281611094565b51902090565b507f00000000000000000000000000000000000000000000000000000000000000004614611349565b5f818152600b602090815260408083206001600160a01b038616845290915290205460ff1615611311575f818152600b602090815260408083206001600160a01b03861684529091529020805460ff1916905533916001600160a01b0316907ff6391f5c32d9c69d2a47ea670b442974b53935d1edc7fd64eb21e047a839171b5f80a4600190565b65ffffffffffff90814216808210156114f757508181116114d8571690565b604490604051906306dfcc6560e41b8252603060048301526024820152fd5b6044925060405191637669fc0f60e11b835260048301526024820152fd5b634e487b7160e01b5f52601160045260245ffd5b5f1981019190821161068e57565b906001820180921161068e57565b9190820180921161068e57565b6001600160a01b038181165f81815260086020526040812080548685166001600160a01b0319821681179092556110df969416946115cd9390928691907f3134e8a2e6d97e929a7e54011ea5485d7d196dd5f0ba4d4ef95803e8e3fc257f9080a46001600160a01b03165f9081526020819052604090205490565b916119af565b600a54806115e057505f90565b805f1981011161068e57600a5f527fc65a7bb8d6351c1cf70c95a316cc6a92839c986682d98bc35f958f4883f9d2a7015460301c90565b8054806116245750505f90565b5f1991818381011161068e575f5260205f2001015460301c90565b60429061164a611317565b906040519161190160f01b8352600283015260228201522090565b916102bd939161167493611cb9565b90929192611d64565b6001600160a01b0381165f90815260076020526040902080546001810190915590918190036116aa575050565b6040516301d4b62360e61b81526001600160a01b039092166004830152602482015260449150fd5b6001600160a01b03808216929190831561176857821693841561175057806117467f8c5be1e5ebec7d5bd14f71427d1e84f3dd0314c0f7b2291e5b200ac8c7c3b9259461173160209560018060a01b03165f52600160205260405f2090565b9060018060a01b03165f5260205260405f2090565b55604051908152a3565b604051634a1406b160e11b81525f6004820152602490fd5b60405163e602df0560e01b81525f6004820152602490fd5b906001600160a01b038083161561176857811615611750576117316117b59260018060a01b03165f52600160205260405f2090565b55565b81156117c2570490565b634e487b7160e01b5f52601260045260245ffd5b60018111156102bd57600181600160801b8110156118ef575b61189761188d61188361187961186f6118656118a397600488600160401b61189e9a10156118e2575b6401000000008110156118d5575b620100008110156118c8575b6101008110156118bc575b60108110156118b0575b10156118a8575b60030260011c61185e818b6117b8565b0160011c90565b61185e818a6117b8565b61185e81896117b8565b61185e81886117b8565b61185e81876117b8565b61185e81866117b8565b80936117b8565b821190565b900390565b60011b61184e565b811c9160021b91611847565b60081c91811b9161183d565b60101c9160081b91611832565b60201c9160101b91611826565b60401c9160201b91611818565b50600160401b9050608082901c6117ef565b82821061190d57505090565b909180831860011c8184160190600a5f5265ffffffffffff80835f8051602061221c833981519152015416908416105f1461194b5750915b90611901565b925061195690611537565b611945565b905b83831061196a5750505090565b90919280841860011c8185160190835f5265ffffffffffff808360205f20015416908416105f1461199f5750925b919061195d565b93506119aa90611537565b611998565b6001600160a01b03808316939291908116908185141580611af5575b6119d7575b5050505050565b81611a5b575b5050826119ec575b80806119d0565b6001600160a01b03165f9081526009602052604090207fdec2bacdd2f05b59de34da9b523dff8be42e5e38e818c82fdb0bae774387a72491611a3891611a329091611e1a565b90611e4d565b604080516001600160d01b039384168152919092166020820152a25f80806119e5565b6001600160a01b03165f908152600960205260409020611a7a84611e1a565b6001600160d01b03908180611a8e85611617565b169116900381811161068e57611ad2611aeb917fdec2bacdd2f05b59de34da9b523dff8be42e5e38e818c82fdb0bae774387a7249465ffffffffffff421690612161565b6040805192851683529316602082015291829190820190565b0390a25f806119dd565b508315156119cb565b60ff8114611b3c5760ff811690601f8211611b2a5760405191611b208361103b565b8252602082015290565b604051632cd44ac360e21b8152600490fd5b50604051600554815f611b4e83610fef565b80835292602090600190818116908115611bd85750600114611b79575b50506102bd925003826110b0565b91509260055f527f036b6384b5eca791c62761152d0c79bb0604c104a5fb6f4eb0703f3154bb3db0935f925b828410611bc057506102bd9450505081016020015f80611b6b565b85548785018301529485019486945092810192611ba5565b915050602092506102bd94915060ff191682840152151560051b8201015f80611b6b565b60ff8114611c1e5760ff811690601f8211611b2a5760405191611b208361103b565b50604051600654815f611c3083610fef565b80835292602090600190818116908115611bd85750600114611c5a5750506102bd925003826110b0565b91509260065f527ff652222313e28459528d920b65115c16c04f3efc82aaedc97be59f3f377c0d3f935f925b828410611ca157506102bd9450505081016020015f80611b6b565b85548785018301529485019486945092810192611c86565b91907f7fffffffffffffffffffffffffffffff5d576e7357a4501ddfe92f46681b20a08411611d3b579160209360809260ff5f9560405194855216868401526040830152606082015282805260015afa15611d30575f516001600160a01b03811615611d2657905f905f90565b505f906001905f90565b6040513d5f823e3d90fd5b5050505f9160039190565b60041115611d5057565b634e487b7160e01b5f52602160045260245ffd5b611d6d81611d46565b80611d76575050565b611d7f81611d46565b60018103611d995760405163f645eedf60e01b8152600490fd5b611da281611d46565b60028103611dc35760405163fce698f760e01b815260048101839052602490fd5b80611dcf600392611d46565b14611dd75750565b6040516335e2f38360e21b81526004810191909152602490fd5b8054821015611e06575f5260205f2001905f90565b634e487b7160e01b5f52603260045260245ffd5b6001600160d01b0390818111611e2e571690565b604490604051906306dfcc6560e41b825260d060048301526024820152fd5b906001600160d01b03908180611e6285611617565b1691160190811161068e57611e809165ffffffffffff421690612161565b9091565b6001600160d01b03908180611e976115d3565b1691160190811161068e57611e809065ffffffffffff421661207b565b6001600160d01b03908180611ec76115d3565b169116900390811161068e57611e809065ffffffffffff421661207b565b906110df91611efb611ef683611e1a565b611e84565b50506001600160a01b03908116908115611f4a575b60086020527f5eff886ea0ce6ca488a3d6e336d6c0f75f46d19b42c06ce5ee98e42c96d256c7545f928352604090922054811691166119af565b611f5b611f5684611e1a565b611eb4565b5050611f10565b6110df92916001600160a01b03918216919081908315611fb6575b16918215611fa3575b5f5260086020528060405f205416915f5260405f205416906119af565b611faf611f5685611e1a565b5050611f86565b611fc2611ef686611e1a565b5050611f7d565b600a5490600160401b821015611057576001820180600a55821015611e0657600a5f52805160209091015160301b65ffffffffffff191665ffffffffffff91909116175f8051602061221c83398151915290910155565b8054600160401b8110156110575761203d91600182018155611df1565b61206857815160209092015160301b65ffffffffffff191665ffffffffffff92909216919091179055565b634e487b7160e01b5f525f60045260245ffd5b600a549192918015612138576120936120a991611529565b600a5f525f8051602061221c8339815191520190565b9081549165ffffffffffff90818416918316808311612126578692036120ee576120e792509065ffffffffffff82549181199060301b169116179055565b60301c9190565b50506121219061210d6120ff6110d2565b65ffffffffffff9092168252565b6001600160d01b0385166020820152611fc9565b6120e7565b604051632520601d60e01b8152600490fd5b5061215c906121486120ff6110d2565b6001600160d01b0384166020820152611fc9565b5f9190565b805492939280156121f65761217861218391611529565b825f5260205f200190565b9182549265ffffffffffff91828516928116808411612126578793036121c257506120e792509065ffffffffffff82549181199060301b169116179055565b915050612121916121e26121d46110d2565b65ffffffffffff9093168352565b6001600160d01b0386166020830152612020565b509061215c916122076121d46110d2565b6001600160d01b038516602083015261202056fec65a7bb8d6351c1cf70c95a316cc6a92839c986682d98bc35f958f4883f9d2a8a2646970667358221220c3df1aad32447eda1fa104377df280974f5c29a3ff9dff428c65bf979037cc2664736f6c634300081800332f8788117e7eff1d82e926ec794901d17c78024a50270940304540a733656f0ddf7de25b7f1fd6d0b5205f0e18f1f35bd7b8d84cce336588d184533ce43a6f76","linkReferences":{}},"methodIdentifiers":{"CLOCK_MODE()":"4bf5d7e9","DEFAULT_ADMIN_ROLE()":"a217fddf","DOMAIN_SEPARATOR()":"3644e515","MINTER_ROLE()":"d5391393","allowance(address,address)":"dd62ed3e","approve(address,uint256)":"095ea7b3","balanceOf(address)":"70a08231","checkpoints(address,uint32)":"f1127ed8","clock()":"91ddadf4","decimals()":"313ce567","delegate(address)":"5c19a95c","delegateBySig(address,uint256,uint256,uint8,bytes32,bytes32)":"c3cda520","delegates(address)":"587cde1e","eip712Domain()":"84b0196e","getPastTotalSupply(uint256)":"8e539e8c","getPastVotes(address,uint256)":"3a46b1a8","getRoleAdmin(bytes32)":"248a9ca3","getVotes(address)":"9ab24eb0","grantRole(bytes32,address)":"2f2ff15d","hasRole(bytes32,address)":"91d14854","mint(address,uint256)":"40c10f19","name()":"06fdde03","nonces(address)":"7ecebe00","numCheckpoints(address)":"6fcfff45","permit(address,address,uint256,uint256,uint8,bytes32,bytes32)":"d505accf","renounceRole(bytes32,address)":"36568abe","revokeRole(bytes32,address)":"d547741f","supportsInterface(bytes4)":"01ffc9a7","symbol()":"95d89b41","totalSupply()":"18160ddd","transfer(address,uint256)":"a9059cbb","transferFrom(address,address,uint256)":"23b872dd"},"id":94}