{"abi":[{"type":"function","name":"UPGRADE_INTERFACE_VERSION","inputs":[],"outputs":[{"name":"","type":"string","internalType":"string"}],"stateMutability":"view"},{"type":"function","name":"grantXP","inputs":[{"name":"player","type":"address","internalType":"address"},{"name":"amount","type":"uint256","internalType":"uint256"}],"outputs":[],"stateMutability":"nonpayable"},{"type":"function","name":"hasAchievement","inputs":[{"name":"player","type":"address","internalType":"address"},{"name":"achievementId","type":"uint256","internalType":"uint256"}],"outputs":[{"name":"","type":"bool","internalType":"bool"}],"stateMutability":"view"},{"type":"function","name":"initialize","inputs":[{"name":"owner_","type":"address","internalType":"address"},{"name":"xpPerLevel_","type":"uint256","internalType":"uint256"}],"outputs":[],"stateMutability":"nonpayable"},{"type":"function","name":"levelOf","inputs":[{"name":"player","type":"address","internalType":"address"}],"outputs":[{"name":"","type":"uint256","internalType":"uint256"}],"stateMutability":"view"},{"type":"function","name":"owner","inputs":[],"outputs":[{"name":"","type":"address","internalType":"address"}],"stateMutability":"view"},{"type":"function","name":"proxiableUUID","inputs":[],"outputs":[{"name":"","type":"bytes32","internalType":"bytes32"}],"stateMutability":"view"},{"type":"function","name":"transferOwnership","inputs":[{"name":"newOwner","type":"address","internalType":"address"}],"outputs":[],"stateMutability":"nonpayable"},{"type":"function","name":"unlockAchievement","inputs":[{"name":"player","type":"address","internalType":"address"},{"name":"achievementId","type":"uint256","internalType":"uint256"}],"outputs":[],"stateMutability":"nonpayable"},{"type":"function","name":"upgradeToAndCall","inputs":[{"name":"newImplementation","type":"address","internalType":"address"},{"name":"data","type":"bytes","internalType":"bytes"}],"outputs":[],"stateMutability":"payable"},{"type":"function","name":"version","inputs":[],"outputs":[{"name":"","type":"string","internalType":"string"}],"stateMutability":"pure"},{"type":"function","name":"xpOf","inputs":[{"name":"player","type":"address","internalType":"address"}],"outputs":[{"name":"","type":"uint256","internalType":"uint256"}],"stateMutability":"view"},{"type":"function","name":"xpPerLevel","inputs":[],"outputs":[{"name":"","type":"uint256","internalType":"uint256"}],"stateMutability":"view"},{"type":"event","name":"AchievementUnlocked","inputs":[{"name":"player","type":"address","indexed":true,"internalType":"address"},{"name":"achievementId","type":"uint256","indexed":true,"internalType":"uint256"}],"anonymous":false},{"type":"event","name":"Initialized","inputs":[{"name":"version","type":"uint64","indexed":false,"internalType":"uint64"}],"anonymous":false},{"type":"event","name":"OwnershipTransferred","inputs":[{"name":"previousOwner","type":"address","indexed":true,"internalType":"address"},{"name":"newOwner","type":"address","indexed":true,"internalType":"address"}],"anonymous":false},{"type":"event","name":"Upgraded","inputs":[{"name":"implementation","type":"address","indexed":true,"internalType":"address"}],"anonymous":false},{"type":"event","name":"XPGranted","inputs":[{"name":"player","type":"address","indexed":true,"internalType":"address"},{"name":"amount","type":"uint256","indexed":false,"internalType":"uint256"},{"name":"newTotal","type":"uint256","indexed":false,"internalType":"uint256"}],"anonymous":false},{"type":"error","name":"AchievementOutOfRange","inputs":[]},{"type":"error","name":"AddressEmptyCode","inputs":[{"name":"target","type":"address","internalType":"address"}]},{"type":"error","name":"ERC1967InvalidImplementation","inputs":[{"name":"implementation","type":"address","internalType":"address"}]},{"type":"error","name":"ERC1967NonPayable","inputs":[]},{"type":"error","name":"FailedCall","inputs":[]},{"type":"error","name":"InvalidInitialization","inputs":[]},{"type":"error","name":"NotInitializing","inputs":[]},{"type":"error","name":"NotOwner","inputs":[]},{"type":"error","name":"UUPSUnauthorizedCallContext","inputs":[]},{"type":"error","name":"UUPSUnsupportedProxiableUUID","inputs":[{"name":"slot","type":"bytes32","internalType":"bytes32"}]},{"type":"error","name":"ZeroAddress","inputs":[]},{"type":"error","name":"ZeroValue","inputs":[]}],"bytecode":{"object":"0x60a080604052346100cc57306080527ff0c57e16840df040f15088dc2f81fe391c3923bec73e23a9662efc9c229c6a009081549060ff8260401c166100bd57506001600160401b036002600160401b031982821601610078575b6040516109a190816100d182396080518181816104d601526105ba0152f35b6001600160401b031990911681179091556040519081527fc7f505b2f371ae2175ee4913f4499e1f2633a7b5936321eed1cdaeb6115181d290602090a15f8080610059565b63f92ee8a960e01b8152600490fd5b5f80fdfe608060409080825260049081361015610016575f80fd5b5f3560e01c9081630551e88d14610780575080634f1ef2861461053a57806352d1902d146104c257806354fd4d50146104895780635bb338bc146103f75780635c138c9d1461039f5780636a288ad514610381578063883c00d61461034a5780638da5cb5b14610323578063ab5eba16146102e4578063ad3cb1cc146102a4578063cd6dc6871461013f5763f2fde38b146100af575f80fd5b3461013b57602036600319011261013b576100c861082b565b5f54916001600160a01b03808416923384900361012b571693841561011e57505082907f8be0079c531659141344cd1fd0a4f28419497f9722a3daafe3b4186f6b6457e05f80a36001600160a01b031916175f55005b5163d92e233d60e01b8152fd5b85516330cd747160e01b81528390fd5b5f80fd5b503461013b578160031936011261013b5761015861082b565b6024357ff0c57e16840df040f15088dc2f81fe391c3923bec73e23a9662efc9c229c6a009283549260ff84871c16159367ffffffffffffffff81168015908161029c575b6001149081610292575b159081610289575b506102795767ffffffffffffffff19811660011786558461025a575b506001600160a01b031690811561024c57821561023e57506bffffffffffffffffffffffff60a01b5f5416175f5560025561020157005b805468ff00000000000000001916905551600181527fc7f505b2f371ae2175ee4913f4499e1f2633a7b5936321eed1cdaeb6115181d290602090a1005b8551637c946ed760e01b8152fd5b855163d92e233d60e01b8152fd5b68ffffffffffffffffff1916680100000000000000011785555f6101ca565b865163f92ee8a960e01b81528390fd5b9050155f6101ae565b303b1591506101a6565b86915061019c565b823461013b575f36600319011261013b5780516102e0916102c482610841565b60058252640352e302e360dc1b60208301525191829182610893565b0390f35b823461013b578060031936011261013b576020906001600160a01b0361030861082b565b165f5260038252805f205490519060016024351b1615158152f35b823461013b575f36600319011261013b575f5490516001600160a01b039091168152602090f35b823461013b57602036600319011261013b576020906001600160a01b0361036f61082b565b165f5260018252805f20549051908152f35b823461013b575f36600319011261013b576020906002549051908152f35b50903461013b57602036600319011261013b576001600160a01b036103c261082b565b165f526001602052805f2054906002549081156103e457602093505191048152f35b601284634e487b7160e01b5f525260245ffd5b50903461013b578060031936011261013b5761041161082b565b5f54602435936001600160a01b0392918316330361047b5760ff851161046d57501690815f5260036020525f206001831b81541790557fecfcf3a608fefe3b6ea7d5efc965cfc3ad0043767f8618944c737253329892d75f80a3005b8351635ba7e05160e11b8152fd5b83516330cd747160e01b8152fd5b823461013b575f36600319011261013b5780516102e0916104a982610841565b60028252612b1960f11b60208301525191829182610893565b50903461013b575f36600319011261013b577f00000000000000000000000000000000000000000000000000000000000000006001600160a01b0316300361052d57602090517f360894a13ba1a3210667c828492db98dca3e2076cc3735a920a3ca505d382bbc8152f35b5163703e46dd60e11b8152fd5b508160031936011261013b5761054e61082b565b602492833567ffffffffffffffff9283821161013b573660238301121561013b578185013593841161076e5760209383519261059386601f19601f8501160185610871565b8184523688838301011161013b57815f928988930183870137840101526001600160a01b037f00000000000000000000000000000000000000000000000000000000000000008116308114908115610740575b5061073057805f541633036107205783516352d1902d60e01b81529082169480828881895afa9182915f936106f0575b5050610630575050505191634c9c8ce360e01b8352820152fd5b85938591887f360894a13ba1a3210667c828492db98dca3e2076cc3735a920a3ca505d382bbc918281036106db5750843b156106c7575080546001600160a01b0319168317905551907fbc7cd75a20ee27fd9adebab32041f755214dbc6bffa90cc0225b39da2e5c2d3b5f80a28251156106b157506106af92506108da565b005b915050346106bb57005b63b398979f60e01b8152fd5b8251634c9c8ce360e01b8152808801859052fd5b8351632a87526960e21b815280890191909152fd5b9080929350813d8311610719575b6107088183610871565b8101031261013b5751905f80610616565b503d6106fe565b83516330cd747160e01b81528690fd5b835163703e46dd60e11b81528690fd5b9050817f360894a13ba1a3210667c828492db98dca3e2076cc3735a920a3ca505d382bbc541614155f6105e6565b85604186634e487b7160e01b5f52525ffd5b9050823461013b578060031936011261013b5761079b61082b565b5f54602435936001600160a01b0392918316330361081d57501691825f526001602052815f205481810180911161080a57837f8ab0a1d1d908bc56d151a3071c87611839a86a4c5374bdbbeaa2f6a55efd9dd59495505f52600160205280835f205582519182526020820152a2005b601185634e487b7160e01b5f525260245ffd5b6330cd747160e01b81528590fd5b600435906001600160a01b038216820361013b57565b6040810190811067ffffffffffffffff82111761085d57604052565b634e487b7160e01b5f52604160045260245ffd5b90601f8019910116810190811067ffffffffffffffff82111761085d57604052565b602080825282518183018190529093925f5b8281106108c657505060409293505f838284010152601f8019910116010190565b8181018601518482016040015285016108a5565b905f8091602081519101845af48080610958575b1561090e5750506040513d81523d5f602083013e60203d82010160405290565b1561093557604051639996b31560e01b81526001600160a01b039091166004820152602490fd5b3d15610946576040513d5f823e3d90fd5b60405163d6bda27560e01b8152600490fd5b503d1515806108ee5750813b15156108ee56fea2646970667358221220fcb625c5c10f62c4e3900208efd0b7d0f5a640f0836b13ad93d0d348173c1c3964736f6c63430008180033","linkReferences":{}},"methodIdentifiers":{"UPGRADE_INTERFACE_VERSION()":"ad3cb1cc","grantXP(address,uint256)":"0551e88d","hasAchievement(address,uint256)":"ab5eba16","initialize(address,uint256)":"cd6dc687","levelOf(address)":"5c138c9d","owner()":"8da5cb5b","proxiableUUID()":"52d1902d","transferOwnership(address)":"f2fde38b","unlockAchievement(address,uint256)":"5bb338bc","upgradeToAndCall(address,bytes)":"4f1ef286","version()":"54fd4d50","xpOf(address)":"883c00d6","xpPerLevel()":"6a288ad5"},"id":106}