{"abi":[{"type":"constructor","inputs":[{"name":"admin","type":"address","internalType":"address"},{"name":"baseURI_","type":"string","internalType":"string"}],"stateMutability":"nonpayable"},{"type":"function","name":"BURNER_ROLE","inputs":[],"outputs":[{"name":"","type":"bytes32","internalType":"bytes32"}],"stateMutability":"view"},{"type":"function","name":"DEFAULT_ADMIN_ROLE","inputs":[],"outputs":[{"name":"","type":"bytes32","internalType":"bytes32"}],"stateMutability":"view"},{"type":"function","name":"IRON","inputs":[],"outputs":[{"name":"","type":"uint256","internalType":"uint256"}],"stateMutability":"view"},{"type":"function","name":"MANA","inputs":[],"outputs":[{"name":"","type":"uint256","internalType":"uint256"}],"stateMutability":"view"},{"type":"function","name":"MINTER_ROLE","inputs":[],"outputs":[{"name":"","type":"bytes32","internalType":"bytes32"}],"stateMutability":"view"},{"type":"function","name":"WOOD","inputs":[],"outputs":[{"name":"","type":"uint256","internalType":"uint256"}],"stateMutability":"view"},{"type":"function","name":"balanceOf","inputs":[{"name":"account","type":"address","internalType":"address"},{"name":"id","type":"uint256","internalType":"uint256"}],"outputs":[{"name":"","type":"uint256","internalType":"uint256"}],"stateMutability":"view"},{"type":"function","name":"balanceOfBatch","inputs":[{"name":"accounts","type":"address[]","internalType":"address[]"},{"name":"ids","type":"uint256[]","internalType":"uint256[]"}],"outputs":[{"name":"","type":"uint256[]","internalType":"uint256[]"}],"stateMutability":"view"},{"type":"function","name":"burn","inputs":[{"name":"from","type":"address","internalType":"address"},{"name":"tokenId","type":"uint256","internalType":"uint256"},{"name":"amount","type":"uint256","internalType":"uint256"}],"outputs":[],"stateMutability":"nonpayable"},{"type":"function","name":"burnBatch","inputs":[{"name":"from","type":"address","internalType":"address"},{"name":"ids","type":"uint256[]","internalType":"uint256[]"},{"name":"amounts","type":"uint256[]","internalType":"uint256[]"}],"outputs":[],"stateMutability":"nonpayable"},{"type":"function","name":"equipment","inputs":[{"name":"","type":"uint256","internalType":"uint256"}],"outputs":[{"name":"name","type":"string","internalType":"string"},{"name":"tier","type":"uint8","internalType":"uint8"},{"name":"power","type":"uint256","internalType":"uint256"}],"stateMutability":"view"},{"type":"function","name":"getRoleAdmin","inputs":[{"name":"role","type":"bytes32","internalType":"bytes32"}],"outputs":[{"name":"","type":"bytes32","internalType":"bytes32"}],"stateMutability":"view"},{"type":"function","name":"grantRole","inputs":[{"name":"role","type":"bytes32","internalType":"bytes32"},{"name":"account","type":"address","internalType":"address"}],"outputs":[],"stateMutability":"nonpayable"},{"type":"function","name":"hasRole","inputs":[{"name":"role","type":"bytes32","internalType":"bytes32"},{"name":"account","type":"address","internalType":"address"}],"outputs":[{"name":"","type":"bool","internalType":"bool"}],"stateMutability":"view"},{"type":"function","name":"isApprovedForAll","inputs":[{"name":"account","type":"address","internalType":"address"},{"name":"operator","type":"address","internalType":"address"}],"outputs":[{"name":"","type":"bool","internalType":"bool"}],"stateMutability":"view"},{"type":"function","name":"mintEquipment","inputs":[{"name":"to","type":"address","internalType":"address"},{"name":"equipName","type":"string","internalType":"string"},{"name":"tier","type":"uint8","internalType":"uint8"},{"name":"power","type":"uint256","internalType":"uint256"}],"outputs":[{"name":"tokenId","type":"uint256","internalType":"uint256"}],"stateMutability":"nonpayable"},{"type":"function","name":"mintResource","inputs":[{"name":"to","type":"address","internalType":"address"},{"name":"tokenId","type":"uint256","internalType":"uint256"},{"name":"amount","type":"uint256","internalType":"uint256"}],"outputs":[],"stateMutability":"nonpayable"},{"type":"function","name":"name","inputs":[],"outputs":[{"name":"","type":"string","internalType":"string"}],"stateMutability":"view"},{"type":"function","name":"renounceRole","inputs":[{"name":"role","type":"bytes32","internalType":"bytes32"},{"name":"callerConfirmation","type":"address","internalType":"address"}],"outputs":[],"stateMutability":"nonpayable"},{"type":"function","name":"revokeRole","inputs":[{"name":"role","type":"bytes32","internalType":"bytes32"},{"name":"account","type":"address","internalType":"address"}],"outputs":[],"stateMutability":"nonpayable"},{"type":"function","name":"safeBatchTransferFrom","inputs":[{"name":"from","type":"address","internalType":"address"},{"name":"to","type":"address","internalType":"address"},{"name":"ids","type":"uint256[]","internalType":"uint256[]"},{"name":"values","type":"uint256[]","internalType":"uint256[]"},{"name":"data","type":"bytes","internalType":"bytes"}],"outputs":[],"stateMutability":"nonpayable"},{"type":"function","name":"safeTransferFrom","inputs":[{"name":"from","type":"address","internalType":"address"},{"name":"to","type":"address","internalType":"address"},{"name":"id","type":"uint256","internalType":"uint256"},{"name":"value","type":"uint256","internalType":"uint256"},{"name":"data","type":"bytes","internalType":"bytes"}],"outputs":[],"stateMutability":"nonpayable"},{"type":"function","name":"setApprovalForAll","inputs":[{"name":"operator","type":"address","internalType":"address"},{"name":"approved","type":"bool","internalType":"bool"}],"outputs":[],"stateMutability":"nonpayable"},{"type":"function","name":"setBaseURI","inputs":[{"name":"newURI","type":"string","internalType":"string"}],"outputs":[],"stateMutability":"nonpayable"},{"type":"function","name":"supportsInterface","inputs":[{"name":"interfaceId","type":"bytes4","internalType":"bytes4"}],"outputs":[{"name":"","type":"bool","internalType":"bool"}],"stateMutability":"view"},{"type":"function","name":"uri","inputs":[{"name":"tokenId","type":"uint256","internalType":"uint256"}],"outputs":[{"name":"","type":"string","internalType":"string"}],"stateMutability":"view"},{"type":"event","name":"ApprovalForAll","inputs":[{"name":"account","type":"address","indexed":true,"internalType":"address"},{"name":"operator","type":"address","indexed":true,"internalType":"address"},{"name":"approved","type":"bool","indexed":false,"internalType":"bool"}],"anonymous":false},{"type":"event","name":"EquipmentRegistered","inputs":[{"name":"tokenId","type":"uint256","indexed":true,"internalType":"uint256"},{"name":"name","type":"string","indexed":false,"internalType":"string"},{"name":"tier","type":"uint8","indexed":false,"internalType":"uint8"}],"anonymous":false},{"type":"event","name":"ResourcesMinted","inputs":[{"name":"to","type":"address","indexed":true,"internalType":"address"},{"name":"tokenId","type":"uint256","indexed":true,"internalType":"uint256"},{"name":"amount","type":"uint256","indexed":false,"internalType":"uint256"}],"anonymous":false},{"type":"event","name":"RoleAdminChanged","inputs":[{"name":"role","type":"bytes32","indexed":true,"internalType":"bytes32"},{"name":"previousAdminRole","type":"bytes32","indexed":true,"internalType":"bytes32"},{"name":"newAdminRole","type":"bytes32","indexed":true,"internalType":"bytes32"}],"anonymous":false},{"type":"event","name":"RoleGranted","inputs":[{"name":"role","type":"bytes32","indexed":true,"internalType":"bytes32"},{"name":"account","type":"address","indexed":true,"internalType":"address"},{"name":"sender","type":"address","indexed":true,"internalType":"address"}],"anonymous":false},{"type":"event","name":"RoleRevoked","inputs":[{"name":"role","type":"bytes32","indexed":true,"internalType":"bytes32"},{"name":"account","type":"address","indexed":true,"internalType":"address"},{"name":"sender","type":"address","indexed":true,"internalType":"address"}],"anonymous":false},{"type":"event","name":"TransferBatch","inputs":[{"name":"operator","type":"address","indexed":true,"internalType":"address"},{"name":"from","type":"address","indexed":true,"internalType":"address"},{"name":"to","type":"address","indexed":true,"internalType":"address"},{"name":"ids","type":"uint256[]","indexed":false,"internalType":"uint256[]"},{"name":"values","type":"uint256[]","indexed":false,"internalType":"uint256[]"}],"anonymous":false},{"type":"event","name":"TransferSingle","inputs":[{"name":"operator","type":"address","indexed":true,"internalType":"address"},{"name":"from","type":"address","indexed":true,"internalType":"address"},{"name":"to","type":"address","indexed":true,"internalType":"address"},{"name":"id","type":"uint256","indexed":false,"internalType":"uint256"},{"name":"value","type":"uint256","indexed":false,"internalType":"uint256"}],"anonymous":false},{"type":"event","name":"URI","inputs":[{"name":"value","type":"string","indexed":false,"internalType":"string"},{"name":"id","type":"uint256","indexed":true,"internalType":"uint256"}],"anonymous":false},{"type":"error","name":"AccessControlBadConfirmation","inputs":[]},{"type":"error","name":"AccessControlUnauthorizedAccount","inputs":[{"name":"account","type":"address","internalType":"address"},{"name":"neededRole","type":"bytes32","internalType":"bytes32"}]},{"type":"error","name":"ERC1155InsufficientBalance","inputs":[{"name":"sender","type":"address","internalType":"address"},{"name":"balance","type":"uint256","internalType":"uint256"},{"name":"needed","type":"uint256","internalType":"uint256"},{"name":"tokenId","type":"uint256","internalType":"uint256"}]},{"type":"error","name":"ERC1155InvalidApprover","inputs":[{"name":"approver","type":"address","internalType":"address"}]},{"type":"error","name":"ERC1155InvalidArrayLength","inputs":[{"name":"idsLength","type":"uint256","internalType":"uint256"},{"name":"valuesLength","type":"uint256","internalType":"uint256"}]},{"type":"error","name":"ERC1155InvalidOperator","inputs":[{"name":"operator","type":"address","internalType":"address"}]},{"type":"error","name":"ERC1155InvalidReceiver","inputs":[{"name":"receiver","type":"address","internalType":"address"}]},{"type":"error","name":"ERC1155InvalidSender","inputs":[{"name":"sender","type":"address","internalType":"address"}]},{"type":"error","name":"ERC1155MissingApprovalForAll","inputs":[{"name":"operator","type":"address","internalType":"address"},{"name":"owner","type":"address","internalType":"address"}]}],"bytecode":{"object":"0x608060405234620003595762002817803803806200001d816200035d565b92833981019060408183031262000359578051906001600160a01b038216820362000359576020818101516001600160401b039283821162000359570193601f91818387011215620003595785518481116200026357601f199662000088828601891684016200035d565b93828552838383010111620003595782905f5b838110620003445750505f918401015281518481116200026357620000c260025462000383565b84811162000308575b508082858211600114620002a3575f9162000297575b508160011b915f199060031b1c1916176002555b6103e8600455600562000109815462000383565b84811162000277575b50816f5265616c6d466f726765204974656d7360801b018155825194851162000263576200014260065462000383565b84811162000227575b505080928411600114620001ba57506200019d94505f919083620001ae575b50508160011b915f199060031b1c1916176006555b6200018a81620003d6565b50620001968162000446565b50620004e7565b506040516122549081620005838239f35b015190505f806200016a565b9294851660065f52835f20935f905b8282106200020e5750509160019391866200019d979410620001f5575b505050811b016006556200017f565b01515f1960f88460031b161c191690555f8080620001e6565b80600186978294978701518155019601940190620001c9565b620002519160065f52835f209086808901821c830193868a1062000259575b01901c0190620003be565b5f806200014b565b9350829362000246565b634e487b7160e01b5f52604160045260245ffd5b6200029090825f5285845f209101831c810190620003be565b5f62000112565b90508301515f620000e1565b9088169060025f52835f20915f5b85828210620002f15750509083600194939210620002d8575b5050811b01600255620000f5565b8501515f1960f88460031b161c191690555f80620002ca565b600184958293958a015181550194019201620002b1565b620003339060025f52835f208680850160051c8201928686106200033a575b0160051c0190620003be565b5f620000cb565b9250819262000327565b8181018301518682018401528492016200009b565b5f80fd5b6040519190601f01601f191682016001600160401b038111838210176200026357604052565b90600182811c92168015620003b3575b60208310146200039f57565b634e487b7160e01b5f52602260045260245ffd5b91607f169162000393565b818110620003ca575050565b5f8155600101620003be565b6001600160a01b03165f8181525f80516020620027f7833981519152602052604090205460ff1662000441575f8181525f80516020620027f783398151915260205260408120805460ff191660011790553391905f80516020620027d78339815191528180a4600190565b505f90565b6001600160a01b03165f8181527f5562e70da342db81569f3094d36be279beaca7ad8e08f434ea188e79d2bfe10c60205260409020547f9f2df0fed2c77648de5860a4cc508cd0818c85b8b8a1ab4ceeef8d981c8956a6919060ff16620004e157815f52600360205260405f20815f5260205260405f20600160ff1982541617905533915f80516020620027d78339815191525f80a4600190565b50505f90565b6001600160a01b03165f8181527fc721e1f137a110c51edbe4010a9b421a661db4e03bd767bb8eff64a76dc2c2be60205260409020547f3c11d16cbaffd01df69ce1c404f6340ee057498f5f00246190ea54220576a848919060ff16620004e157815f52600360205260405f20815f5260205260405f20600160ff1982541617905533915f80516020620027d78339815191525f80a460019056fe60806040526004361015610011575f80fd5b5f3560e01c8062fdd58e146101b357806301ffc9a7146101ae57806306fdde03146101a95780630e89341c146101a45780631fd81bcd1461019f578063248a9ca31461019a578063282c51f3146101955780632eb2c2d6146101905780632f2ff15d1461018b57806336568abe146101865780633aa39ff1146101815780634e1273f41461017c57806355f804b3146101775780635653e3ac1461017257806365b817e61461016d5780636b20c4541461016857806391d1485414610163578063a217fddf1461015e578063a22cb46514610159578063d539139314610154578063d547741f1461014f578063e985e9c51461014a578063ecb4279514610145578063f242432a14610140578063f5298aca1461013b5763fcacdaa714610136575f80fd5b6112c8565b611268565b6111b4565b611199565b611149565b61110c565b6110d2565b611002565b610fe8565b610f9a565b610ee8565b610dd8565b610dbd565b610ca5565b610bbe565b610aa4565b610a33565b6109f6565b6107bf565b610699565b61066c565b610651565b6104c0565b6103e0565b610256565b6101fc565b600435906001600160a01b03821682036101ce57565b5f80fd5b602435906001600160a01b03821682036101ce57565b35906001600160a01b03821682036101ce57565b346101ce5760403660031901126101ce57602061023b61021a6101b8565b6024355f525f835260405f209060018060a01b03165f5260205260405f2090565b54604051908152f35b6001600160e01b03198116036101ce57565b346101ce5760203660031901126101ce57602060043561027581610244565b63ffffffff60e01b16637965db0b60e01b811490811561029b575b506040519015158152f35b636cdb3d1360e11b8114915081156102cd575b81156102bc575b505f610290565b6301ffc9a760e01b1490505f6102b5565b6303a24d0760e21b811491506102ae565b90600182811c9216801561030c575b60208310146102f857565b634e487b7160e01b5f52602260045260245ffd5b91607f16916102ed565b634e487b7160e01b5f52604160045260245ffd5b606081019081106001600160401b0382111761034557604052565b610316565b602081019081106001600160401b0382111761034557604052565b90601f801991011681019081106001600160401b0382111761034557604052565b5f5b8381106103975750505f910152565b8181015183820152602001610388565b906020916103c081518092818552858086019101610386565b601f01601f1916010190565b9060206103dd9281815201906103a7565b90565b346101ce575f3660031901126101ce576040515f600554610400816102de565b80845290602090600190818116908115610496575060011461043d575b6104398561042d81870382610365565b604051918291826103cc565b0390f35b60055f90815293507f036b6384b5eca791c62761152d0c79bb0604c104a5fb6f4eb0703f3154bb3db05b8385106104835750505050810160200161042d8261043961041d565b8054868601840152938201938101610467565b8695506104399693506020925061042d94915060ff191682840152151560051b820101929361041d565b346101ce5760203660031901126101ce575f600435807a184f03e93ff9f4daa797ed6e38ed64bf6a1f01000000000000000080821015610643575b506d04ee2d6d415b85acef810000000080831015610634575b50662386f26fc1000080831015610625575b506305f5e10080831015610616575b5061271080831015610607575b5060648210156105f7575b600a809210156105ed575b60019081602161056a6001870161176c565b95860101905b6105b8575b6040516104399061042d816105aa6105998a610593602085016113c7565b90611453565b64173539b7b760d91b815260050190565b03601f198101835282610365565b5f19019083906f181899199a1a9b1b9c1cb0b131b232b360811b8282061a8353049182156105e857919082610570565b610575565b9160010191610558565b919060646002910491019161054d565b6004919392049101915f610542565b6008919392049101915f610535565b6010919392049101915f610526565b6020919392049101915f610514565b60409350810491505f6104fb565b346101ce575f3660031901126101ce57602060405160018152f35b346101ce5760203660031901126101ce576004355f5260036020526020600160405f200154604051908152f35b346101ce575f3660031901126101ce5760206040517f3c11d16cbaffd01df69ce1c404f6340ee057498f5f00246190ea54220576a8488152f35b6001600160401b0381116103455760051b60200190565b92916106f5826106d3565b916107036040519384610365565b829481845260208094019160051b81019283116101ce57905b8282106107295750505050565b8135815290830190830161071c565b9080601f830112156101ce578160206103dd933591016106ea565b6001600160401b03811161034557601f01601f191660200190565b92919261077a82610753565b916107886040519384610365565b8294818452818301116101ce578281602093845f960137010152565b9080601f830112156101ce578160206103dd9335910161076e565b346101ce5760a03660031901126101ce576107d86101b8565b6107e06101d2565b906044356001600160401b038082116101ce5761080260049236908401610738565b926064358281116101ce5761081a9036908501610738565b916084359081116101ce5761083290369085016107a4565b9361083d823361179e565b6001600160a01b03868116959086156109df5783169586156109c957825185518082036109a45750505f5b8351811015610938578060051b60208082870101519188010151906108ad87610898835f525f60205260405f2090565b9060018060a01b03165f5260205260405f2090565b548281106108fa576108ea8c6108988594600197966108f295036108dc8d610898845f525f60205260405f2090565b555f525f60205260405f2090565b918254611eee565b905501610868565b604080516303dee4c560e01b81526001600160a01b038a16818d01908152602081019390935290820193909352606081019190915281906080010390fd5b5061097b92888587938a60018551145f1461097d5760208581015187820151604080519283529282015233915f805160206121ff83398151915291a45b336121a7565b005b6040515f805160206121df83398151915233918061099c8a8a83611efb565b0390a4610975565b60408051635b05999160e01b8152808a01938452602084019290925290918291010390fd5b604051626a0d4560e21b81525f81880152602490fd5b604051632bfa23e760e11b81525f81880152602490fd5b346101ce5760403660031901126101ce5761097b600435610a156101d2565b90805f526003602052610a2e600160405f200154611934565b611954565b346101ce5760403660031901126101ce57610a4c6101d2565b336001600160a01b03821603610a685761097b906004356119e4565b60405163334bd91960e11b8152600490fd5b60609060031901126101ce576004356001600160a01b03811681036101ce57906024359060443590565b346101ce57610ab236610a7a565b9091610abc61180c565b600183101580610b6f575b15610b2a57610b257fba34785eba14e233d9cfea443b9ecf9fe8243caeec964ed589a29ff404d811cb91610b0b604051610b008161034a565b5f8152858784611aad565b6040519384526001600160a01b0316929081906020820190565b0390a3005b60405162461bcd60e51b815260206004820152601960248201527f47616d654974656d733a206e6f742061207265736f75726365000000000000006044820152606490fd5b506003831115610ac7565b9081518082526020808093019301915f5b828110610b99575050505090565b835185529381019392810192600101610b8b565b9060206103dd928181520190610b7a565b346101ce5760403660031901126101ce576004356001600160401b038082116101ce57366023830112156101ce578160040135610bfa816106d3565b92610c086040519485610365565b8184526020916024602086019160051b830101913683116101ce57602401905b828210610c6157856024358681116101ce5761043991610c4f610c55923690600401610738565b906114a4565b60405191829182610bad565b838091610c6d846101e8565b815201910190610c28565b9181601f840112156101ce578235916001600160401b0383116101ce57602083818601950101116101ce57565b346101ce576020806003193601126101ce576001600160401b036004358181116101ce57610cd7903690600401610c78565b91610ce0611887565b821161034557610cfa82610cf56006546102de565b611561565b5f92601f8311600114610d385750610d28925f9183610d2d575b50508160011b915f199060031b1c19161790565b600655005b013590505f80610d14565b90601f19831693610d6a60065f527ff652222313e28459528d920b65115c16c04f3efc82aaedc97be59f3f377c0d3f90565b925f905b868210610da55750508360019510610d8c575b505050811b01600655005b01355f19600384901b60f8161c191690555f8080610d81565b80600184968294958701358155019501920190610d6e565b346101ce575f3660031901126101ce57602060405160028152f35b346101ce576020806003193601126101ce576004355f526007815260405f2090604051905f928054610e09816102de565b80855290600190818116908115610e9a5750600114610e63575b5050610e3483610e56950384610365565b600260ff600183015416910154906040519485946060865260608601906103a7565b9284015260408301520390f35b5f8381528481209096505b828710610e8757505050928201810192610e3483610e23565b8054868801860152958401958101610e6e565b60ff1916858701525050151560051b830182019350610e3483610e23565b9181601f840112156101ce578235916001600160401b0383116101ce576020808501948460051b0101116101ce57565b346101ce5760603660031901126101ce57610f016101b8565b6001600160401b036024358181116101ce57610f21903690600401610eb8565b6044929192359182116101ce57610f54610f42610f5c933690600401610eb8565b949092610f4d6118dd565b36916106ea565b9236916106ea565b906001600160a01b03831615610f835761097b925f604051610f7d8161034a565b52611af1565b604051626a0d4560e21b81525f6004820152602490fd5b346101ce5760403660031901126101ce57602060ff610fdc610fba6101d2565b6004355f526003845260405f209060018060a01b03165f5260205260405f2090565b54166040519015158152f35b346101ce575f3660031901126101ce5760206040515f8152f35b346101ce5760403660031901126101ce5761101b6101b8565b60243580151581036101ce5733156110ba576001600160a01b0382169182156110a357335f90815260016020526040902061106d91839161105c9190610898565b9060ff801983541691151516179055565b604051901515815233907f17307eab39ab6107e8899845ad3d59bd9653f200f220920489ca2b5937696c31908060208101610b25565b60405162ced3e160e81b81525f6004820152602490fd5b604051631f18c42760e11b81525f6004820152602490fd5b346101ce575f3660031901126101ce5760206040517f9f2df0fed2c77648de5860a4cc508cd0818c85b8b8a1ab4ceeef8d981c8956a68152f35b346101ce5760403660031901126101ce5761097b60043561112b6101d2565b90805f526003602052611144600160405f200154611934565b6119e4565b346101ce5760403660031901126101ce57602060ff610fdc6111696101b8565b6111716101d2565b6001600160a01b039182165f9081526001865260408082209290931681526020919091522090565b346101ce575f3660031901126101ce57602060405160038152f35b346101ce5760a03660031901126101ce576111cd6101b8565b6111d56101d2565b6084356001600160401b0381116101ce576111f49036906004016107a4565b906111ff833361179e565b6001600160a01b038181161561125057831615610f835761097b926112486064356044359160405192600184526020840152604083019160018352606084015260808301604052565b929091611c2a565b604051632bfa23e760e11b81525f6004820152602490fd5b346101ce5761127636610a7a565b91906112806118dd565b6001600160a01b03821615610f835761097b926112ba60405192600184526020840152604083019160018352606084015260808301604052565b915f604051610f7d8161034a565b346101ce5760803660031901126101ce576112e16101b8565b6024356001600160401b0381116101ce57611300903690600401610c78565b6044359060ff8216908183036101ce5761131861180c565b600454935f1985146113c2576113af85946113a3610439986113947fca936107a590ea7d2a60b8f5bc9cc73b60f191f99d31a2aa327f8fb20db33e039760018a01600455604051906113698261032a565b611374368a8a61076e565b825260208201526064356040820152895f52600760205260405f20611631565b8761139d61146a565b91611a6c565b60405193849384611739565b0390a26040519081529081906020820190565b61161d565b6006545f92916113d6826102de565b9160019081811690811561144057506001146113f157505050565b909192935060065f527ff652222313e28459528d920b65115c16c04f3efc82aaedc97be59f3f377c0d3f905f915b84831061142d575050500190565b818160209254858701520192019161141f565b60ff191683525050811515909102019150565b9061146660209282815194859201610386565b0190565b604051906114778261034a565b5f8252565b80518210156114905760209160051b010190565b634e487b7160e01b5f52603260045260245ffd5b9190918051835180820361153f5750508051906114d96114c3836106d3565b926114d16040519485610365565b8084526106d3565b60209190601f190136848401375f5b815181101561153757600581901b8281018401519087018401515f908152602081815260408083206001600160a01b039094168352929052205460019190611530828761147c565b52016114e8565b509193505050565b604051635b05999160e01b815260048101919091526024810191909152604490fd5b601f811161156d575050565b60065f527ff652222313e28459528d920b65115c16c04f3efc82aaedc97be59f3f377c0d3f906020601f840160051c830193106115c4575b601f0160051c01905b8181106115b9575050565b5f81556001016115ae565b90915081906115a5565b601f82116115db57505050565b5f5260205f20906020601f840160051c83019310611613575b601f0160051c01905b818110611608575050565b5f81556001016115fd565b90915081906115f4565b634e487b7160e01b5f52601160045260245ffd5b9080518051906001600160401b038211610345576116598261165386546102de565b866115ce565b602090816001601f8511146116c85750826040936002959361168f935f926116bd5750508160011b915f199060031b1c19161790565b84555b6116b66116a3602083015160ff1690565b600186019060ff1660ff19825416179055565b0151910155565b015190505f80610d14565b9190601f1984166116dc875f5260205f2090565b935f905b8282106117215750509260019285926040966002989610611709575b505050811b018455611692565b01515f1960f88460031b161c191690555f80806116fc565b806001869782949787015181550196019401906116e0565b9160608160ff9260209497969760408752816040880152838701375f828287010152601f80199101168401019416910152565b9061177682610753565b6117836040519182610365565b8281528092611794601f1991610753565b0190602036910137565b6001600160a01b038181169216908183141590816117de575b506117c0575050565b604492506040519163711bec9160e11b835260048301526024820152fd5b5f8381526001602090815260408083206001600160a01b0390941683529290522060ff91505416155f6117b7565b335f9081527f5562e70da342db81569f3094d36be279beaca7ad8e08f434ea188e79d2bfe10c602052604090207f9f2df0fed2c77648de5860a4cc508cd0818c85b8b8a1ab4ceeef8d981c8956a69060ff905b5416156118695750565b6044906040519063e2517d3f60e01b82523360048301526024820152fd5b335f9081527f3617319a054d772f909f7c479a2cebe5066e836a939412e32403c99029b92eff602052604090205460ff16156118bf57565b60405163e2517d3f60e01b81523360048201525f6024820152604490fd5b335f9081527fc721e1f137a110c51edbe4010a9b421a661db4e03bd767bb8eff64a76dc2c2be602052604090207f3c11d16cbaffd01df69ce1c404f6340ee057498f5f00246190ea54220576a8489060ff9061185f565b5f818152600360209081526040808320338452909152902060ff9061185f565b5f8181526003602090815260408083206001600160a01b038616845290915290205460ff166119de575f8181526003602090815260408083206001600160a01b03861684529091529020805460ff1916600117905533916001600160a01b0316907f2f8788117e7eff1d82e926ec794901d17c78024a50270940304540a733656f0d5f80a4600190565b50505f90565b5f8181526003602090815260408083206001600160a01b038616845290915290205460ff16156119de575f8181526003602090815260408083206001600160a01b03861684529091529020805460ff1916905533916001600160a01b0316907ff6391f5c32d9c69d2a47ea670b442974b53935d1edc7fd64eb21e047a839171b5f80a4600190565b9091906001600160a01b0381161561125057611aab92604051906001825260208201526040810191600183526001606083015260808201604052611dd8565b565b919291906001600160a01b0382161561125057611aab93611aeb60405192600184526020840152604083019160018352606084015260808301604052565b91611dd8565b929190805182519081810361153f5750505f5b8151811015611bb157600581901b82810160209081015191850101516001600160a01b038716611b39575b5050600101611b04565b611b4e87610898845f525f60205260405f2090565b54818110611b7a57876108986001959493611b729303935f525f60205260405f2090565b55905f611b2f565b6040516303dee4c560e01b81526001600160a01b038916600482015260248101919091526044810182905260648101839052608490fd5b50905f92939160018151148414611bfe576020908101519181015160408051938452918301526001600160a01b039092169133915f805160206121ff83398151915291819081015b0390a4565b6040516001600160a01b039093169233925f805160206121df833981519152928291611bf99183611efb565b94919091815184519081810361153f5750505f5b8251811015611d2357600581901b83810160209081015191870101516001600160a01b03929186908a8516611ca3575b6001948216611c81575b50505001611c3e565b611c99916108986108ea925f525f60205260405f2090565b90555f8581611c78565b9192939050611cbd8a610898845f525f60205260405f2090565b54838110611cec5791879184600196959403611ce48d610898855f525f60205260405f2090565b559450611c6e565b6040516303dee4c560e01b81526001600160a01b038c16600482015260248101919091526044810184905260648101839052608490fd5b5094919392909360018551145f14611da0576020858101518382015160408051928352928201526001600160a01b03838116929086169133915f805160206121ff83398151915291a45b6001600160a01b038116611d83575b5050505050565b602080611d9696015192015192336120c0565b5f80808080611d7c565b6040516001600160a01b03828116919085169033905f805160206121df8339815191529080611dd0888c83611efb565b0390a4611d6d565b90805183519081810361153f5750505f5b8151811015611e4557600581901b82810160209081015191860101516001929185906001600160a01b038216611e23575b50505001611de9565b611e3b916108986108ea925f525f60205260405f2090565b90555f8481611e1a565b50929160018451145f14611eb9576020848101518282015160408051928352928201526001600160a01b038416915f9133915f805160206121ff83398151915291a45b6001600160a01b038216611e9d575b50505050565b602080611eb09501519101519133611fc7565b5f808080611e97565b6040516001600160a01b038316905f9033905f805160206121df8339815191529080611ee6878b83611efb565b0390a4611e88565b919082018092116113c257565b9091611f126103dd93604084526040840190610b7a565b916020818403910152610b7a565b908160209103126101ce57516103dd81610244565b909260a0926103dd9594600180861b031683525f60208401526040830152606082015281608082015201906103a7565b91926103dd95949160a094600180871b0380921685521660208401526040830152606082015281608082015201906103a7565b3d15611fc2573d90611fa982610753565b91611fb76040519384610365565b82523d5f602084013e565b606090565b9293919093843b611fd9575050505050565b602091611ffc604051948593849363f23a6e6160e01b9889865260048601611f35565b03815f6001600160a01b0388165af15f918161208f575b506120525782612021611f98565b805191908261204b57604051632bfa23e760e11b81526001600160a01b0383166004820152602490fd5b6020915001fd5b6001600160e01b0319160361206c57505f80808080611d7c565b604051632bfa23e760e11b81526001600160a01b03919091166004820152602490fd5b6120b291925060203d6020116120b9575b6120aa8183610365565b810190611f20565b905f612013565b503d6120a0565b939290949194853b6120d5575b505050505050565b6120f8602093604051958694859463f23a6e6160e01b998a875260048701611f65565b03815f6001600160a01b0388165af15f9181612138575b5061211d5782612021611f98565b6001600160e01b0319160361206c57505f80808080806120cd565b61215291925060203d6020116120b9576120aa8183610365565b905f61210f565b93906103dd959361218b916121999460018060a01b03809216885216602087015260a0604087015260a0860190610b7a565b908482036060860152610b7a565b9160808184039101526103a7565b939290949194853b6121bb57505050505050565b6120f8602093604051958694859463bc197c8160e01b998a87526004870161215956fe4a39dc06d4c0dbc64b70af90fd698a233a518aa5d07e595d983b8c0526c8f7fbc3d58168c5ae7397731d063d5bbf3d657854427343f4c083240f7aacaa2d0f62a2646970667358221220bed65e5aa3daafcdb16cdb1b38b73dba98336de3ab9a2f4796bc10ef07d83bb364736f6c634300081800332f8788117e7eff1d82e926ec794901d17c78024a50270940304540a733656f0d3617319a054d772f909f7c479a2cebe5066e836a939412e32403c99029b92eff","linkReferences":{}},"methodIdentifiers":{"BURNER_ROLE()":"282c51f3","DEFAULT_ADMIN_ROLE()":"a217fddf","IRON()":"1fd81bcd","MANA()":"ecb42795","MINTER_ROLE()":"d5391393","WOOD()":"5653e3ac","balanceOf(address,uint256)":"00fdd58e","balanceOfBatch(address[],uint256[])":"4e1273f4","burn(address,uint256,uint256)":"f5298aca","burnBatch(address,uint256[],uint256[])":"6b20c454","equipment(uint256)":"65b817e6","getRoleAdmin(bytes32)":"248a9ca3","grantRole(bytes32,address)":"2f2ff15d","hasRole(bytes32,address)":"91d14854","isApprovedForAll(address,address)":"e985e9c5","mintEquipment(address,string,uint8,uint256)":"fcacdaa7","mintResource(address,uint256,uint256)":"3aa39ff1","name()":"06fdde03","renounceRole(bytes32,address)":"36568abe","revokeRole(bytes32,address)":"d547741f","safeBatchTransferFrom(address,address,uint256[],uint256[],bytes)":"2eb2c2d6","safeTransferFrom(address,address,uint256,uint256,bytes)":"f242432a","setApprovalForAll(address,bool)":"a22cb465","setBaseURI(string)":"55f804b3","supportsInterface(bytes4)":"01ffc9a7","uri(uint256)":"0e89341c"},"id":49}