{"abi":[{"type":"function","name":"sumAssembly","inputs":[{"name":"data","type":"uint256[]","internalType":"uint256[]"}],"outputs":[{"name":"total","type":"uint256","internalType":"uint256"}],"stateMutability":"pure"},{"type":"function","name":"sumSolidity","inputs":[{"name":"data","type":"uint256[]","internalType":"uint256[]"}],"outputs":[{"name":"total","type":"uint256","internalType":"uint256"}],"stateMutability":"pure"}],"bytecode":{"object":"0x6080806040523461001657610149908161001b8239f35b5f80fdfe6080604052600480361015610012575f80fd5b5f3560e01c9081634d83e1971461006f5750636224e14b14610032575f80fd5b3461006b57610040366100c6565b5f905f925b81841061005757602083604051908152f35b600184019360051b81013590920191610045565b5f80fd5b3461006b5761007d366100c6565b905f915f915b81831061009557602084604051908152f35b9091928360051b82013581018091116100b357926001019190610083565b601185634e487b7160e01b5f525260245ffd5b90602060031983011261006b5760043567ffffffffffffffff9283821161006b578060238301121561006b57816004013593841161006b5760248460051b8301011161006b57602401919056fea264697066735822122006fce0a042915ad1ef356184372abf07b0ada083ba41dfa465f2e5c0a8acccea64736f6c63430008180033","linkReferences":{}},"methodIdentifiers":{"sumAssembly(uint256[])":"6224e14b","sumSolidity(uint256[])":"4d83e197"},"id":33}