{"abi":[{"type":"constructor","inputs":[{"name":"itemsContract_","type":"address","internalType":"address"},{"name":"treasury_","type":"address","internalType":"address"},{"name":"admin_","type":"address","internalType":"address"}],"stateMutability":"nonpayable"},{"type":"function","name":"addLiquidity","inputs":[{"name":"tokenA","type":"uint256","internalType":"uint256"},{"name":"amtA","type":"uint256","internalType":"uint256"},{"name":"tokenB","type":"uint256","internalType":"uint256"},{"name":"amtB","type":"uint256","internalType":"uint256"}],"outputs":[{"name":"shares","type":"uint256","internalType":"uint256"}],"stateMutability":"nonpayable"},{"type":"function","name":"feeBps","inputs":[],"outputs":[{"name":"","type":"uint256","internalType":"uint256"}],"stateMutability":"view"},{"type":"function","name":"getReserves","inputs":[{"name":"tA","type":"uint256","internalType":"uint256"},{"name":"tB","type":"uint256","internalType":"uint256"}],"outputs":[{"name":"rA","type":"uint256","internalType":"uint256"},{"name":"rB","type":"uint256","internalType":"uint256"}],"stateMutability":"view"},{"type":"function","name":"items","inputs":[],"outputs":[{"name":"","type":"address","internalType":"contract GameItems"}],"stateMutability":"view"},{"type":"function","name":"lpBalance","inputs":[{"name":"","type":"bytes32","internalType":"bytes32"},{"name":"","type":"address","internalType":"address"}],"outputs":[{"name":"","type":"uint256","internalType":"uint256"}],"stateMutability":"view"},{"type":"function","name":"onERC1155BatchReceived","inputs":[{"name":"","type":"address","internalType":"address"},{"name":"","type":"address","internalType":"address"},{"name":"","type":"uint256[]","internalType":"uint256[]"},{"name":"","type":"uint256[]","internalType":"uint256[]"},{"name":"","type":"bytes","internalType":"bytes"}],"outputs":[{"name":"","type":"bytes4","internalType":"bytes4"}],"stateMutability":"nonpayable"},{"type":"function","name":"onERC1155Received","inputs":[{"name":"","type":"address","internalType":"address"},{"name":"","type":"address","internalType":"address"},{"name":"","type":"uint256","internalType":"uint256"},{"name":"","type":"uint256","internalType":"uint256"},{"name":"","type":"bytes","internalType":"bytes"}],"outputs":[{"name":"","type":"bytes4","internalType":"bytes4"}],"stateMutability":"nonpayable"},{"type":"function","name":"owner","inputs":[],"outputs":[{"name":"","type":"address","internalType":"address"}],"stateMutability":"view"},{"type":"function","name":"poolKey","inputs":[{"name":"tA","type":"uint256","internalType":"uint256"},{"name":"tB","type":"uint256","internalType":"uint256"}],"outputs":[{"name":"","type":"bytes32","internalType":"bytes32"}],"stateMutability":"pure"},{"type":"function","name":"pools","inputs":[{"name":"","type":"bytes32","internalType":"bytes32"}],"outputs":[{"name":"reserveA","type":"uint256","internalType":"uint256"},{"name":"reserveB","type":"uint256","internalType":"uint256"},{"name":"totalShares","type":"uint256","internalType":"uint256"}],"stateMutability":"view"},{"type":"function","name":"quoteOut","inputs":[{"name":"tokenIn","type":"uint256","internalType":"uint256"},{"name":"tokenOut","type":"uint256","internalType":"uint256"},{"name":"amountIn","type":"uint256","internalType":"uint256"}],"outputs":[{"name":"amountOut","type":"uint256","internalType":"uint256"}],"stateMutability":"view"},{"type":"function","name":"removeLiquidity","inputs":[{"name":"tokenA","type":"uint256","internalType":"uint256"},{"name":"tokenB","type":"uint256","internalType":"uint256"},{"name":"shares","type":"uint256","internalType":"uint256"}],"outputs":[{"name":"amtA","type":"uint256","internalType":"uint256"},{"name":"amtB","type":"uint256","internalType":"uint256"}],"stateMutability":"nonpayable"},{"type":"function","name":"renounceOwnership","inputs":[],"outputs":[],"stateMutability":"nonpayable"},{"type":"function","name":"setFeeBps","inputs":[{"name":"newFee","type":"uint256","internalType":"uint256"}],"outputs":[],"stateMutability":"nonpayable"},{"type":"function","name":"setTreasury","inputs":[{"name":"newTreasury","type":"address","internalType":"address"}],"outputs":[],"stateMutability":"nonpayable"},{"type":"function","name":"supportsInterface","inputs":[{"name":"interfaceId","type":"bytes4","internalType":"bytes4"}],"outputs":[{"name":"","type":"bool","internalType":"bool"}],"stateMutability":"view"},{"type":"function","name":"swap","inputs":[{"name":"tokenIn","type":"uint256","internalType":"uint256"},{"name":"tokenOut","type":"uint256","internalType":"uint256"},{"name":"amountIn","type":"uint256","internalType":"uint256"},{"name":"minAmountOut","type":"uint256","internalType":"uint256"}],"outputs":[{"name":"amountOut","type":"uint256","internalType":"uint256"}],"stateMutability":"nonpayable"},{"type":"function","name":"transferOwnership","inputs":[{"name":"newOwner","type":"address","internalType":"address"}],"outputs":[],"stateMutability":"nonpayable"},{"type":"function","name":"treasury","inputs":[],"outputs":[{"name":"","type":"address","internalType":"address"}],"stateMutability":"view"},{"type":"event","name":"FeeUpdated","inputs":[{"name":"newFeeBps","type":"uint256","indexed":false,"internalType":"uint256"}],"anonymous":false},{"type":"event","name":"LiquidityAdded","inputs":[{"name":"key","type":"bytes32","indexed":true,"internalType":"bytes32"},{"name":"provider","type":"address","indexed":true,"internalType":"address"},{"name":"amtA","type":"uint256","indexed":false,"internalType":"uint256"},{"name":"amtB","type":"uint256","indexed":false,"internalType":"uint256"},{"name":"shares","type":"uint256","indexed":false,"internalType":"uint256"}],"anonymous":false},{"type":"event","name":"LiquidityRemoved","inputs":[{"name":"key","type":"bytes32","indexed":true,"internalType":"bytes32"},{"name":"provider","type":"address","indexed":true,"internalType":"address"},{"name":"amtA","type":"uint256","indexed":false,"internalType":"uint256"},{"name":"amtB","type":"uint256","indexed":false,"internalType":"uint256"}],"anonymous":false},{"type":"event","name":"OwnershipTransferred","inputs":[{"name":"previousOwner","type":"address","indexed":true,"internalType":"address"},{"name":"newOwner","type":"address","indexed":true,"internalType":"address"}],"anonymous":false},{"type":"event","name":"PoolCreated","inputs":[{"name":"tokenA","type":"uint256","indexed":false,"internalType":"uint256"},{"name":"tokenB","type":"uint256","indexed":false,"internalType":"uint256"}],"anonymous":false},{"type":"event","name":"Swapped","inputs":[{"name":"key","type":"bytes32","indexed":true,"internalType":"bytes32"},{"name":"trader","type":"address","indexed":true,"internalType":"address"},{"name":"tokenIn","type":"uint256","indexed":false,"internalType":"uint256"},{"name":"amountIn","type":"uint256","indexed":false,"internalType":"uint256"},{"name":"amountOut","type":"uint256","indexed":false,"internalType":"uint256"}],"anonymous":false},{"type":"error","name":"OwnableInvalidOwner","inputs":[{"name":"owner","type":"address","internalType":"address"}]},{"type":"error","name":"OwnableUnauthorizedAccount","inputs":[{"name":"account","type":"address","internalType":"address"}]}],"bytecode":{"object":"0x60a03461010e57601f6113e838819003918201601f19168301916001600160401b038311848410176101125780849260609460405283398101031261010e5761004781610126565b90604061005660208301610126565b916001600160a01b0391829161006c9101610126565b169182156100f657815f549460018060a01b03199480868816175f558260405197167f8be0079c531659141344cd1fd0a4f28419497f9722a3daafe3b4186f6b6457e05f80a3601e60015516608052169060025416176002556112ad908161013b823960805181818161033d01528181610550015281816108b601528181610c4c0152610dde0152f35b604051631e4fbdf760e01b81525f6004820152602490fd5b5f80fd5b634e487b7160e01b5f52604160045260245ffd5b51906001600160a01b038216820361010e5756fe6080604081815260049182361015610015575f80fd5b5f925f3560e01c91826301ffc9a714610ee25750816324a9d85314610ec45781635673b02d14610b7557816361d027b314610b4c578163715018a614610af357816372c27b6214610a6357816374d9f9c714610a09578163857620e1146107c55781638da5cb5b1461079d578163aebf3e4114610434578163b5217bb4146103f3578163bc197c811461036c578163c06fad0614610328578163ce58fda614610286578163f0f4426014610241578163f23a6e61146101e8578163f2fde38b1461015a578163f4e3f76614610118575063fc8ace6c146100f3575f80fd5b346101145760209061010d61010736610f68565b916111a1565b9051908152f35b5080fd5b90503461015657816003193601126101565781602093610136610f98565b92803582528552209060018060a01b03165f528252805f20549051908152f35b8280fd5b90503461015657602036600319011261015657610175610f82565b9061017e61124c565b6001600160a01b039182169283156101d25750505f54826bffffffffffffffffffffffff60a01b8216175f55167f8be0079c531659141344cd1fd0a4f28419497f9722a3daafe3b4186f6b6457e05f80a380f35b51631e4fbdf760e01b8152908101849052602490fd5b82843461023e5760a036600319011261023e57610203610f82565b5061020c610f98565b506084359067ffffffffffffffff821161023e57506020926102309136910161107b565b505163f23a6e6160e01b8152f35b80fd5b833461023e57602036600319011261023e5761025b610f82565b61026361124c565b60018060a01b03166bffffffffffffffffffffffff60a01b600254161760025580f35b82843461023e5761029636610f52565b90918183146102f3575060209350808210156102d057825190848201928352838201528281526102c581610fd6565b519020905b51908152f35b90825190848201928352838201528281526102ea81610fd6565b519020906102ca565b835162461bcd60e51b8152602081870152600f60248201526e20a6a69d1039b0b6b2903a37b5b2b760891b6044820152606490fd5b505034610114578160031936011261011457517f00000000000000000000000000000000000000000000000000000000000000006001600160a01b03168152602090f35b82843461023e5760a036600319011261023e57610387610f82565b50610390610f98565b5067ffffffffffffffff90604435828111610114576103b29036908601611014565b50606435828111610114576103ca9036908601611014565b5060843591821161023e57506020926103e59136910161107b565b505163bc197c8160e01b8152f35b905034610156576020366003190112610156573582526003602090815291819020805460018201546002909201549251908152928301526040820152606090f35b8383346101145761044436610f34565b9491928181101561079657909294915b859383928651986020998a810190838252848a82015289815261047681610fd6565b5190209586855260038b528885209960028b019182549182155f146106f9575050506104a28689611130565b8560038211156106e35750806001908060011c600181018091116106d0579291905b8284106106b0575050600191505b9a6104de8a8254611143565b8155016104ec878254611143565b90557f37d4a71449cd4163b2d08aeed513412fe798bf25bb804c48f90470f32a17308f898c86825191878352820152a15b891561067a5761052e8a8254611143565b9055858452808a52878420335f528a52875f2061054c8a8254611143565b90557f00000000000000000000000000000000000000000000000000000000000000006001600160a01b031691823b1561065857885185818061059f8c637921219560e11b9687845230338a860161116e565b038183885af180156106705790869161065c575b5050823b1561065857918593918580946105dc8c5197889687958694855230903390860161116e565b03925af1801561064e5790879291610636575b505084519384526020840191909152604083015233917f9c8e2178a53b464e8c6d21c6d0d1f5189e5d2f6f6a79237ba611cf996a6e6b329080606081015b0390a351908152f35b81925061064290610fae565b61023e578086916105ef565b86513d84823e3d90fd5b8480fd5b61066590610fae565b61065857848c6105b3565b8a513d88823e3d90fd5b885162461bcd60e51b81528083018c9052601060248201526f414d4d3a207a65726f2073686172657360801b6044820152606490fd5b9091506106c6836106c18184611150565b611143565b821c9291906104c4565b634e487b7160e01b895260118652602489fd5b906106f1575b6001906104d2565b5060016106e9565b826107209d939b5061073592995061071091611130565b976107268b84549e8f809c611150565b92611130565b90600184015492838093611150565b8082101561078e57509a5b808c809f61074d91611130565b9061075791611150565b9b8c9261076391611130565b9061076d91611150565b98899161077991611143565b835561078491611143565b906001015561051d565b90509a610740565b9291610454565b505034610114578160031936011261011457905490516001600160a01b039091168152602090f35b9050823461023e576107d636610f68565b929181811015610a035790915b85519260209384810190848252828982015288815261080181610fd6565b519020928383526003855287832096808652888420335f52865286895f2054106109c95760028801805497906108388915156110d1565b89549882816108478c83611130565b9061085191611150565b9b60018101908d825491856108668487611130565b9061087091611150565b9e8f9261087c9161110f565b90556108879161110f565b90556108929161110f565b9055858552818752898520335f528752895f20908154906108b29161110f565b90557f00000000000000000000000000000000000000000000000000000000000000006001600160a01b031691823b156106585789518581806109058d637921219560e11b9687845233308a860161116e565b038183885af180156109bf579086916109ab575b5050823b1561065857918793918580946109428d5197889687958694855233903090860161116e565b03925af180156109a15761098d575b505084519084825283838301527f317e53ec6bc434475c6a7c12af460342fa47661758139f35045090a232213a0c863393a38351928352820152f35b6109978291610fae565b61023e5780610951565b87513d84823e3d90fd5b6109b490610fae565b61065857848b610919565b8b513d88823e3d90fd5b885162461bcd60e51b815290810186905260146024820152730414d4d3a20696e73756666696369656e74204c560641b6044820152606490fd5b916107e3565b505034610114578091610a1b36610f52565b9081811015610a5e57905b8351906020820192835284820152838152610a4081610fd6565b51902081526003602052206001815491015482519182526020820152f35b610a26565b9190503461015657602036600319011261015657813591610a8261124c565b6103e88311610abd5750816020917f8c4d35e54a3f2ef1134138fd8ea3daee6a3c89e10d2665996babdf70261e2c769360015551908152a180f35b6020606492519162461bcd60e51b835282015260116024820152700829a9a7440cccaca40e8dede40d0d2ced607b1b6044820152fd5b833461023e578060031936011261023e57610b0c61124c565b5f80546001600160a01b0319811682556001600160a01b03167f8be0079c531659141344cd1fd0a4f28419497f9722a3daafe3b4186f6b6457e08280a380f35b50503461011457816003193601126101145760025490516001600160a01b039091168152602090f35b838334610e5c57610b8536610f34565b909590949180841015610ebd5783815b8651602081019183835288820152878152610baf81610fd6565b51902093845f526003602052865f209283549283151580610eb0575b610bd4906110d1565b8714928315610ea6576001850154905b6001549061271092828403848111610e9357610c048f91610c0b92611130565b9182611130565b9184810290808204861490151715610e9357610c319291610c2b91611143565b90611150565b9a8b10610e6057610c42908c611130565b049485610dcd575b7f00000000000000000000000000000000000000000000000000000000000000006001600160a01b031690610c7f878d61110f565b823b15610658578a51637921219560e11b80825291869082908190610ca9908f30338a860161116e565b038183885af18015610dc357908691610daf575b5050823b1561065857918b9391858094610ce68e5197889687958694855233903090860161116e565b03925af18015610da557610d91575b5050967f78c6f4a50c0f15ed2a8deb78bae57215acf03c773fd8acffd3bb7f8e6cfe0a199287926020995f14610d6957610d3d600192610d378354918661110f565b90611143565b815501610d4b83825461110f565b90555b8551948552602085015260408401523392806060810161062d565b600181610d7a86610d8a945461110f565b81550191610d378354918561110f565b9055610d4e565b610d9b8291610fae565b61023e5780610cf5565b88513d84823e3d90fd5b610db890610fae565b61065857848e610cbd565b8c513d88823e3d90fd5b6002546001600160a01b03908116907f000000000000000000000000000000000000000000000000000000000000000016803b15610e5c57875f918b83610e2a958f5196879586948593637921219560e11b8552338c860161116e565b03925af18015610e5257610e3f575b50610c4a565b610e4a919350610fae565b5f918b610e39565b8a513d5f823e3d90fd5b5f80fd5b895162461bcd60e51b8152602081890152600d60248201526c414d4d3a20736c69707061676560981b6044820152606490fd5b60118a634e487b7160e01b5f525260245ffd5b6001850154610be4565b5060018501541515610bcb565b8084610b95565b8234610e5c575f366003190112610e5c576020906001549051908152f35b9034610e5c576020366003190112610e5c57359063ffffffff60e01b8216809203610e5c57602091630271189760e51b8114908115610f23575b5015158152f35b6301ffc9a760e01b14905083610f1c565b6080906003190112610e5c5760043590602435906044359060643590565b6040906003190112610e5c576004359060243590565b6060906003190112610e5c57600435906024359060443590565b600435906001600160a01b0382168203610e5c57565b602435906001600160a01b0382168203610e5c57565b67ffffffffffffffff8111610fc257604052565b634e487b7160e01b5f52604160045260245ffd5b6060810190811067ffffffffffffffff821117610fc257604052565b90601f8019910116810190811067ffffffffffffffff821117610fc257604052565b81601f82011215610e5c5780359160209167ffffffffffffffff8411610fc2578360051b906040519461104985840187610ff2565b85528380860192820101928311610e5c578301905b82821061106c575050505090565b8135815290830190830161105e565b81601f82011215610e5c5780359067ffffffffffffffff8211610fc257604051926110b0601f8401601f191660200185610ff2565b82845260208383010111610e5c57815f926020809301838601378301015290565b156110d857565b60405162461bcd60e51b815260206004820152600f60248201526e1053534e88195b5c1d1e481c1bdbdb608a1b6044820152606490fd5b9190820391821161111c57565b634e487b7160e01b5f52601160045260245ffd5b8181029291811591840414171561111c57565b9190820180921161111c57565b811561115a570490565b634e487b7160e01b5f52601260045260245ffd5b929060c0949260018060a01b0380921685521660208401526040830152606082015260a060808201525f60a08201520190565b9190808310156112465782905b60405160208101918383526040820152604081526111cb81610fd6565b5190205f52600360205260405f2092145f146112395760018254920154915b801561123257600154916127109283039083821161111c576112169161120f91611130565b9384611130565b918082029182040361111c5761122f92610c2b91611143565b90565b5050505f90565b60018201549154916111ea565b826111ae565b5f546001600160a01b0316330361125f57565b60405163118cdaa760e01b8152336004820152602490fdfea26469706673582212204128cf5697a28360c5c3ee18312e0566bd01cacdb82c3539304a877333d3b22b64736f6c63430008180033","linkReferences":{}},"methodIdentifiers":{"addLiquidity(uint256,uint256,uint256,uint256)":"aebf3e41","feeBps()":"24a9d853","getReserves(uint256,uint256)":"74d9f9c7","items()":"c06fad06","lpBalance(bytes32,address)":"f4e3f766","onERC1155BatchReceived(address,address,uint256[],uint256[],bytes)":"bc197c81","onERC1155Received(address,address,uint256,uint256,bytes)":"f23a6e61","owner()":"8da5cb5b","poolKey(uint256,uint256)":"ce58fda6","pools(bytes32)":"b5217bb4","quoteOut(uint256,uint256,uint256)":"fc8ace6c","removeLiquidity(uint256,uint256,uint256)":"857620e1","renounceOwnership()":"715018a6","setFeeBps(uint256)":"72c27b62","setTreasury(address)":"f0f44260","supportsInterface(bytes4)":"01ffc9a7","swap(uint256,uint256,uint256,uint256)":"5673b02d","transferOwnership(address)":"f2fde38b","treasury()":"61d027b3"},"id":51}