{"abi":[{"type":"constructor","inputs":[{"name":"itemsContract_","type":"address","internalType":"address"},{"name":"treasury_","type":"address","internalType":"address"},{"name":"admin_","type":"address","internalType":"address"}],"stateMutability":"nonpayable"},{"type":"function","name":"addLiquidity","inputs":[{"name":"tokenA","type":"uint256","internalType":"uint256"},{"name":"amtA","type":"uint256","internalType":"uint256"},{"name":"tokenB","type":"uint256","internalType":"uint256"},{"name":"amtB","type":"uint256","internalType":"uint256"}],"outputs":[{"name":"shares","type":"uint256","internalType":"uint256"}],"stateMutability":"nonpayable"},{"type":"function","name":"feeBps","inputs":[],"outputs":[{"name":"","type":"uint256","internalType":"uint256"}],"stateMutability":"view"},{"type":"function","name":"getReserves","inputs":[{"name":"tA","type":"uint256","internalType":"uint256"},{"name":"tB","type":"uint256","internalType":"uint256"}],"outputs":[{"name":"rA","type":"uint256","internalType":"uint256"},{"name":"rB","type":"uint256","internalType":"uint256"}],"stateMutability":"view"},{"type":"function","name":"items","inputs":[],"outputs":[{"name":"","type":"address","internalType":"contract GameItems"}],"stateMutability":"view"},{"type":"function","name":"lpBalance","inputs":[{"name":"","type":"bytes32","internalType":"bytes32"},{"name":"","type":"address","internalType":"address"}],"outputs":[{"name":"","type":"uint256","internalType":"uint256"}],"stateMutability":"view"},{"type":"function","name":"onERC1155BatchReceived","inputs":[{"name":"","type":"address","internalType":"address"},{"name":"","type":"address","internalType":"address"},{"name":"","type":"uint256[]","internalType":"uint256[]"},{"name":"","type":"uint256[]","internalType":"uint256[]"},{"name":"","type":"bytes","internalType":"bytes"}],"outputs":[{"name":"","type":"bytes4","internalType":"bytes4"}],"stateMutability":"nonpayable"},{"type":"function","name":"onERC1155Received","inputs":[{"name":"","type":"address","internalType":"address"},{"name":"","type":"address","internalType":"address"},{"name":"","type":"uint256","internalType":"uint256"},{"name":"","type":"uint256","internalType":"uint256"},{"name":"","type":"bytes","internalType":"bytes"}],"outputs":[{"name":"","type":"bytes4","internalType":"bytes4"}],"stateMutability":"nonpayable"},{"type":"function","name":"owner","inputs":[],"outputs":[{"name":"","type":"address","internalType":"address"}],"stateMutability":"view"},{"type":"function","name":"poolKey","inputs":[{"name":"tA","type":"uint256","internalType":"uint256"},{"name":"tB","type":"uint256","internalType":"uint256"}],"outputs":[{"name":"","type":"bytes32","internalType":"bytes32"}],"stateMutability":"pure"},{"type":"function","name":"pools","inputs":[{"name":"","type":"bytes32","internalType":"bytes32"}],"outputs":[{"name":"reserveA","type":"uint256","internalType":"uint256"},{"name":"reserveB","type":"uint256","internalType":"uint256"},{"name":"totalShares","type":"uint256","internalType":"uint256"}],"stateMutability":"view"},{"type":"function","name":"quoteOut","inputs":[{"name":"tokenIn","type":"uint256","internalType":"uint256"},{"name":"tokenOut","type":"uint256","internalType":"uint256"},{"name":"amountIn","type":"uint256","internalType":"uint256"}],"outputs":[{"name":"amountOut","type":"uint256","internalType":"uint256"}],"stateMutability":"view"},{"type":"function","name":"removeLiquidity","inputs":[{"name":"tokenA","type":"uint256","internalType":"uint256"},{"name":"tokenB","type":"uint256","internalType":"uint256"},{"name":"shares","type":"uint256","internalType":"uint256"}],"outputs":[{"name":"amtA","type":"uint256","internalType":"uint256"},{"name":"amtB","type":"uint256","internalType":"uint256"}],"stateMutability":"nonpayable"},{"type":"function","name":"renounceOwnership","inputs":[],"outputs":[],"stateMutability":"nonpayable"},{"type":"function","name":"setFeeBps","inputs":[{"name":"newFee","type":"uint256","internalType":"uint256"}],"outputs":[],"stateMutability":"nonpayable"},{"type":"function","name":"setTreasury","inputs":[{"name":"newTreasury","type":"address","internalType":"address"}],"outputs":[],"stateMutability":"nonpayable"},{"type":"function","name":"supportsInterface","inputs":[{"name":"interfaceId","type":"bytes4","internalType":"bytes4"}],"outputs":[{"name":"","type":"bool","internalType":"bool"}],"stateMutability":"view"},{"type":"function","name":"swap","inputs":[{"name":"tokenIn","type":"uint256","internalType":"uint256"},{"name":"tokenOut","type":"uint256","internalType":"uint256"},{"name":"amountIn","type":"uint256","internalType":"uint256"},{"name":"minAmountOut","type":"uint256","internalType":"uint256"}],"outputs":[{"name":"amountOut","type":"uint256","internalType":"uint256"}],"stateMutability":"nonpayable"},{"type":"function","name":"transferOwnership","inputs":[{"name":"newOwner","type":"address","internalType":"address"}],"outputs":[],"stateMutability":"nonpayable"},{"type":"function","name":"treasury","inputs":[],"outputs":[{"name":"","type":"address","internalType":"address"}],"stateMutability":"view"},{"type":"event","name":"FeeUpdated","inputs":[{"name":"newFeeBps","type":"uint256","indexed":false,"internalType":"uint256"}],"anonymous":false},{"type":"event","name":"LiquidityAdded","inputs":[{"name":"key","type":"bytes32","indexed":true,"internalType":"bytes32"},{"name":"provider","type":"address","indexed":true,"internalType":"address"},{"name":"amtA","type":"uint256","indexed":false,"internalType":"uint256"},{"name":"amtB","type":"uint256","indexed":false,"internalType":"uint256"},{"name":"shares","type":"uint256","indexed":false,"internalType":"uint256"}],"anonymous":false},{"type":"event","name":"LiquidityRemoved","inputs":[{"name":"key","type":"bytes32","indexed":true,"internalType":"bytes32"},{"name":"provider","type":"address","indexed":true,"internalType":"address"},{"name":"amtA","type":"uint256","indexed":false,"internalType":"uint256"},{"name":"amtB","type":"uint256","indexed":false,"internalType":"uint256"}],"anonymous":false},{"type":"event","name":"OwnershipTransferred","inputs":[{"name":"previousOwner","type":"address","indexed":true,"internalType":"address"},{"name":"newOwner","type":"address","indexed":true,"internalType":"address"}],"anonymous":false},{"type":"event","name":"PoolCreated","inputs":[{"name":"tokenA","type":"uint256","indexed":false,"internalType":"uint256"},{"name":"tokenB","type":"uint256","indexed":false,"internalType":"uint256"}],"anonymous":false},{"type":"event","name":"Swapped","inputs":[{"name":"key","type":"bytes32","indexed":true,"internalType":"bytes32"},{"name":"trader","type":"address","indexed":true,"internalType":"address"},{"name":"tokenIn","type":"uint256","indexed":false,"internalType":"uint256"},{"name":"amountIn","type":"uint256","indexed":false,"internalType":"uint256"},{"name":"amountOut","type":"uint256","indexed":false,"internalType":"uint256"}],"anonymous":false},{"type":"error","name":"OwnableInvalidOwner","inputs":[{"name":"owner","type":"address","internalType":"address"}]},{"type":"error","name":"OwnableUnauthorizedAccount","inputs":[{"name":"account","type":"address","internalType":"address"}]}],"bytecode":{"object":"0x60a03461010e57601f6113dd38819003918201601f19168301916001600160401b038311848410176101125780849260609460405283398101031261010e5761004781610126565b90604061005660208301610126565b916001600160a01b0391829161006c9101610126565b169182156100f657815f549460018060a01b03199480868816175f558260405197167f8be0079c531659141344cd1fd0a4f28419497f9722a3daafe3b4186f6b6457e05f80a3601e60015516608052169060025416176002556112a2908161013b823960805181818161033d0152818161055d015281816108ab01528181610c410152610dd30152f35b604051631e4fbdf760e01b81525f6004820152602490fd5b5f80fd5b634e487b7160e01b5f52604160045260245ffd5b51906001600160a01b038216820361010e5756fe6080604081815260049182361015610015575f80fd5b5f925f3560e01c91826301ffc9a714610ed75750816324a9d85314610eb95781635673b02d14610b6a57816361d027b314610b41578163715018a614610ae857816372c27b6214610a5857816374d9f9c7146109fe578163857620e1146107ba5781638da5cb5b14610792578163aebf3e4114610434578163b5217bb4146103f3578163bc197c811461036c578163c06fad0614610328578163ce58fda614610286578163f0f4426014610241578163f23a6e61146101e8578163f2fde38b1461015a578163f4e3f76614610118575063fc8ace6c146100f3575f80fd5b346101145760209061010d61010736610f5d565b91611196565b9051908152f35b5080fd5b90503461015657816003193601126101565781602093610136610f8d565b92803582528552209060018060a01b03165f528252805f20549051908152f35b8280fd5b90503461015657602036600319011261015657610175610f77565b9061017e611241565b6001600160a01b039182169283156101d25750505f54826bffffffffffffffffffffffff60a01b8216175f55167f8be0079c531659141344cd1fd0a4f28419497f9722a3daafe3b4186f6b6457e05f80a380f35b51631e4fbdf760e01b8152908101849052602490fd5b82843461023e5760a036600319011261023e57610203610f77565b5061020c610f8d565b506084359067ffffffffffffffff821161023e575060209261023091369101611070565b505163f23a6e6160e01b8152f35b80fd5b833461023e57602036600319011261023e5761025b610f77565b610263611241565b60018060a01b03166bffffffffffffffffffffffff60a01b600254161760025580f35b82843461023e5761029636610f47565b90918183146102f3575060209350808210156102d057825190848201928352838201528281526102c581610fcb565b519020905b51908152f35b90825190848201928352838201528281526102ea81610fcb565b519020906102ca565b835162461bcd60e51b8152602081870152600f60248201526e20a6a69d1039b0b6b2903a37b5b2b760891b6044820152606490fd5b505034610114578160031936011261011457517f00000000000000000000000000000000000000000000000000000000000000006001600160a01b03168152602090f35b82843461023e5760a036600319011261023e57610387610f77565b50610390610f8d565b5067ffffffffffffffff90604435828111610114576103b29036908601611009565b50606435828111610114576103ca9036908601611009565b5060843591821161023e57506020926103e591369101611070565b505163bc197c8160e01b8152f35b905034610156576020366003190112610156573582526003602090815291819020805460018201546002909201549251908152928301526040820152606090f35b8383346101145761044436610f29565b9491928181101561078b57909294915b859383928651986020998a810190838252848a82015289815261047681610fcb565b5190209586855260038b528885209960028b019182549182155f146106ee575050506104a28689611125565b8560038211156106d85750808060011c90600182018092116106c55791905b8181106106bd57806104d86104dd92600195611145565b611138565b505b9a6104eb8a8254611138565b8155016104f9878254611138565b90557f37d4a71449cd4163b2d08aeed513412fe798bf25bb804c48f90470f32a17308f898c86825191878352820152a15b89156106875761053b8a8254611138565b9055858452808a52878420335f528a52875f206105598a8254611138565b90557f00000000000000000000000000000000000000000000000000000000000000006001600160a01b031691823b156106655788518581806105ac8c637921219560e11b9687845230338a8601611163565b038183885af1801561067d57908691610669575b5050823b1561066557918593918580946105e98c51978896879586948552309033908601611163565b03925af1801561065b5790879291610643575b505084519384526020840191909152604083015233917f9c8e2178a53b464e8c6d21c6d0d1f5189e5d2f6f6a79237ba611cf996a6e6b329080606081015b0390a351908152f35b81925061064f90610fa3565b61023e578086916105fc565b86513d84823e3d90fd5b8480fd5b61067290610fa3565b61066557848c6105c0565b8a513d88823e3d90fd5b885162461bcd60e51b81528083018c9052601060248201526f414d4d3a207a65726f2073686172657360801b6044820152606490fd5b9050806104c1565b634e487b7160e01b885260118552602488fd5b906106e6575b6001906104df565b5060016106de565b826107159d939b5061072a92995061070591611125565b9761071b8b84549e8f809c611145565b92611125565b90600184015492838093611145565b8082101561078357509a5b808c809f61074291611125565b9061074c91611145565b9b8c9261075891611125565b9061076291611145565b98899161076e91611138565b835561077991611138565b906001015561052a565b90509a610735565b9291610454565b505034610114578160031936011261011457905490516001600160a01b039091168152602090f35b9050823461023e576107cb36610f5d565b9291818110156109f85790915b8551926020938481019084825282898201528881526107f681610fcb565b519020928383526003855287832096808652888420335f52865286895f2054106109be57600288018054979061082d8915156110c6565b895498828161083c8c83611125565b9061084691611145565b9b60018101908d8254918561085b8487611125565b9061086591611145565b9e8f9261087191611104565b905561087c91611104565b905561088791611104565b9055858552818752898520335f528752895f20908154906108a791611104565b90557f00000000000000000000000000000000000000000000000000000000000000006001600160a01b031691823b156106655789518581806108fa8d637921219560e11b9687845233308a8601611163565b038183885af180156109b4579086916109a0575b5050823b1561066557918793918580946109378d51978896879586948552339030908601611163565b03925af1801561099657610982575b505084519084825283838301527f317e53ec6bc434475c6a7c12af460342fa47661758139f35045090a232213a0c863393a38351928352820152f35b61098c8291610fa3565b61023e5780610946565b87513d84823e3d90fd5b6109a990610fa3565b61066557848b61090e565b8b513d88823e3d90fd5b885162461bcd60e51b815290810186905260146024820152730414d4d3a20696e73756666696369656e74204c560641b6044820152606490fd5b916107d8565b505034610114578091610a1036610f47565b9081811015610a5357905b8351906020820192835284820152838152610a3581610fcb565b51902081526003602052206001815491015482519182526020820152f35b610a1b565b9190503461015657602036600319011261015657813591610a77611241565b6103e88311610ab25750816020917f8c4d35e54a3f2ef1134138fd8ea3daee6a3c89e10d2665996babdf70261e2c769360015551908152a180f35b6020606492519162461bcd60e51b835282015260116024820152700829a9a7440cccaca40e8dede40d0d2ced607b1b6044820152fd5b833461023e578060031936011261023e57610b01611241565b5f80546001600160a01b0319811682556001600160a01b03167f8be0079c531659141344cd1fd0a4f28419497f9722a3daafe3b4186f6b6457e08280a380f35b50503461011457816003193601126101145760025490516001600160a01b039091168152602090f35b838334610e5157610b7a36610f29565b909590949180841015610eb25783815b8651602081019183835288820152878152610ba481610fcb565b51902093845f526003602052865f209283549283151580610ea5575b610bc9906110c6565b8714928315610e9b576001850154905b6001549061271092828403848111610e8857610bf98f91610c0092611125565b9182611125565b9184810290808204861490151715610e8857610c269291610c2091611138565b90611145565b9a8b10610e5557610c37908c611125565b049485610dc2575b7f00000000000000000000000000000000000000000000000000000000000000006001600160a01b031690610c74878d611104565b823b15610665578a51637921219560e11b80825291869082908190610c9e908f30338a8601611163565b038183885af18015610db857908691610da4575b5050823b1561066557918b9391858094610cdb8e51978896879586948552339030908601611163565b03925af18015610d9a57610d86575b5050967f78c6f4a50c0f15ed2a8deb78bae57215acf03c773fd8acffd3bb7f8e6cfe0a199287926020995f14610d5e57610d32600192610d2c83549186611104565b90611138565b815501610d40838254611104565b90555b8551948552602085015260408401523392806060810161063a565b600181610d6f86610d7f9454611104565b81550191610d2c83549185611104565b9055610d43565b610d908291610fa3565b61023e5780610cea565b88513d84823e3d90fd5b610dad90610fa3565b61066557848e610cb2565b8c513d88823e3d90fd5b6002546001600160a01b03908116907f000000000000000000000000000000000000000000000000000000000000000016803b15610e5157875f918b83610e1f958f5196879586948593637921219560e11b8552338c8601611163565b03925af18015610e4757610e34575b50610c3f565b610e3f919350610fa3565b5f918b610e2e565b8a513d5f823e3d90fd5b5f80fd5b895162461bcd60e51b8152602081890152600d60248201526c414d4d3a20736c69707061676560981b6044820152606490fd5b60118a634e487b7160e01b5f525260245ffd5b6001850154610bd9565b5060018501541515610bc0565b8084610b8a565b8234610e51575f366003190112610e51576020906001549051908152f35b9034610e51576020366003190112610e5157359063ffffffff60e01b8216809203610e5157602091630271189760e51b8114908115610f18575b5015158152f35b6301ffc9a760e01b14905083610f11565b6080906003190112610e515760043590602435906044359060643590565b6040906003190112610e51576004359060243590565b6060906003190112610e5157600435906024359060443590565b600435906001600160a01b0382168203610e5157565b602435906001600160a01b0382168203610e5157565b67ffffffffffffffff8111610fb757604052565b634e487b7160e01b5f52604160045260245ffd5b6060810190811067ffffffffffffffff821117610fb757604052565b90601f8019910116810190811067ffffffffffffffff821117610fb757604052565b81601f82011215610e515780359160209167ffffffffffffffff8411610fb7578360051b906040519461103e85840187610fe7565b85528380860192820101928311610e51578301905b828210611061575050505090565b81358152908301908301611053565b81601f82011215610e515780359067ffffffffffffffff8211610fb757604051926110a5601f8401601f191660200185610fe7565b82845260208383010111610e5157815f926020809301838601378301015290565b156110cd57565b60405162461bcd60e51b815260206004820152600f60248201526e1053534e88195b5c1d1e481c1bdbdb608a1b6044820152606490fd5b9190820391821161111157565b634e487b7160e01b5f52601160045260245ffd5b8181029291811591840414171561111157565b9190820180921161111157565b811561114f570490565b634e487b7160e01b5f52601260045260245ffd5b929060c0949260018060a01b0380921685521660208401526040830152606082015260a060808201525f60a08201520190565b91908083101561123b5782905b60405160208101918383526040820152604081526111c081610fcb565b5190205f52600360205260405f2092145f1461122e5760018254920154915b80156112275760015491612710928303908382116111115761120b9161120491611125565b9384611125565b91808202918204036111115761122492610c2091611138565b90565b5050505f90565b60018201549154916111df565b826111a3565b5f546001600160a01b0316330361125457565b60405163118cdaa760e01b8152336004820152602490fdfea2646970667358221220f2dd6a96b2ad329be0e909e48e04680fe99c9d0fc5f962c0100161a7423f949f64736f6c63430008180033","linkReferences":{}},"methodIdentifiers":{"addLiquidity(uint256,uint256,uint256,uint256)":"aebf3e41","feeBps()":"24a9d853","getReserves(uint256,uint256)":"74d9f9c7","items()":"c06fad06","lpBalance(bytes32,address)":"f4e3f766","onERC1155BatchReceived(address,address,uint256[],uint256[],bytes)":"bc197c81","onERC1155Received(address,address,uint256,uint256,bytes)":"f23a6e61","owner()":"8da5cb5b","poolKey(uint256,uint256)":"ce58fda6","pools(bytes32)":"b5217bb4","quoteOut(uint256,uint256,uint256)":"fc8ace6c","removeLiquidity(uint256,uint256,uint256)":"857620e1","renounceOwnership()":"715018a6","setFeeBps(uint256)":"72c27b62","setTreasury(address)":"f0f44260","supportsInterface(bytes4)":"01ffc9a7","swap(uint256,uint256,uint256,uint256)":"5673b02d","transferOwnership(address)":"f2fde38b","treasury()":"61d027b3"},"id":114}