{"abi":[{"type":"constructor","inputs":[{"name":"itemsContract_","type":"address","internalType":"address"},{"name":"dao_","type":"address","internalType":"address"},{"name":"manaFee_","type":"uint256","internalType":"uint256"}],"stateMutability":"nonpayable"},{"type":"function","name":"DAO_ROLE","inputs":[],"outputs":[{"name":"","type":"bytes32","internalType":"bytes32"}],"stateMutability":"view"},{"type":"function","name":"DEFAULT_ADMIN_ROLE","inputs":[],"outputs":[{"name":"","type":"bytes32","internalType":"bytes32"}],"stateMutability":"view"},{"type":"function","name":"PAUSER_ROLE","inputs":[],"outputs":[{"name":"","type":"bytes32","internalType":"bytes32"}],"stateMutability":"view"},{"type":"function","name":"craft","inputs":[{"name":"recipeId","type":"uint256","internalType":"uint256"}],"outputs":[{"name":"equipmentTokenId","type":"uint256","internalType":"uint256"}],"stateMutability":"nonpayable"},{"type":"function","name":"createRecipe","inputs":[{"name":"recipeId","type":"uint256","internalType":"uint256"},{"name":"resourceIds","type":"uint256[]","internalType":"uint256[]"},{"name":"resourceAmounts","type":"uint256[]","internalType":"uint256[]"},{"name":"outputName","type":"string","internalType":"string"},{"name":"outputTier","type":"uint8","internalType":"uint8"},{"name":"outputPower","type":"uint256","internalType":"uint256"}],"outputs":[],"stateMutability":"nonpayable"},{"type":"function","name":"getRecipe","inputs":[{"name":"recipeId","type":"uint256","internalType":"uint256"}],"outputs":[{"name":"","type":"tuple","internalType":"struct CraftingEngine.Recipe","components":[{"name":"resourceIds","type":"uint256[]","internalType":"uint256[]"},{"name":"resourceAmounts","type":"uint256[]","internalType":"uint256[]"},{"name":"outputName","type":"string","internalType":"string"},{"name":"outputTier","type":"uint8","internalType":"uint8"},{"name":"outputPower","type":"uint256","internalType":"uint256"},{"name":"exists","type":"bool","internalType":"bool"}]}],"stateMutability":"view"},{"type":"function","name":"getRoleAdmin","inputs":[{"name":"role","type":"bytes32","internalType":"bytes32"}],"outputs":[{"name":"","type":"bytes32","internalType":"bytes32"}],"stateMutability":"view"},{"type":"function","name":"grantRole","inputs":[{"name":"role","type":"bytes32","internalType":"bytes32"},{"name":"account","type":"address","internalType":"address"}],"outputs":[],"stateMutability":"nonpayable"},{"type":"function","name":"hasRole","inputs":[{"name":"role","type":"bytes32","internalType":"bytes32"},{"name":"account","type":"address","internalType":"address"}],"outputs":[{"name":"","type":"bool","internalType":"bool"}],"stateMutability":"view"},{"type":"function","name":"items","inputs":[],"outputs":[{"name":"","type":"address","internalType":"contract GameItems"}],"stateMutability":"view"},{"type":"function","name":"manaFee","inputs":[],"outputs":[{"name":"","type":"uint256","internalType":"uint256"}],"stateMutability":"view"},{"type":"function","name":"pause","inputs":[],"outputs":[],"stateMutability":"nonpayable"},{"type":"function","name":"paused","inputs":[],"outputs":[{"name":"","type":"bool","internalType":"bool"}],"stateMutability":"view"},{"type":"function","name":"recipeExists","inputs":[{"name":"recipeId","type":"uint256","internalType":"uint256"}],"outputs":[{"name":"","type":"bool","internalType":"bool"}],"stateMutability":"view"},{"type":"function","name":"removeRecipe","inputs":[{"name":"recipeId","type":"uint256","internalType":"uint256"}],"outputs":[],"stateMutability":"nonpayable"},{"type":"function","name":"renounceRole","inputs":[{"name":"role","type":"bytes32","internalType":"bytes32"},{"name":"callerConfirmation","type":"address","internalType":"address"}],"outputs":[],"stateMutability":"nonpayable"},{"type":"function","name":"revokeRole","inputs":[{"name":"role","type":"bytes32","internalType":"bytes32"},{"name":"account","type":"address","internalType":"address"}],"outputs":[],"stateMutability":"nonpayable"},{"type":"function","name":"setManaFee","inputs":[{"name":"newFee","type":"uint256","internalType":"uint256"}],"outputs":[],"stateMutability":"nonpayable"},{"type":"function","name":"supportsInterface","inputs":[{"name":"interfaceId","type":"bytes4","internalType":"bytes4"}],"outputs":[{"name":"","type":"bool","internalType":"bool"}],"stateMutability":"view"},{"type":"function","name":"unpause","inputs":[],"outputs":[],"stateMutability":"nonpayable"},{"type":"function","name":"updateRecipe","inputs":[{"name":"recipeId","type":"uint256","internalType":"uint256"},{"name":"resourceIds","type":"uint256[]","internalType":"uint256[]"},{"name":"resourceAmounts","type":"uint256[]","internalType":"uint256[]"},{"name":"outputName","type":"string","internalType":"string"},{"name":"outputTier","type":"uint8","internalType":"uint8"},{"name":"outputPower","type":"uint256","internalType":"uint256"}],"outputs":[],"stateMutability":"nonpayable"},{"type":"event","name":"Crafted","inputs":[{"name":"player","type":"address","indexed":true,"internalType":"address"},{"name":"recipeId","type":"uint256","indexed":true,"internalType":"uint256"},{"name":"equipmentTokenId","type":"uint256","indexed":false,"internalType":"uint256"}],"anonymous":false},{"type":"event","name":"ManaFeeUpdated","inputs":[{"name":"newFee","type":"uint256","indexed":false,"internalType":"uint256"}],"anonymous":false},{"type":"event","name":"Paused","inputs":[{"name":"account","type":"address","indexed":false,"internalType":"address"}],"anonymous":false},{"type":"event","name":"RecipeCreated","inputs":[{"name":"recipeId","type":"uint256","indexed":true,"internalType":"uint256"},{"name":"outputName","type":"string","indexed":false,"internalType":"string"},{"name":"tier","type":"uint8","indexed":false,"internalType":"uint8"}],"anonymous":false},{"type":"event","name":"RecipeRemoved","inputs":[{"name":"recipeId","type":"uint256","indexed":true,"internalType":"uint256"}],"anonymous":false},{"type":"event","name":"RecipeUpdated","inputs":[{"name":"recipeId","type":"uint256","indexed":true,"internalType":"uint256"}],"anonymous":false},{"type":"event","name":"RoleAdminChanged","inputs":[{"name":"role","type":"bytes32","indexed":true,"internalType":"bytes32"},{"name":"previousAdminRole","type":"bytes32","indexed":true,"internalType":"bytes32"},{"name":"newAdminRole","type":"bytes32","indexed":true,"internalType":"bytes32"}],"anonymous":false},{"type":"event","name":"RoleGranted","inputs":[{"name":"role","type":"bytes32","indexed":true,"internalType":"bytes32"},{"name":"account","type":"address","indexed":true,"internalType":"address"},{"name":"sender","type":"address","indexed":true,"internalType":"address"}],"anonymous":false},{"type":"event","name":"RoleRevoked","inputs":[{"name":"role","type":"bytes32","indexed":true,"internalType":"bytes32"},{"name":"account","type":"address","indexed":true,"internalType":"address"},{"name":"sender","type":"address","indexed":true,"internalType":"address"}],"anonymous":false},{"type":"event","name":"Unpaused","inputs":[{"name":"account","type":"address","indexed":false,"internalType":"address"}],"anonymous":false},{"type":"error","name":"AccessControlBadConfirmation","inputs":[]},{"type":"error","name":"AccessControlUnauthorizedAccount","inputs":[{"name":"account","type":"address","internalType":"address"},{"name":"neededRole","type":"bytes32","internalType":"bytes32"}]},{"type":"error","name":"EnforcedPause","inputs":[]},{"type":"error","name":"ExpectedPause","inputs":[]},{"type":"error","name":"ReentrancyGuardReentrantCall","inputs":[]}],"bytecode":{"object":"0x60a0346200014657601f62001b7638819003918201601f19168301916001600160401b038311848410176200014a5780849260609460405283398101031262000146576200004d816200015e565b9060406200005e602083016200015e565b91015160017f9b779b17422d0df92223018b32b4d1fa46e071723d6817e2486d003becc55f00556001600160a01b0392831692831515908162000139575b5015620000f457620000cc92608052600355620000b98162000173565b50620000c581620001e3565b5062000283565b5060405161181890816200031e82396080518181816102f00152818161048c01526106b00152f35b60405162461bcd60e51b815260206004820152601660248201527f4372616674696e673a207a65726f2061646472657373000000000000000000006044820152606490fd5b9050821615155f6200009c565b5f80fd5b634e487b7160e01b5f52604160045260245ffd5b51906001600160a01b03821682036200014657565b6001600160a01b03165f8181525f8051602062001b56833981519152602052604090205460ff16620001de575f8181525f8051602062001b5683398151915260205260408120805460ff191660011790553391905f8051602062001b368339815191528180a4600190565b505f90565b6001600160a01b03165f8181527fc39f11a9300b508470eaed31f5842ba08c93181bcbe6a7fe34039aa7f2b8074260205260409020547f3b5d4cc60d3ec3516ee8ae083bd60934f6eb2a6c54b1229985c41bfb092b2603919060ff166200027d57815f525f60205260405f20815f5260205260405f20600160ff1982541617905533915f8051602062001b368339815191525f80a4600190565b50505f90565b6001600160a01b03165f8181527ff7c9542c591017a21c74b6f3fab6263c7952fc0aaf9db4c22a2a04ddc7f8674f60205260409020547f65d7a28e3265b37a6474929f336521b332c1681b933f6cb9f3376673440d862a919060ff166200027d57815f525f60205260405f20815f5260205260405f20600160ff1982541617905533915f8051602062001b368339815191525f80a460019056fe6080806040526004361015610012575f80fd5b5f905f3560e01c90816301ffc9a714610fd657508063248a9ca314610faa5780632f2ff15d14610f7c57806336568abe14610f435780633f4ba83a14610eda5780634cc326d914610b985780635c975abb14610b76578063686f25cf14610b445780637ac208f614610b275780638314b4e314610a455780638456cb59146109ed5780638cca2c1b1461073457806391d14854146106f9578063a217fddf146106df578063c06fad061461069b578063d547741f1461066b578063e63ab1e914610631578063e9c26518146105f7578063ec25958e146105ab578063f3917bd21461027b5763f8d12a4114610105575f80fd5b346102785760209081600319360112610278576040519161012583611149565b8160a0606094858152858482015285604082015282868201528260808201520152600435825260028152604082206040519261016084611149565b604051610178816101718186611322565b0382611179565b8452604051906101968261018f8160018701611322565b0383611179565b838501918252604051926101b8846101b1816002850161135d565b0385611179565b6040860193845260ff6003820154169087870191825260ff600560048301549260808a019384520154169160a08801921515835261022061020a60405199898b525160c08a8c015260e08b0190611116565b955195601f1996878b83030160408c0152611116565b955198858988030190890152885193848752805b85811061026557508685018801525160ff1660808801525160a087015251151560c0860152601f0116018290030190f35b8a81018901518882018a01528801610234565b80fd5b503461043a5760209060031990828236011261043a57600435917f9b779b17422d0df92223018b32b4d1fa46e071723d6817e2486d003becc55f0090600282541461059957600282556102cc6117c4565b835f526002855260405f2060ff60058201541615610554576003548061047d575b507f00000000000000000000000000000000000000000000000000000000000000006001600160a01b031691823b1561047957846103639160405180938192631ac8311560e21b8352336004840152606060248401526103506064840188611322565b9083820301604484015260018701611322565b038183875af1801561046e578792918691610451575b505060ff600382015416926103bc866004840154936040519687958694859363fcacdaa760e01b855233600486015260806024860152600260848601910161135d565b916044840152606483015203925af19283156104455792610411575b50600191926040518481527f1e2d1ef76cc9f2bf19e7077c9dfd53ee67bf6b21cbeb591e63876f77574729c9863392a355604051908152f35b91508382813d831161043e575b6104288183611179565b8101031261043a5760019151916103d8565b5f80fd5b503d61041e565b604051903d90823e3d90fd5b61045d91929350611165565b61046a578590845f610379565b8380fd5b6040513d87823e3d90fd5b8480fd5b60405163ecb4279560e01b81527f00000000000000000000000000000000000000000000000000000000000000006001600160a01b0316918882600481865afa91821561051a575f92610525575b50823b1561043a5760645f92836040519586948593637a94c56560e11b8552336004860152602485015260448401525af1801561051a57156102ed57610512919450611165565b5f925f6102ed565b6040513d5f823e3d90fd5b9091508881813d831161054d575b61053d8183611179565b8101031261043a5751905f6104cb565b503d610533565b60405162461bcd60e51b815260048101879052601860248201527f4372616674696e673a20696e76616c69642072656369706500000000000000006044820152606490fd5b604051633ee5aeb560e01b8152600490fd5b3461043a57602036600319011261043a577fbdd29eff3646fd4b894f4f5a55e10a1d8dec07065515b07e07c83fd27652b42960206004356105ea611467565b80600355604051908152a1005b3461043a575f36600319011261043a5760206040517f3b5d4cc60d3ec3516ee8ae083bd60934f6eb2a6c54b1229985c41bfb092b26038152f35b3461043a575f36600319011261043a5760206040517f65d7a28e3265b37a6474929f336521b332c1681b933f6cb9f3376673440d862a8152f35b3461043a5761069961067c36611029565b90805f525f602052610694600160405f2001546114c2565b61155f565b005b3461043a575f36600319011261043a576040517f00000000000000000000000000000000000000000000000000000000000000006001600160a01b03168152602090f35b3461043a575f36600319011261043a5760206040515f8152f35b3461043a5761070736611029565b905f525f60205260405f209060018060a01b03165f52602052602060ff60405f2054166040519015158152f35b3461043a5761074236611080565b949093610753979697939293611467565b885f526020966002885260405f206005015460ff16610771906112e0565b61077e8683858c856115f5565b6040519861078b8a611149565b36906107969261119b565b885236906107a39261119b565b9185870192835236906107b5926111f2565b9060408601918252606086019260ff1683526080860193845260a08601946001808752885f526002825260405f20975192835167ffffffffffffffff948582116109b5578490610805838d611271565b018a5f52845f20845f5b8481106109db57509250505089019051908151918583116109b55784906108368484611271565b01905f52835f20835f5b8481106109c95750505050506002880193519081519384116109b55761086685546112a8565b601f811161097c575b5082601f851160011461090c575050826108db9897959360059795936108aa935f92610901575b50508160011b915f199060031b1c19161790565b90555b60ff6003860191511660ff1982541617905551600484015551151591019060ff801983541691151516179055565b7f867d05df8640c6f9d1ecd5fa526b051f771859ca5824838bddc58abd6ad076645f80a2005b015190508b80610896565b91601f94939194198416865f52835f20935f905b828210610965575050916108db9a99979593918560059a9896941061094d575b505050811b0190556108ad565b01515f1960f88460031b161c191690558a8080610940565b808886978294978701518155019601940190610920565b6109a590865f52845f20601f870160051c8101918688106109ab575b601f0160051c0190611238565b8a61086f565b9091508190610998565b634e487b7160e01b5f52604160045260245ffd5b86845194019381840155018490610840565b8784519401938184015501859061080f565b3461043a575f36600319011261043a57610a056113ee565b610a0d6117c4565b600160ff19815416176001557f62e78cea01bee320cd4e420270b5ea74000d11b0c9f74754ebdbfc544b05a2586020604051338152a1005b3461043a57602036600319011261043a57600435610a61611467565b805f526002602052610a7c60ff600560405f200154166112e0565b805f5260026020525f600560408220610a948161124e565b610aa06001820161124e565b60028101610aae81546112a8565b9081610aeb575b505082600382015582600482015501557fa0d5c6d628345f5e1a4bf244cc6151e0b32de2afdae8813045b29151135612cc5f80a2005b81601f869311600114610b025750555b8480610ab5565b908083918252610b20601f602084209401871c840160018501611238565b5555610afb565b3461043a575f36600319011261043a576020600354604051908152f35b3461043a57602036600319011261043a576004355f526002602052602060ff600560405f200154166040519015158152f35b3461043a575f36600319011261043a57602060ff600154166040519015158152f35b3461043a57610ba636611080565b93610bb79897929693959198611467565b875f52600260205260ff600560405f20015416610e9557610bf683610be28b848689610bff996115f5565b60405195610bef87611149565b369161119b565b8452369161119b565b60208201908152610c113686866111f2565b926040830193845260ff881660608401526080830152600160a0830152855f52600260205260405f2092825191825167ffffffffffffffff938482116109b557602090610c5e8389611271565b01865f5260205f205f5b838110610e815750505050600185019051908151918483116109b557602090610c918484611271565b01905f5260205f205f5b838110610e6d57505050505180519182116109b557610cbd60028501546112a8565b601f8111610e3a575b50602090601f8311600114610d9c5760609594600560a08996610d288760ff987f3a8f2ffe9d4d36a4e1cb3a88cc6d60032086e6839613594e63d543adb0bfe47a9e9f98610d61985f92610d915750508160011b915f199060031b1c19161790565b60028501555b60038401878b830151168819825416179055608081015160048501550151151591019060ff801983541691151516179055565b60405195869460408652816040870152868601375f848401860152166020830152601f01601f19168101030190a2005b015190505f80610896565b90600285015f5260205f20915f5b601f1985168110610e22575094600560a089966001877f3a8f2ffe9d4d36a4e1cb3a88cc6d60032086e6839613594e63d543adb0bfe47a9d9e97610d619760609d9c60ff9b601f19811610610e0a575b505050811b016002850155610d2e565b01515f1960f88460031b161c191690558f8080610dfa565b91926020600181928685015181550194019201610daa565b610e6790600286015f5260205f20601f850160051c810191602086106109ab57601f0160051c0190611238565b88610cc6565b600190602084519401938184015501610c9b565b600190602084519401938184015501610c68565b60405162461bcd60e51b815260206004820152601760248201527f4372616674696e673a20726563697065206578697374730000000000000000006044820152606490fd5b3461043a575f36600319011261043a57610ef26113ee565b60015460ff811615610f315760ff19166001557f5db9ee0a495bf2e6ff9c91a7834c1ba4fdd244a5e8aa4e537bd38aeae4b073aa6020604051338152a1005b604051638dfc202b60e01b8152600490fd5b3461043a57610f5136611029565b336001600160a01b03821603610f6a576106999161155f565b60405163334bd91960e11b8152600490fd5b3461043a57610699610f8d36611029565b90805f525f602052610fa5600160405f2001546114c2565b6114e3565b3461043a57602036600319011261043a576004355f525f6020526020600160405f200154604051908152f35b3461043a57602036600319011261043a576004359063ffffffff60e01b821680920361043a57602091637965db0b60e01b8114908115611018575b5015158152f35b6301ffc9a760e01b14905083611011565b604090600319011261043a57600435906024356001600160a01b038116810361043a5790565b9181601f8401121561043a5782359167ffffffffffffffff831161043a576020808501948460051b01011161043a57565b60c060031982011261043a576004359167ffffffffffffffff9060243582811161043a57836110b19160040161104f565b9390939260443581811161043a57826110cc9160040161104f565b939093926064359083821161043a578060238301121561043a57816004013593841161043a576024848301011161043a57602401919060843560ff8116810361043a579060a43590565b9081518082526020808093019301915f5b828110611135575050505090565b835185529381019392810192600101611127565b60c0810190811067ffffffffffffffff8211176109b557604052565b67ffffffffffffffff81116109b557604052565b90601f8019910116810190811067ffffffffffffffff8211176109b557604052565b90929167ffffffffffffffff84116109b5578360051b60209260206040516111c582850182611179565b809781520191810192831161043a57905b8282106111e35750505050565b813581529083019083016111d6565b92919267ffffffffffffffff82116109b5576040519161121c601f8201601f191660200184611179565b82948184528183011161043a578281602093845f960137010152565b818110611243575050565b5f8155600101611238565b80545f82558061125c575050565b61126f915f5260205f2090810190611238565b565b906801000000000000000081116109b55781549080835581811061129457505050565b61126f925f5260205f209182019101611238565b90600182811c921680156112d6575b60208310146112c257565b634e487b7160e01b5f52602260045260245ffd5b91607f16916112b7565b156112e757565b60405162461bcd60e51b81526020600482015260136024820152724372616674696e673a206e6f2072656369706560681b6044820152606490fd5b9081548082526020809201925f5260205f20915f905b828210611346575050505090565b835485529384019360019384019390910190611338565b80545f939261136b826112a8565b918282526020936001916001811690815f146113cf5750600114611391575b5050505050565b90939495505f92919252835f2092845f945b8386106113bb57505050500101905f8080808061138a565b8054858701830152940193859082016113a3565b60ff19168685015250505090151560051b010191505f8080808061138a565b335f9081527ff7c9542c591017a21c74b6f3fab6263c7952fc0aaf9db4c22a2a04ddc7f8674f60205260409020547f65d7a28e3265b37a6474929f336521b332c1681b933f6cb9f3376673440d862a9060ff16156114495750565b6044906040519063e2517d3f60e01b82523360048301526024820152fd5b335f9081527fc39f11a9300b508470eaed31f5842ba08c93181bcbe6a7fe34039aa7f2b8074260205260409020547f3b5d4cc60d3ec3516ee8ae083bd60934f6eb2a6c54b1229985c41bfb092b26039060ff16156114495750565b805f525f60205260405f20335f5260205260ff60405f205416156114495750565b90815f525f60205260405f209060018060a01b031690815f5260205260ff60405f205416155f1461155957815f525f60205260405f20815f5260205260405f20600160ff1982541617905533917f2f8788117e7eff1d82e926ec794901d17c78024a50270940304540a733656f0d5f80a4600190565b50505f90565b90815f525f60205260405f209060018060a01b031690815f5260205260ff60405f2054165f1461155957815f525f60205260405f20815f5260205260405f2060ff19815416905533917ff6391f5c32d9c69d2a47ea670b442974b53935d1edc7fd64eb21e047a839171b5f80a4600190565b91908110156115e15760051b0190565b634e487b7160e01b5f52603260045260245ffd5b939291909282840361177f5783156117415760ff169360019460018110159081611735575b50156116fb575f5b84811061163157505050505050565b8561163d8287856115d1565b351015806116e5575b156116a0576116568185856115d1565b3515611663578501611622565b60405162461bcd60e51b815260206004820152601560248201527410dc98599d1a5b99ce881e995c9bc8185b5bdd5b9d605a1b6044820152606490fd5b60405162461bcd60e51b815260206004820152601860248201527f4372616674696e673a206e6f742061207265736f7572636500000000000000006044820152606490fd5b5060036116f38287856115d1565b351115611646565b60405162461bcd60e51b815260206004820152601260248201527121b930b33a34b7339d103130b2103a34b2b960711b6044820152606490fd5b6005915011155f61161a565b60405162461bcd60e51b81526020600482015260166024820152754372616674696e673a20656d7074792072656369706560501b6044820152606490fd5b60405162461bcd60e51b815260206004820152601960248201527f4372616674696e673a206c656e677468206d69736d61746368000000000000006044820152606490fd5b60ff600154166117d057565b60405163d93c066560e01b8152600490fdfea26469706673582212205e8b10610d7e7c755eb18bfc1006de1b0512628794d632c8c8fea0468a990f0164736f6c634300081800332f8788117e7eff1d82e926ec794901d17c78024a50270940304540a733656f0dad3228b676f7d3cd4284a5443f17f1962b36e491b30a40b2405849e597ba5fb5","linkReferences":{}},"methodIdentifiers":{"DAO_ROLE()":"e9c26518","DEFAULT_ADMIN_ROLE()":"a217fddf","PAUSER_ROLE()":"e63ab1e9","craft(uint256)":"f3917bd2","createRecipe(uint256,uint256[],uint256[],string,uint8,uint256)":"4cc326d9","getRecipe(uint256)":"f8d12a41","getRoleAdmin(bytes32)":"248a9ca3","grantRole(bytes32,address)":"2f2ff15d","hasRole(bytes32,address)":"91d14854","items()":"c06fad06","manaFee()":"7ac208f6","pause()":"8456cb59","paused()":"5c975abb","recipeExists(uint256)":"686f25cf","removeRecipe(uint256)":"8314b4e3","renounceRole(bytes32,address)":"36568abe","revokeRole(bytes32,address)":"d547741f","setManaFee(uint256)":"ec25958e","supportsInterface(bytes4)":"01ffc9a7","unpause()":"3f4ba83a","updateRecipe(uint256,uint256[],uint256[],string,uint8,uint256)":"8cca2c1b"},"id":102}