{"abi":[{"type":"constructor","inputs":[{"name":"vrfCoordinator_","type":"address","internalType":"address"},{"name":"itemsContract_","type":"address","internalType":"address"},{"name":"subscriptionId_","type":"uint256","internalType":"uint256"},{"name":"keyHash_","type":"bytes32","internalType":"bytes32"},{"name":"manaCost_","type":"uint256","internalType":"uint256"},{"name":"admin_","type":"address","internalType":"address"}],"stateMutability":"nonpayable"},{"type":"function","name":"NUM_WORDS","inputs":[],"outputs":[{"name":"","type":"uint32","internalType":"uint32"}],"stateMutability":"view"},{"type":"function","name":"acceptOwnership","inputs":[],"outputs":[],"stateMutability":"nonpayable"},{"type":"function","name":"callbackGasLimit","inputs":[],"outputs":[{"name":"","type":"uint32","internalType":"uint32"}],"stateMutability":"view"},{"type":"function","name":"coordinator","inputs":[],"outputs":[{"name":"","type":"address","internalType":"contract IVRFCoordinatorV2Plus"}],"stateMutability":"view"},{"type":"function","name":"dropTable","inputs":[{"name":"","type":"uint256","internalType":"uint256"}],"outputs":[{"name":"tokenId","type":"uint256","internalType":"uint256"},{"name":"weight","type":"uint16","internalType":"uint16"},{"name":"minAmt","type":"uint64","internalType":"uint64"},{"name":"maxAmt","type":"uint64","internalType":"uint64"},{"name":"isEquip","type":"bool","internalType":"bool"}],"stateMutability":"view"},{"type":"function","name":"items","inputs":[],"outputs":[{"name":"","type":"address","internalType":"contract GameItems"}],"stateMutability":"view"},{"type":"function","name":"keyHash","inputs":[],"outputs":[{"name":"","type":"bytes32","internalType":"bytes32"}],"stateMutability":"view"},{"type":"function","name":"manaCost","inputs":[],"outputs":[{"name":"","type":"uint256","internalType":"uint256"}],"stateMutability":"view"},{"type":"function","name":"owner","inputs":[],"outputs":[{"name":"","type":"address","internalType":"address"}],"stateMutability":"view"},{"type":"function","name":"rawFulfillRandomWords","inputs":[{"name":"requestId","type":"uint256","internalType":"uint256"},{"name":"randomWords","type":"uint256[]","internalType":"uint256[]"}],"outputs":[],"stateMutability":"nonpayable"},{"type":"function","name":"requestConfirmations","inputs":[],"outputs":[{"name":"","type":"uint16","internalType":"uint16"}],"stateMutability":"view"},{"type":"function","name":"requestLoot","inputs":[],"outputs":[{"name":"requestId","type":"uint256","internalType":"uint256"}],"stateMutability":"nonpayable"},{"type":"function","name":"requests","inputs":[{"name":"","type":"uint256","internalType":"uint256"}],"outputs":[{"name":"player","type":"address","internalType":"address"},{"name":"fulfilled","type":"bool","internalType":"bool"}],"stateMutability":"view"},{"type":"function","name":"s_vrfCoordinator","inputs":[],"outputs":[{"name":"","type":"address","internalType":"contract IVRFCoordinatorV2Plus"}],"stateMutability":"view"},{"type":"function","name":"setCallbackGasLimit","inputs":[{"name":"limit","type":"uint32","internalType":"uint32"}],"outputs":[],"stateMutability":"nonpayable"},{"type":"function","name":"setCoordinator","inputs":[{"name":"_vrfCoordinator","type":"address","internalType":"address"}],"outputs":[],"stateMutability":"nonpayable"},{"type":"function","name":"setDropTable","inputs":[{"name":"entries","type":"tuple[]","internalType":"struct LootVRF.DropEntry[]","components":[{"name":"tokenId","type":"uint256","internalType":"uint256"},{"name":"weight","type":"uint16","internalType":"uint16"},{"name":"minAmt","type":"uint64","internalType":"uint64"},{"name":"maxAmt","type":"uint64","internalType":"uint64"},{"name":"isEquip","type":"bool","internalType":"bool"}]}],"outputs":[],"stateMutability":"nonpayable"},{"type":"function","name":"setManaCost","inputs":[{"name":"newCost","type":"uint256","internalType":"uint256"}],"outputs":[],"stateMutability":"nonpayable"},{"type":"function","name":"subscriptionId","inputs":[],"outputs":[{"name":"","type":"uint256","internalType":"uint256"}],"stateMutability":"view"},{"type":"function","name":"totalWeight","inputs":[],"outputs":[{"name":"","type":"uint16","internalType":"uint16"}],"stateMutability":"view"},{"type":"function","name":"transferOwnership","inputs":[{"name":"to","type":"address","internalType":"address"}],"outputs":[],"stateMutability":"nonpayable"},{"type":"event","name":"CoordinatorSet","inputs":[{"name":"vrfCoordinator","type":"address","indexed":false,"internalType":"address"}],"anonymous":false},{"type":"event","name":"DropTableUpdated","inputs":[],"anonymous":false},{"type":"event","name":"LootFulfilled","inputs":[{"name":"requestId","type":"uint256","indexed":true,"internalType":"uint256"},{"name":"player","type":"address","indexed":true,"internalType":"address"},{"name":"tokenId","type":"uint256","indexed":false,"internalType":"uint256"},{"name":"amount","type":"uint256","indexed":false,"internalType":"uint256"}],"anonymous":false},{"type":"event","name":"LootRequested","inputs":[{"name":"requestId","type":"uint256","indexed":true,"internalType":"uint256"},{"name":"player","type":"address","indexed":true,"internalType":"address"}],"anonymous":false},{"type":"event","name":"OwnershipTransferRequested","inputs":[{"name":"from","type":"address","indexed":true,"internalType":"address"},{"name":"to","type":"address","indexed":true,"internalType":"address"}],"anonymous":false},{"type":"event","name":"OwnershipTransferred","inputs":[{"name":"from","type":"address","indexed":true,"internalType":"address"},{"name":"to","type":"address","indexed":true,"internalType":"address"}],"anonymous":false},{"type":"error","name":"OnlyCoordinatorCanFulfill","inputs":[{"name":"have","type":"address","internalType":"address"},{"name":"want","type":"address","internalType":"address"}]},{"type":"error","name":"OnlyOwnerOrCoordinator","inputs":[{"name":"have","type":"address","internalType":"address"},{"name":"owner","type":"address","internalType":"address"},{"name":"coordinator","type":"address","internalType":"address"}]},{"type":"error","name":"ZeroAddress","inputs":[]}],"bytecode":{"object":"0x60c034620002f457601f6200174b38819003918201601f1916830191906001600160401b03831184841017620002f8578160c09285926040958652833981010312620002f45762000050826200032c565b906020620000608185016200032c565b93828101516060820151906080956200008060a08886015195016200032c565b973315620002b0575f80546001600160a01b03199081163317909155986001600160a01b039283169081156200029f578390828c6002541617600255640300030d4065ffffffffffff196005541617600555168015158062000294575b6200020a575b5088620001ba98999a50521660a0526003556004556009556200012c620001096200030c565b6001815261177083820152600585820152601460608201525f8682015262000341565b6200015d6200013a6200030c565b600281526107d083820152600385820152600a60608201525f8682015262000341565b620001676200030c565b60038152620001906103e8918284820152600186820152600560608201525f8782015262000341565b6200019a6200030c565b915f83528201526001838201526001606082015260018482015262000341565b61271061ffff1960075416176007555161135c9182620003ef8339518181816102b50152610e8b015260a0518181816101340152818161050901528181610c7201528181610d2201526110a00152f35b338114620002505780620001ba999a9b6001541617600155337fed8889f560326eb138920d842192f0eb3dd22b4f139c87a2c57538e05bae12785f80a3899897620000e3565b885162461bcd60e51b815260048101899052601760248201527f43616e6e6f74207472616e7366657220746f2073656c660000000000000000006044820152606490fd5b5033811415620000dd565b885163d92e233d60e01b8152600490fd5b865162461bcd60e51b815260048101879052601860248201527f43616e6e6f7420736574206f776e657220746f207a65726f00000000000000006044820152606490fd5b5f80fd5b634e487b7160e01b5f52604160045260245ffd5b6040519060a082016001600160401b03811183821017620002f857604052565b51906001600160a01b0382168203620002f457565b60065468010000000000000000811015620002f8576001810180600655811015620003da5760019060065f5260205f2090821b0182518155019061ffff6020820151169082549162010000600160501b03604083015160101b16906a0100000000000000000000600160901b03606084015160501b1692608060ff60901b910151151560901b169360018060981b031916171717179055565b634e487b7160e01b5f52603260045260245ffdfe608060409080825260049182361015610016575f80fd5b5f915f3560e01c90816309c1ba2e14610eba575080630a00909714610e775780631fe543e314610b5657806324f7469714610b32578063389704f914610abe57806361728f3914610aa0578063707e736f14610a8257806372cf6e3414610a6757806379ba5097146109bf57806381d12c58146109825780638da5cb5b1461095b5780638ea981171461089357806391eb3f1e1461087157806396c82e571461084f5780639eccacf614610827578063a4eb718c146107ec578063b0fb162f146107c9578063bd6b30e814610538578063c06fad06146104f5578063f2fde38b146104315763f6712ab614610109575f80fd5b3461042d578160031936011261042d57805163ecb4279560e01b81526020936001600160a01b0392917f0000000000000000000000000000000000000000000000000000000000000000841686828481845afa9182156103a85786926103fe575b5060095491813b156103fa578451637a94c56560e11b815233858201908152602081019290925260408201939093528691839182908490829060600103925af180156103f0579085916103d8575b50508054926003546005549063ffffffff8551918983019367ffffffffffffffff94848110868211176103c557885289845287519363125fa26760e31b8c8601525115156024850152602484526060840198848a10868b11176103c55761012085018a8110878211176103b25792848d96938796938b968d528d526080850192835260a0850181881c61ffff1681528260c087019216825260e08601936001855261010087019687528d519e8f998a99634d8e1c2f60e11b8b528a01525160248901525160448801525161ffff16606487015251166084850152511660a48301525160c4820160c0905260e482016102af91610fe4565b038189867f0000000000000000000000000000000000000000000000000000000000000000165af19485156103a8578695610375575b508351928385019182118483101761036257508352338252858201908582528486526008875283862092511682549160ff60a01b9051151560a01b16916affffffffffffffffffffff60a81b16171790555191817f829392bdd21f1b9ddae0783635b2c3bab8f62e46161cb6a1a0a036f66aba4543339280a38152f35b604190634e487b7160e01b5f525260245ffd5b9094508681813d83116103a1575b61038d8183610fc2565b8101031261039d5751935f6102e5565b5f80fd5b503d610383565b84513d88823e3d90fd5b604189634e487b7160e01b5f525260245ffd5b604188634e487b7160e01b5f525260245ffd5b6103e190610f7e565b6103ec57835f6101b8565b8380fd5b83513d87823e3d90fd5b8680fd5b9091508681813d8311610426575b6104168183610fc2565b8101031261039d5751905f61016a565b503d61040c565b5080fd5b508290346104f15760203660031901126104f1576001600160a01b038235818116939192908490036104ed57610465611022565b3384146104aa575050600180546001600160a01b031916831790558254167fed8889f560326eb138920d842192f0eb3dd22b4f139c87a2c57538e05bae12788380a380f35b906020606492519162461bcd60e51b8352820152601760248201527f43616e6e6f74207472616e7366657220746f2073656c660000000000000000006044820152fd5b8480fd5b8280fd5b503461042d578160031936011261042d57517f00000000000000000000000000000000000000000000000000000000000000006001600160a01b03168152602090f35b5082346104f1576020806003193601126103ec57813567ffffffffffffffff8082116107c557366023830112156107c557818401359081116107c5576024928383019284369160a085020101116103fa57610591611022565b6006916006548860065580610755575b509190879288945b818610610647575050505061ffff9150169261271084036105fa5750505061ffff1960075416176007557fca1d911a1e2ace8128958e73a1fc989a7b426f4b35175787bb2f1c395be3a07a8180a180f35b608492916020602292519362461bcd60e51b85528401528201527f4c6f6f745652463a2077656967687473206d7573742073756d20746f20313030604482015261030360f41b6064820152fd5b90919293610656868484610f20565b855468010000000000000000811015610743576106796001918281018955610ed4565b6107325782358155019161ffff610691878401610f30565b16928b69ffffffffffffffff00006106ac8354928601610f3f565b60101b1693608067ffffffffffffffff60501b6106cb60608401610f3f565b60501b169101359485151580960361072e576001966107229660ff60901b9060901b16936cffffffffffffffffffffffffff60981b1617171717905561071c866107168a8888610f20565b01610f30565b90610f54565b950194939291906105a9565b8f80fd5b634e487b7160e01b8d528c8b52898dfd5b634e487b7160e01b8c5260418a52888cfd5b60016001600160ff1b03821682036107b35760068a527ff652222313e28459528d920b65115c16c04f3efc82aaedc97be59f3f377c0d3f9160011b8201915b8281106107a25750506105a1565b808b600292558b8382015501610794565b634e487b7160e01b8a5260118852868afd5b8580fd5b503461042d578160031936011261042d576005549051602091821c61ffff168152f35b82843461042d57602036600319011261042d573563ffffffff811680910361042d57610816611022565b63ffffffff19600554161760055580f35b503461042d578160031936011261042d5760025490516001600160a01b039091168152602090f35b503461042d578160031936011261042d5760209061ffff600754169051908152f35b82843461042d57602036600319011261042d5761088c611022565b3560095580f35b508290346104f15760203660031901126104f15781356001600160a01b0381811693918490036104ed578085541690813314158061094d575b61092657505082156109185750600280546001600160a01b03191683179055519081527fd1a6a14209a385a964d036e404cb5cfb71f4000cdb03c9366292430787261be690602090a180f35b905163d92e233d60e01b8152fd5b90606493916002541691519263061db9c160e01b8452339084015260248301526044820152fd5b5080600254163314156108cc565b503461042d578160031936011261042d57905490516001600160a01b039091168152602090f35b5082346104f15760203660031901126104f1579181923581526008602052205460ff82519160018060a01b038116835260a01c1615156020820152f35b508290346104f157826003193601126104f157600154916001600160a01b03918284163303610a2b57505082546001600160a01b03198082163390811786559316600155167f8be0079c531659141344cd1fd0a4f28419497f9722a3daafe3b4186f6b6457e08380a380f35b906020606492519162461bcd60e51b8352820152601660248201527526bab9ba10313290383937b837b9b2b21037bbb732b960511b6044820152fd5b503461042d578160031936011261042d576020905160018152f35b503461042d578160031936011261042d576020906009549051908152f35b5082346104f157826003193601126104f15760209250549051908152f35b5082346104f15760203660031901126104f1573591600654831015610b2f575060ff610aeb60a093610ed4565b5091600183549301549067ffffffffffffffff90805194855261ffff83166020860152818360101c16908501528160501c16606084015260901c1615156080820152f35b80fd5b503461042d578160031936011261042d5760209063ffffffff600554169051908152f35b50823461039d578160031936011261039d5780359060249283359167ffffffffffffffff80841161039d573660238501121561039d578382013590811161039d5736868260051b8601011161039d576002546001600160a01b0390811633819003610e5a5750855f5260209660088852845f209586549360ff8560a01c16610e185760ff60a01b198516600160a01b17885515610e0557810135610bff61271082069182611073565b91969095909115610d1b5750610c14826111f9565b84895416926064610c2483611237565b91069060018201809211610d09579060ff610c608e9695949360808d51998a98899863fcacdaa760e01b8a528901528701526084860190610fe4565b92166044840152606483015203818c867f0000000000000000000000000000000000000000000000000000000000000000165af18015610cff57908891610cd6575b50507f134fdbcff50b257b3b8a988b0bfb6b1f253dd04d803f07f1f6744592afa4b379945b5416958351928352820152a380f35b813d8311610cf8575b610ce98183610fc2565b8101031261039d578689610ca2565b503d610cdf565b85513d8b823e3d90fd5b634e487b7160e01b8e5260118452858efd5b979a9998977f0000000000000000000000000000000000000000000000000000000000000000851693509150823b1561039d578651633aa39ff160e01b81529184166001600160a01b0316908201908152602081018690526040810185905290915f9183919082908490829060600103925af18015610dfb57610dc4575b507f134fdbcff50b257b3b8a988b0bfb6b1f253dd04d803f07f1f6744592afa4b37994959697610cc7565b7f134fdbcff50b257b3b8a988b0bfb6b1f253dd04d803f07f1f6744592afa4b37995969750610df290610f7e565b5f969594610d99565b85513d5f823e3d90fd5b50634e487b7160e01b5f90815260328552fd5b865162461bcd60e51b81528087018b9052601a818501527f4c6f6f745652463a20616c72656164792066756c66696c6c65640000000000006044820152606490fd5b845163073e64fd60e21b8152338186015280890191909152604490fd5b503461039d575f36600319011261039d57517f00000000000000000000000000000000000000000000000000000000000000006001600160a01b03168152602090f35b3461039d575f36600319011261039d576020906003548152f35b600654811015610f0c5760065f5260011b7ff652222313e28459528d920b65115c16c04f3efc82aaedc97be59f3f377c0d3f01905f90565b634e487b7160e01b5f52603260045260245ffd5b9190811015610f0c5760a0020190565b3561ffff8116810361039d5790565b3567ffffffffffffffff8116810361039d5790565b91909161ffff80809416911601918211610f6a57565b634e487b7160e01b5f52601160045260245ffd5b67ffffffffffffffff8111610f9257604052565b634e487b7160e01b5f52604160045260245ffd5b6040810190811067ffffffffffffffff821117610f9257604052565b90601f8019910116810190811067ffffffffffffffff821117610f9257604052565b91908251928382525f5b84811061100e575050825f602080949584010152601f8019910116010190565b602081830181015184830182015201610fee565b5f546001600160a01b0316330361103557565b60405162461bcd60e51b815260206004820152601660248201527527b7363c9031b0b63630b1363290313c9037bbb732b960511b6044820152606490fd5b5f915f91600654925b83811061111e575050604051631fd81bcd60e01b81529250602091508290506004817f00000000000000000000000000000000000000000000000000000000000000006001600160a01b03165afa908115611113575f916110e1575b50906001905f90565b90506020813d60201161110b575b816110fc60209383610fc2565b8101031261039d57515f6110d8565b3d91506110ef565b6040513d5f823e3d90fd5b61112781610ed4565b5061113d61ffff96876001809401541690610f54565b95808716841061115157505060010161107c565b95509593506111609150610ed4565b5060409182519560a0870167ffffffffffffffff9388821085831117610f9257829186528054895201549586166020880152828660101c1693870193808552838760501c168060608a015260ff60808a019860901c161515885203838111610f6a57831601828111610f6a57821690816111e6575050905116925b519151151591929190565b069151168101809111610f6a57926111db565b60648110611231576101f4811061122b576105dc811061122557610fa01161122057600190565b600290565b50600390565b50600490565b50600590565b60ff16600581146112fa57600481146112d257600381146112ab576002146112825760405161126581610fa6565b600d81526c21b7b6b6b7b7102230b3b3b2b960991b602082015290565b60405161128e81610fa6565b600d81526c556e636f6d6d6f6e2048656c6d60981b602082015290565b506040516112b881610fa6565b600a8152692930b9329029ba30b33360b11b602082015290565b506040516112df81610fa6565b600b81526a115c1a58c814da1a595b1960aa1b602082015290565b5060405161130781610fa6565b600f81526e131959d95b99185c9e4814dddbdc99608a1b60208201529056fea264697066735822122004856c017ec6c3425146b94d3f13260bdd9a807fc16dd762f23b34446a2aa9d664736f6c63430008180033","linkReferences":{}},"methodIdentifiers":{"NUM_WORDS()":"72cf6e34","acceptOwnership()":"79ba5097","callbackGasLimit()":"24f74697","coordinator()":"0a009097","dropTable(uint256)":"389704f9","items()":"c06fad06","keyHash()":"61728f39","manaCost()":"707e736f","owner()":"8da5cb5b","rawFulfillRandomWords(uint256,uint256[])":"1fe543e3","requestConfirmations()":"b0fb162f","requestLoot()":"f6712ab6","requests(uint256)":"81d12c58","s_vrfCoordinator()":"9eccacf6","setCallbackGasLimit(uint32)":"a4eb718c","setCoordinator(address)":"8ea98117","setDropTable((uint256,uint16,uint64,uint64,bool)[])":"bd6b30e8","setManaCost(uint256)":"91eb3f1e","subscriptionId()":"09c1ba2e","totalWeight()":"96c82e57","transferOwnership(address)":"f2fde38b"},"id":109}