{"abi":[{"type":"constructor","inputs":[{"name":"name_","type":"string","internalType":"string"},{"name":"leader_","type":"address","internalType":"address"}],"stateMutability":"nonpayable"},{"type":"function","name":"factory","inputs":[],"outputs":[{"name":"","type":"address","internalType":"address"}],"stateMutability":"view"},{"type":"function","name":"isMember","inputs":[{"name":"","type":"address","internalType":"address"}],"outputs":[{"name":"","type":"bool","internalType":"bool"}],"stateMutability":"view"},{"type":"function","name":"join","inputs":[],"outputs":[],"stateMutability":"nonpayable"},{"type":"function","name":"leader","inputs":[],"outputs":[{"name":"","type":"address","internalType":"address"}],"stateMutability":"view"},{"type":"function","name":"leave","inputs":[],"outputs":[],"stateMutability":"nonpayable"},{"type":"function","name":"memberCount","inputs":[],"outputs":[{"name":"","type":"uint256","internalType":"uint256"}],"stateMutability":"view"},{"type":"function","name":"name","inputs":[],"outputs":[{"name":"","type":"string","internalType":"string"}],"stateMutability":"view"},{"type":"function","name":"transferLeadership","inputs":[{"name":"newLeader","type":"address","internalType":"address"}],"outputs":[],"stateMutability":"nonpayable"},{"type":"event","name":"LeaderChanged","inputs":[{"name":"previousLeader","type":"address","indexed":true,"internalType":"address"},{"name":"newLeader","type":"address","indexed":true,"internalType":"address"}],"anonymous":false},{"type":"event","name":"MemberJoined","inputs":[{"name":"member","type":"address","indexed":true,"internalType":"address"}],"anonymous":false},{"type":"event","name":"MemberLeft","inputs":[{"name":"member","type":"address","indexed":true,"internalType":"address"}],"anonymous":false},{"type":"error","name":"AlreadyMember","inputs":[]},{"type":"error","name":"LeaderCannotLeave","inputs":[]},{"type":"error","name":"NotLeader","inputs":[]},{"type":"error","name":"NotMember","inputs":[]}],"bytecode":{"object":"0x60a0604052346102585761072f8038038061001981610270565b9283398101906040818303126102585780516001600160401b03919082811161025857810191601f908482850112156102585783519281841161020a57602093601f199561006c86888785011601610270565b9782895286838301011161025857908592915f5b82811061025c5750505f90880183015201516001600160a01b038116929083900361025857821561021e57855191821161020a575f54946001958681811c91168015610200575b868210146101ec578281116101a9575b508491831160011461014c57508190600395965f92610141575b50505f1982861b1c191690851b175f555b8060018060a01b0319855416178455336080525f525260405f208160ff19825416179055600255604051610499908161029682396080518161013c0152f35b015190505f806100f1565b8216955f8052845f20965f5b8181106101945750918697918460039895941061017d575b505050811b015f55610102565b01515f1983881b60f8161c191690555f8080610170565b83830151895597870197928601928601610158565b5f8052855f208380860160051c8201928887106101e3575b0160051c019087905b8281106101d85750506100d7565b5f81550187906101ca565b925081926101c1565b634e487b7160e01b5f52602260045260245ffd5b90607f16906100c7565b634e487b7160e01b5f52604160045260245ffd5b60405162461bcd60e51b815260048101859052601260248201527123bab4b6321d103d32b937903632b0b232b960711b6044820152606490fd5b5f80fd5b8181018501518a8201860152879401610080565b6040519190601f01601f191682016001600160401b0381118382101761020a5760405256fe6080604081815260049182361015610015575f80fd5b5f3560e01c90816306fdde03146103045750806311aee380146102e657806340eedabb146102be578063a230c5241461027e578063b688a363146101fd578063c08dd2571461016b578063c45a0155146101285763d66d9e1914610077575f80fd5b34610124575f36600319011261012457335f52600360205260ff815f20541615610117576001546001600160a01b0316331461010a57335f5260036020525f2060ff1981541690556002549081156100f757505f1901600255337fbea911b50ccdd2233b28faa49766c3cbd0631608f32e5a724d7b83b32b681ad05f80a2005b601190634e487b7160e01b5f525260245ffd5b5163a8fcbef560e01b8152fd5b5163148fe22160e11b8152fd5b5f80fd5b5034610124575f36600319011261012457517f00000000000000000000000000000000000000000000000000000000000000006001600160a01b03168152602090f35b509034610124576020366003190112610124576001600160a01b0381358181169391929084900361012457600154928316918233036101f057845f52600360205260ff815f2054161561011757505082907f20a41b6af7c8306fdec52386c51d5c48321cd6fde663606ff90de727e964eebe5f80a36001600160a01b03191617600155005b5163143ec73360e31b8152fd5b5034610124575f36600319011261012457335f52600360205260ff815f20541661027157335f908152600360205220805460ff19166001179055600254905f1982146100f75760018201600255337f0abf3b3f643594d958297062a019458e27d7766629590ac621aa1000fa1298ab5f80a2005b516340803a5f60e11b8152fd5b50903461012457602036600319011261012457356001600160a01b0381169190829003610124576020915f526003825260ff815f20541690519015158152f35b5034610124575f3660031901126101245760015490516001600160a01b039091168152602090f35b5034610124575f366003190112610124576020906002549051908152f35b838334610124575f366003190112610124575f925f546001948160011c60018316968715610459575b602093848310891461044657848697989984885291825f1461042a5750506001146103cf575b5050601f801994859203011682019482861067ffffffffffffffff8711176103bc57509084929183855280845281519182828601525f5b8381106103a65750505f84830186015250601f01168101030190f35b818101830151888201880152879550820161038a565b604190634e487b7160e01b5f525260245ffd5b5f8080527f290decd9548b62a8d60345a988386fc84ba6bc95484008f6362f93160ef3e5639594935091905b818310610412575050828293945001018680610353565b855487840185015294850194869450918301916103fb565b925093505060ff191682850152151560051b8301018680610353565b602288634e487b7160e01b5f525260245ffd5b90607f169061032d56fea264697066735822122042f45133861d57117204dabb425592bd6f59903e1956afefeefe76ade6b6cd1c64736f6c63430008180033","linkReferences":{}},"methodIdentifiers":{"factory()":"c45a0155","isMember(address)":"a230c524","join()":"b688a363","leader()":"40eedabb","leave()":"d66d9e19","memberCount()":"11aee380","name()":"06fdde03","transferLeadership(address)":"c08dd257"},"id":107}