{"abi":[{"type":"constructor","inputs":[{"name":"decimals_","type":"uint8","internalType":"uint8"},{"name":"initialAnswer","type":"int256","internalType":"int256"}],"stateMutability":"nonpayable"},{"type":"function","name":"decimals","inputs":[],"outputs":[{"name":"","type":"uint8","internalType":"uint8"}],"stateMutability":"view"},{"type":"function","name":"description","inputs":[],"outputs":[{"name":"","type":"string","internalType":"string"}],"stateMutability":"view"},{"type":"function","name":"latestRoundData","inputs":[],"outputs":[{"name":"","type":"uint80","internalType":"uint80"},{"name":"","type":"int256","internalType":"int256"},{"name":"","type":"uint256","internalType":"uint256"},{"name":"","type":"uint256","internalType":"uint256"},{"name":"","type":"uint80","internalType":"uint80"}],"stateMutability":"view"},{"type":"function","name":"setAnswer","inputs":[{"name":"newAnswer","type":"int256","internalType":"int256"}],"outputs":[],"stateMutability":"nonpayable"},{"type":"function","name":"setUpdatedAt","inputs":[{"name":"timestamp","type":"uint256","internalType":"uint256"}],"outputs":[],"stateMutability":"nonpayable"}],"bytecode":{"object":"0x60803461011757601f6103fb38819003918201601f19168301916001600160401b0383118484101761011b5780849260409485528339810103126101175780519060ff8216809203610117576020015160019182548381811c9116801561010d575b60208210146100f957601f81116100cd575b507f4d4f434b202f205553440000000000000000000000000000000000000000001483555f805460ff191691909117905560025542600355600480546001600160501b03191690911790556040516102cb90816101308239f35b835f5283601f60205f20920160051c8201915b8281106100ee575050610073565b5f81550184906100e0565b634e487b7160e01b5f52602260045260245ffd5b90607f1690610061565b5f80fd5b634e487b7160e01b5f52604160045260245ffdfe6080604081815260049182361015610015575f80fd5b5f3560e01c9081631ecc7d881461027d578163313ce56714610261575080637284e416146100fb57806399213cd81461009d5763feaf968c14610056575f80fd5b34610099575f3660031901126100995769ffffffffffffffffffff60a0925416600254916003548181925194848652602086015284015260608301526080820152f35b5f80fd5b823461009957602036600319011261009957803560025542600355805469ffffffffffffffffffff6001818316018181116100e85769ffffffffffffffffffff199092169116179055005b601184634e487b7160e01b5f525260245ffd5b509034610099575f366003190112610099578151915f92600193600154908160011c60018316968715610257575b602093848310891461024457848697989984885291825f146102285750506001146101cb575b5050601f801994859203011682019482861067ffffffffffffffff8711176101b857509084929183855280845281519182828601525f5b8381106101a25750505f84830186015250601f01168101030190f35b8181018301518882018801528795508201610186565b604190634e487b7160e01b5f525260245ffd5b909392915060015f527fb10e2d527612073b26eecdfd717e6a320cf44b4afac2b0732d9fcbe2b7fa0cf6935f915b818310610210575050828293945001015f8061014f565b855487840185015294850194869450918301916101f9565b925093505060ff191682850152151560051b8301015f8061014f565b602288634e487b7160e01b5f525260245ffd5b90607f1690610129565b34610099575f3660031901126100995760209060ff5f54168152f35b8334610099576020366003190112610099573560035500fea2646970667358221220d7516b265d8ea579e599317c9a67766a9cbce0711e244fa89c2d3cad87371fec64736f6c63430008180033","linkReferences":{}},"methodIdentifiers":{"decimals()":"313ce567","description()":"7284e416","latestRoundData()":"feaf968c","setAnswer(int256)":"99213cd8","setUpdatedAt(uint256)":"1ecc7d88"},"id":115}