{"abi":[{"type":"constructor","inputs":[{"name":"asset_","type":"address","internalType":"contract IERC20"}],"stateMutability":"nonpayable"},{"type":"function","name":"allowance","inputs":[{"name":"owner","type":"address","internalType":"address"},{"name":"spender","type":"address","internalType":"address"}],"outputs":[{"name":"","type":"uint256","internalType":"uint256"}],"stateMutability":"view"},{"type":"function","name":"approve","inputs":[{"name":"spender","type":"address","internalType":"address"},{"name":"value","type":"uint256","internalType":"uint256"}],"outputs":[{"name":"","type":"bool","internalType":"bool"}],"stateMutability":"nonpayable"},{"type":"function","name":"asset","inputs":[],"outputs":[{"name":"","type":"address","internalType":"address"}],"stateMutability":"view"},{"type":"function","name":"balanceOf","inputs":[{"name":"account","type":"address","internalType":"address"}],"outputs":[{"name":"","type":"uint256","internalType":"uint256"}],"stateMutability":"view"},{"type":"function","name":"convertToAssets","inputs":[{"name":"shares","type":"uint256","internalType":"uint256"}],"outputs":[{"name":"","type":"uint256","internalType":"uint256"}],"stateMutability":"view"},{"type":"function","name":"convertToShares","inputs":[{"name":"assets","type":"uint256","internalType":"uint256"}],"outputs":[{"name":"","type":"uint256","internalType":"uint256"}],"stateMutability":"view"},{"type":"function","name":"decimals","inputs":[],"outputs":[{"name":"","type":"uint8","internalType":"uint8"}],"stateMutability":"view"},{"type":"function","name":"deposit","inputs":[{"name":"assets","type":"uint256","internalType":"uint256"},{"name":"receiver","type":"address","internalType":"address"}],"outputs":[{"name":"","type":"uint256","internalType":"uint256"}],"stateMutability":"nonpayable"},{"type":"function","name":"maxDeposit","inputs":[{"name":"","type":"address","internalType":"address"}],"outputs":[{"name":"","type":"uint256","internalType":"uint256"}],"stateMutability":"view"},{"type":"function","name":"maxMint","inputs":[{"name":"","type":"address","internalType":"address"}],"outputs":[{"name":"","type":"uint256","internalType":"uint256"}],"stateMutability":"view"},{"type":"function","name":"maxRedeem","inputs":[{"name":"owner","type":"address","internalType":"address"}],"outputs":[{"name":"","type":"uint256","internalType":"uint256"}],"stateMutability":"view"},{"type":"function","name":"maxWithdraw","inputs":[{"name":"owner","type":"address","internalType":"address"}],"outputs":[{"name":"","type":"uint256","internalType":"uint256"}],"stateMutability":"view"},{"type":"function","name":"mint","inputs":[{"name":"shares","type":"uint256","internalType":"uint256"},{"name":"receiver","type":"address","internalType":"address"}],"outputs":[{"name":"","type":"uint256","internalType":"uint256"}],"stateMutability":"nonpayable"},{"type":"function","name":"name","inputs":[],"outputs":[{"name":"","type":"string","internalType":"string"}],"stateMutability":"view"},{"type":"function","name":"previewDeposit","inputs":[{"name":"assets","type":"uint256","internalType":"uint256"}],"outputs":[{"name":"","type":"uint256","internalType":"uint256"}],"stateMutability":"view"},{"type":"function","name":"previewMint","inputs":[{"name":"shares","type":"uint256","internalType":"uint256"}],"outputs":[{"name":"","type":"uint256","internalType":"uint256"}],"stateMutability":"view"},{"type":"function","name":"previewRedeem","inputs":[{"name":"shares","type":"uint256","internalType":"uint256"}],"outputs":[{"name":"","type":"uint256","internalType":"uint256"}],"stateMutability":"view"},{"type":"function","name":"previewWithdraw","inputs":[{"name":"assets","type":"uint256","internalType":"uint256"}],"outputs":[{"name":"","type":"uint256","internalType":"uint256"}],"stateMutability":"view"},{"type":"function","name":"redeem","inputs":[{"name":"shares","type":"uint256","internalType":"uint256"},{"name":"receiver","type":"address","internalType":"address"},{"name":"owner","type":"address","internalType":"address"}],"outputs":[{"name":"","type":"uint256","internalType":"uint256"}],"stateMutability":"nonpayable"},{"type":"function","name":"symbol","inputs":[],"outputs":[{"name":"","type":"string","internalType":"string"}],"stateMutability":"view"},{"type":"function","name":"totalAssets","inputs":[],"outputs":[{"name":"","type":"uint256","internalType":"uint256"}],"stateMutability":"view"},{"type":"function","name":"totalSupply","inputs":[],"outputs":[{"name":"","type":"uint256","internalType":"uint256"}],"stateMutability":"view"},{"type":"function","name":"transfer","inputs":[{"name":"to","type":"address","internalType":"address"},{"name":"value","type":"uint256","internalType":"uint256"}],"outputs":[{"name":"","type":"bool","internalType":"bool"}],"stateMutability":"nonpayable"},{"type":"function","name":"transferFrom","inputs":[{"name":"from","type":"address","internalType":"address"},{"name":"to","type":"address","internalType":"address"},{"name":"value","type":"uint256","internalType":"uint256"}],"outputs":[{"name":"","type":"bool","internalType":"bool"}],"stateMutability":"nonpayable"},{"type":"function","name":"withdraw","inputs":[{"name":"assets","type":"uint256","internalType":"uint256"},{"name":"receiver","type":"address","internalType":"address"},{"name":"owner","type":"address","internalType":"address"}],"outputs":[{"name":"","type":"uint256","internalType":"uint256"}],"stateMutability":"nonpayable"},{"type":"event","name":"Approval","inputs":[{"name":"owner","type":"address","indexed":true,"internalType":"address"},{"name":"spender","type":"address","indexed":true,"internalType":"address"},{"name":"value","type":"uint256","indexed":false,"internalType":"uint256"}],"anonymous":false},{"type":"event","name":"Deposit","inputs":[{"name":"sender","type":"address","indexed":true,"internalType":"address"},{"name":"owner","type":"address","indexed":true,"internalType":"address"},{"name":"assets","type":"uint256","indexed":false,"internalType":"uint256"},{"name":"shares","type":"uint256","indexed":false,"internalType":"uint256"}],"anonymous":false},{"type":"event","name":"Transfer","inputs":[{"name":"from","type":"address","indexed":true,"internalType":"address"},{"name":"to","type":"address","indexed":true,"internalType":"address"},{"name":"value","type":"uint256","indexed":false,"internalType":"uint256"}],"anonymous":false},{"type":"event","name":"Withdraw","inputs":[{"name":"sender","type":"address","indexed":true,"internalType":"address"},{"name":"receiver","type":"address","indexed":true,"internalType":"address"},{"name":"owner","type":"address","indexed":true,"internalType":"address"},{"name":"assets","type":"uint256","indexed":false,"internalType":"uint256"},{"name":"shares","type":"uint256","indexed":false,"internalType":"uint256"}],"anonymous":false},{"type":"error","name":"ERC20InsufficientAllowance","inputs":[{"name":"spender","type":"address","internalType":"address"},{"name":"allowance","type":"uint256","internalType":"uint256"},{"name":"needed","type":"uint256","internalType":"uint256"}]},{"type":"error","name":"ERC20InsufficientBalance","inputs":[{"name":"sender","type":"address","internalType":"address"},{"name":"balance","type":"uint256","internalType":"uint256"},{"name":"needed","type":"uint256","internalType":"uint256"}]},{"type":"error","name":"ERC20InvalidApprover","inputs":[{"name":"approver","type":"address","internalType":"address"}]},{"type":"error","name":"ERC20InvalidReceiver","inputs":[{"name":"receiver","type":"address","internalType":"address"}]},{"type":"error","name":"ERC20InvalidSender","inputs":[{"name":"sender","type":"address","internalType":"address"}]},{"type":"error","name":"ERC20InvalidSpender","inputs":[{"name":"spender","type":"address","internalType":"address"}]},{"type":"error","name":"ERC4626ExceededMaxDeposit","inputs":[{"name":"receiver","type":"address","internalType":"address"},{"name":"assets","type":"uint256","internalType":"uint256"},{"name":"max","type":"uint256","internalType":"uint256"}]},{"type":"error","name":"ERC4626ExceededMaxMint","inputs":[{"name":"receiver","type":"address","internalType":"address"},{"name":"shares","type":"uint256","internalType":"uint256"},{"name":"max","type":"uint256","internalType":"uint256"}]},{"type":"error","name":"ERC4626ExceededMaxRedeem","inputs":[{"name":"owner","type":"address","internalType":"address"},{"name":"shares","type":"uint256","internalType":"uint256"},{"name":"max","type":"uint256","internalType":"uint256"}]},{"type":"error","name":"ERC4626ExceededMaxWithdraw","inputs":[{"name":"owner","type":"address","internalType":"address"},{"name":"assets","type":"uint256","internalType":"uint256"},{"name":"max","type":"uint256","internalType":"uint256"}]},{"type":"error","name":"SafeERC20FailedOperation","inputs":[{"name":"token","type":"address","internalType":"address"}]}],"bytecode":{"object":"0x60c034620003fa57601f90601f1990620013d23881900384810184168301926001600160401b0392909183851183861017620003fe5780839260409687528339602092839181010312620003fa5751936001600160a01b038516808603620003fa578451936200006f8562000412565b60118552705374616b6564205265616c6d466f72676560781b848601528551976200009a8962000412565b6004988981526378524c4d60e01b868201528651948386116200030b576003958654986001998a81811c91168015620003ef575b8a821014620003dc5790818684931162000389575b5089908683116001146200032a575f926200031e575b50505f1982891b1c191690891b1786555b81519384116200030b578a548881811c9116801562000300575b88821014620002ed579081848b97969594931162000292575b50879284116001146200022857509482915f959686936200021c575b505082881b928519911b1c19161788555b825163313ce56760e01b85820190815298815297620001898962000412565b8851915afa90855f5194528162000210575b508062000204575b15620001fa5760ff909116905b15620001f1575b60a052608052610fa390816200042f82396080518181816104ed0152818161090e01528181610c0a0152610dbe015260a051816105320152f35b506012620001b7565b50505f80620001b0565b5060ff821115620001a3565b90503d10155f6200019b565b015191505f8062000159565b95839296899416968c5f52885f20925f5b8a8a821062000278575050845f9899106200025e575b50505050811b0188556200016a565b01519060f8848819921b161c191690555f8080806200024f565b8383015186558d99508c9790950194928301920162000239565b909192939495508b5f52875f208480870160051c8201928a8810620002e3575b918b918d999897969594930160051c01915b828110620002d45750506200013d565b5f81558c98508b9101620002c4565b92508192620002b2565b60228c634e487b7160e01b5f525260245ffd5b90607f169062000124565b60418b634e487b7160e01b5f525260245ffd5b015190505f80620000f9565b90848c9416918a5f528b5f20925f5b8d8282106200037257505084116200035a575b505050811b0186556200010a565b01515f19838b1b60f8161c191690555f80806200034c565b8385015186558f9790950194938401930162000339565b909150885f52895f208680850160051c8201928c8610620003d2575b918d91869594930160051c01915b828110620003c3575050620000e3565b5f81558594508d9101620003b3565b92508192620003a5565b60228e634e487b7160e01b5f525260245ffd5b90607f1690620000ce565b5f80fd5b634e487b7160e01b5f52604160045260245ffd5b604081019081106001600160401b03821117620003fe5760405256fe60406080815260049081361015610014575f80fd5b5f3560e01c91826301e1d1141461079057826306fdde031461069c57826307a2d13a146104d4578263095ea7b3146105f45782630a28a477146105d657826318160ddd146105b857826323b872dd1461057c578263313ce5671461051c57826338d52e0f146104d9578263402d267d146101ea5782634cdad506146104d45782636e553f65146104a157826370a082311461048157826394bf804d1461044e57826395d89b411461034c578263a9059cbb1461031c578263b3d7f6b9146102fe578263b460af9414610278578263ba087652146101ef57508163c63d75b6146101ea578163c6e6f59214610132578163ce96cb77146101c3578163d905777e14610183578163dd62ed3e14610137575063ef8b30f714610132575f80fd5b61089f565b3461017f578060031936011261017f57602090610152610819565b61015a61082f565b9060018060a01b038091165f5260018452825f2091165f528252805f20549051908152f35b5f80fd5b3461017f57602036600319011261017f576020906101bc6101a2610819565b6001600160a01b03165f9081526020819052604090205490565b9051908152f35b3461017f57602036600319011261017f576020906101bc6101e56101a2610819565b6109d3565b610845565b903461017f576101fe3661086a565b92919361021b8460018060a01b03165f525f60205260405f205490565b8086116102435750508361023d916102346020966109d3565b94859133610d3d565b51908152f35b9251632e52afbb60e21b81526001600160a01b0390941690840190815260208101949094525060408301529081906060010390fd5b903461017f576102873661086a565b9291936102a76101e58560018060a01b03165f525f60205260405f205490565b8086116102c957505061023d90846102c06020966109ff565b94859233610d3d565b9251633fa733bb60e21b81526001600160a01b0390941690840190815260208101949094525060408301529081906060010390fd5b903461017f57602036600319011261017f576101bc602092356109a4565b503461017f578060031936011261017f5760209061034561033b610819565b6024359033610b24565b5160018152f35b903461017f575f36600319011261017f578051905f9280549060018260011c9160018416938415610444575b60209485851081146104315784885290811561040f57506001146103b6575b6103b286866103a8828b03836108bd565b51918291826107ac565b0390f35b5f9081529295507f8a35acfbc15ff81a39ae7d344fd709f28e8600b4aa8c65c6b64bfe7fe36bd19b5b8284106103fc57505050826103b2946103a8928201019486610397565b80548685018801529286019281016103df565b60ff191687860152505050151560051b83010192506103a8826103b286610397565b602283634e487b7160e01b5f525260245ffd5b92607f1692610378565b903461017f578060031936011261017f57602091359061023d61046f61082f565b92610479816109a4565b809433610bfe565b503461017f57602036600319011261017f576020906101bc6101a2610819565b903461017f578060031936011261017f57602091359061023d6104c261082f565b6104cb84610a2b565b93849133610bfe565b6107f3565b503461017f575f36600319011261017f57517f00000000000000000000000000000000000000000000000000000000000000006001600160a01b03168152602090f35b3461017f575f36600319011261017f57600360ff7f000000000000000000000000000000000000000000000000000000000000000016019060ff8211610569575060ff6020925191168152f35b601190634e487b7160e01b5f525260245ffd5b503461017f57606036600319011261017f5760209061034561059c610819565b6105a461082f565b604435916105b3833383610a57565b610b24565b503461017f575f36600319011261017f576020906002549051908152f35b903461017f57602036600319011261017f576101bc602092356109ff565b903461017f578060031936011261017f5761060d610819565b602435903315610686576001600160a01b03169081156106705760209350335f5260018452825f20825f52845280835f205582519081527f8c5be1e5ebec7d5bd14f71427d1e84f3dd0314c0f7b2291e5b200ac8c7c3b925843392a35160018152f35b8251634a1406b160e11b81525f81860152602490fd5b825163e602df0560e01b81525f81860152602490fd5b903461017f575f36600319011261017f578051905f9260035460018160011c91600181168015610786575b6020948585108214610773575083875290811561075357506001146106f9575b5050506103a8826103b29403836108bd565b60035f9081529295507fc2575a0e9e593c00f959f8c92f12db2869c3395a3b0502d05e2516446f71f85b5b82841061074057505050826103b2946103a892820101946106e7565b8054868501880152928601928101610724565b60ff1916868501525050151560051b83010192506103a8826103b26106e7565b602290634e487b7160e01b5f525260245ffd5b92607f16926106c7565b503461017f575f36600319011261017f576020906101bc6108f3565b602080825282518183018190529093925f5b8281106107df57505060409293505f838284010152601f8019910116010190565b8181018601518482016040015285016107be565b3461017f57602036600319011261017f5760206108116004356109d3565b604051908152f35b600435906001600160a01b038216820361017f57565b602435906001600160a01b038216820361017f57565b3461017f57602036600319011261017f5761085e610819565b5060206040515f198152f35b606090600319011261017f57600435906001600160a01b0390602435828116810361017f5791604435908116810361017f5790565b3461017f57602036600319011261017f576020610811600435610a2b565b90601f8019910116810190811067ffffffffffffffff8211176108df57604052565b634e487b7160e01b5f52604160045260245ffd5b6040516370a0823160e01b81523060048201526020816024817f00000000000000000000000000000000000000000000000000000000000000006001600160a01b03165afa908115610978575f91610949575090565b90506020813d602011610970575b81610964602093836108bd565b8101031261017f575190565b3d9150610957565b6040513d5f823e3d90fd5b9190820180921161099057565b634e487b7160e01b5f52601160045260245ffd5b6109ac6108f3565b6001810180911161099057600254906103e88201809211610990576109d092610e9f565b90565b6109db6108f3565b6001810180911161099057600254906103e88201809211610990576109d092610ed3565b6002546103e8810180911161099057610a166108f3565b9060018201809211610990576109d092610e9f565b6002546103e8810180911161099057610a426108f3565b9060018201809211610990576109d092610ed3565b919060018060a01b0380931692835f526001602052604093845f2091831691825f52602052845f2054925f198410610a92575b505050505050565b848410610af457508015610add578115610ac6575f526001602052835f20905f5260205203905f20555f8080808080610a8a565b8451634a1406b160e11b81525f6004820152602490fd5b845163e602df0560e01b81525f6004820152602490fd5b8551637dc7a0d960e11b81526001600160a01b039190911660048201526024810184905260448101859052606490fd5b916001600160a01b03808416928315610be65716928315610bce57825f525f60205260405f205490828210610b9c5750817fddf252ad1be2c89b69c2b068fc378daa952ba7f163c4a11628f55a4df523b3ef92602092855f525f84520360405f2055845f5260405f20818154019055604051908152a3565b60405163391434e360e21b81526001600160a01b03919091166004820152602481019190915260448101829052606490fd5b60405163ec442f0560e01b81525f6004820152602490fd5b604051634b637e8f60e11b81525f6004820152602490fd5b909160018060a01b03807f00000000000000000000000000000000000000000000000000000000000000001693604093828551916323b872dd60e01b5f52169586600452306024528460445260205f60648180855af160015f5114811615610d1e575b8287525f60605215610d0957505016938415610cf2579081610ca77fdcbc1c05240f31ff3ad067ef1ee35ce4997762752e3a095284754544f4c709d79493600254610983565b600255855f525f602052825f20818154019055855f7fddf252ad1be2c89b69c2b068fc378daa952ba7f163c4a11628f55a4df523b3ef60208651858152a382519182526020820152a3565b825163ec442f0560e01b81525f6004820152602490fd5b635274afe760e01b8252600482015260249150fd5b6001811516610d3457813b15153d151616610c61565b823d5f823e3d90fd5b6001600160a01b038084169590948583169493909282888703610e8e575b50508615610be657865f525f602052604093845f205490838210610e5d57508290885f525f60205203845f205581600254036002555f877fddf252ad1be2c89b69c2b068fc378daa952ba7f163c4a11628f55a4df523b3ef60208751868152a3857f0000000000000000000000000000000000000000000000000000000000000000169584519163a9059cbb60e01b5f521695866004528360245260205f60448180855af160015f5114811615610e47575b82865215610d09575050825191825260208201527ffbde797d201c681b91056529119e0b02407c7bb96a4a2c75c01fc9667232c8db9190a4565b6001811516610d3457813b15153d151616610e0d565b855163391434e360e21b81526001600160a01b03919091166004820152602481019190915260448101839052606490fd5b610e989186610a57565b5f82610d5b565b91610eab818385610ed3565b918115610ebf576109d09309151590610983565b634e487b7160e01b5f52601260045260245ffd5b90915f198383099280830292838086109503948086039514610f5f5784831115610f475790829109815f038216809204600280826003021880830282030280830282030280830282030280830282030280830282030280920290030293600183805f03040190848311900302920304170290565b82634e487b715f52156003026011186020526024601cfd5b505080925015610ebf57049056fea26469706673582212203e377291d9db52fc176bc0b865d56143c7ddf9ed7b52d6552c62d64320bf0f4864736f6c63430008180033","linkReferences":{}},"methodIdentifiers":{"allowance(address,address)":"dd62ed3e","approve(address,uint256)":"095ea7b3","asset()":"38d52e0f","balanceOf(address)":"70a08231","convertToAssets(uint256)":"07a2d13a","convertToShares(uint256)":"c6e6f592","decimals()":"313ce567","deposit(uint256,address)":"6e553f65","maxDeposit(address)":"402d267d","maxMint(address)":"c63d75b6","maxRedeem(address)":"d905777e","maxWithdraw(address)":"ce96cb77","mint(uint256,address)":"94bf804d","name()":"06fdde03","previewDeposit(uint256)":"ef8b30f7","previewMint(uint256)":"b3d7f6b9","previewRedeem(uint256)":"4cdad506","previewWithdraw(uint256)":"0a28a477","redeem(uint256,address,address)":"ba087652","symbol()":"95d89b41","totalAssets()":"01e1d114","totalSupply()":"18160ddd","transfer(address,uint256)":"a9059cbb","transferFrom(address,address,uint256)":"23b872dd","withdraw(uint256,address,address)":"b460af94"},"id":112}