{"abi":[{"type":"constructor","inputs":[{"name":"itemsContract_","type":"address","internalType":"address"},{"name":"admin_","type":"address","internalType":"address"}],"stateMutability":"nonpayable"},{"type":"function","name":"MANA","inputs":[],"outputs":[{"name":"","type":"uint256","internalType":"uint256"}],"stateMutability":"view"},{"type":"function","name":"claimEarnings","inputs":[],"outputs":[],"stateMutability":"nonpayable"},{"type":"function","name":"delist","inputs":[{"name":"equipmentId","type":"uint256","internalType":"uint256"}],"outputs":[],"stateMutability":"nonpayable"},{"type":"function","name":"earnings","inputs":[{"name":"","type":"address","internalType":"address"}],"outputs":[{"name":"","type":"uint256","internalType":"uint256"}],"stateMutability":"view"},{"type":"function","name":"items","inputs":[],"outputs":[{"name":"","type":"address","internalType":"contract GameItems"}],"stateMutability":"view"},{"type":"function","name":"list","inputs":[{"name":"equipmentId","type":"uint256","internalType":"uint256"},{"name":"pricePerDay","type":"uint256","internalType":"uint256"},{"name":"maxDuration","type":"uint64","internalType":"uint64"}],"outputs":[],"stateMutability":"nonpayable"},{"type":"function","name":"listings","inputs":[{"name":"","type":"uint256","internalType":"uint256"}],"outputs":[{"name":"owner","type":"address","internalType":"address"},{"name":"pricePerDay","type":"uint256","internalType":"uint256"},{"name":"maxDuration","type":"uint64","internalType":"uint64"},{"name":"user","type":"address","internalType":"address"},{"name":"userExpires","type":"uint64","internalType":"uint64"},{"name":"active","type":"bool","internalType":"bool"}],"stateMutability":"view"},{"type":"function","name":"onERC1155BatchReceived","inputs":[{"name":"","type":"address","internalType":"address"},{"name":"","type":"address","internalType":"address"},{"name":"","type":"uint256[]","internalType":"uint256[]"},{"name":"","type":"uint256[]","internalType":"uint256[]"},{"name":"","type":"bytes","internalType":"bytes"}],"outputs":[{"name":"","type":"bytes4","internalType":"bytes4"}],"stateMutability":"nonpayable"},{"type":"function","name":"onERC1155Received","inputs":[{"name":"","type":"address","internalType":"address"},{"name":"","type":"address","internalType":"address"},{"name":"","type":"uint256","internalType":"uint256"},{"name":"","type":"uint256","internalType":"uint256"},{"name":"","type":"bytes","internalType":"bytes"}],"outputs":[{"name":"","type":"bytes4","internalType":"bytes4"}],"stateMutability":"nonpayable"},{"type":"function","name":"owner","inputs":[],"outputs":[{"name":"","type":"address","internalType":"address"}],"stateMutability":"view"},{"type":"function","name":"pause","inputs":[],"outputs":[],"stateMutability":"nonpayable"},{"type":"function","name":"paused","inputs":[],"outputs":[{"name":"","type":"bool","internalType":"bool"}],"stateMutability":"view"},{"type":"function","name":"quoteRent","inputs":[{"name":"equipmentId","type":"uint256","internalType":"uint256"},{"name":"durationDays","type":"uint64","internalType":"uint64"}],"outputs":[{"name":"","type":"uint256","internalType":"uint256"}],"stateMutability":"view"},{"type":"function","name":"renounceOwnership","inputs":[],"outputs":[],"stateMutability":"nonpayable"},{"type":"function","name":"rent","inputs":[{"name":"equipmentId","type":"uint256","internalType":"uint256"},{"name":"durationDays","type":"uint64","internalType":"uint64"}],"outputs":[],"stateMutability":"nonpayable"},{"type":"function","name":"supportsInterface","inputs":[{"name":"interfaceId","type":"bytes4","internalType":"bytes4"}],"outputs":[{"name":"","type":"bool","internalType":"bool"}],"stateMutability":"view"},{"type":"function","name":"transferOwnership","inputs":[{"name":"newOwner","type":"address","internalType":"address"}],"outputs":[],"stateMutability":"nonpayable"},{"type":"function","name":"unpause","inputs":[],"outputs":[],"stateMutability":"nonpayable"},{"type":"function","name":"updateListing","inputs":[{"name":"equipmentId","type":"uint256","internalType":"uint256"},{"name":"pricePerDay","type":"uint256","internalType":"uint256"},{"name":"maxDuration","type":"uint64","internalType":"uint64"}],"outputs":[],"stateMutability":"nonpayable"},{"type":"function","name":"userExpires","inputs":[{"name":"equipmentId","type":"uint256","internalType":"uint256"}],"outputs":[{"name":"","type":"uint256","internalType":"uint256"}],"stateMutability":"view"},{"type":"function","name":"userOf","inputs":[{"name":"equipmentId","type":"uint256","internalType":"uint256"}],"outputs":[{"name":"","type":"address","internalType":"address"}],"stateMutability":"view"},{"type":"event","name":"Delisted","inputs":[{"name":"equipmentId","type":"uint256","indexed":true,"internalType":"uint256"},{"name":"owner","type":"address","indexed":true,"internalType":"address"}],"anonymous":false},{"type":"event","name":"EarningsClaimed","inputs":[{"name":"owner","type":"address","indexed":true,"internalType":"address"},{"name":"amount","type":"uint256","indexed":false,"internalType":"uint256"}],"anonymous":false},{"type":"event","name":"Listed","inputs":[{"name":"equipmentId","type":"uint256","indexed":true,"internalType":"uint256"},{"name":"owner","type":"address","indexed":true,"internalType":"address"},{"name":"pricePerDay","type":"uint256","indexed":false,"internalType":"uint256"},{"name":"maxDuration","type":"uint64","indexed":false,"internalType":"uint64"}],"anonymous":false},{"type":"event","name":"OwnershipTransferred","inputs":[{"name":"previousOwner","type":"address","indexed":true,"internalType":"address"},{"name":"newOwner","type":"address","indexed":true,"internalType":"address"}],"anonymous":false},{"type":"event","name":"Paused","inputs":[{"name":"account","type":"address","indexed":false,"internalType":"address"}],"anonymous":false},{"type":"event","name":"PriceUpdated","inputs":[{"name":"equipmentId","type":"uint256","indexed":true,"internalType":"uint256"},{"name":"pricePerDay","type":"uint256","indexed":false,"internalType":"uint256"},{"name":"maxDuration","type":"uint64","indexed":false,"internalType":"uint64"}],"anonymous":false},{"type":"event","name":"Rented","inputs":[{"name":"equipmentId","type":"uint256","indexed":true,"internalType":"uint256"},{"name":"renter","type":"address","indexed":true,"internalType":"address"},{"name":"expires","type":"uint64","indexed":false,"internalType":"uint64"},{"name":"paid","type":"uint256","indexed":false,"internalType":"uint256"}],"anonymous":false},{"type":"event","name":"Unpaused","inputs":[{"name":"account","type":"address","indexed":false,"internalType":"address"}],"anonymous":false},{"type":"error","name":"EnforcedPause","inputs":[]},{"type":"error","name":"ExpectedPause","inputs":[]},{"type":"error","name":"OwnableInvalidOwner","inputs":[{"name":"owner","type":"address","internalType":"address"}]},{"type":"error","name":"OwnableUnauthorizedAccount","inputs":[{"name":"account","type":"address","internalType":"address"}]},{"type":"error","name":"ReentrancyGuardReentrantCall","inputs":[]}],"bytecode":{"object":"0x60c0604090808252346200017c5781816200155c8038038091620000248285620001eb565b8339810103126200017c576200003a8162000223565b62000049602080930162000223565b60017f9b779b17422d0df92223018b32b4d1fa46e071723d6817e2486d003becc55f0055906001600160a01b03908183168015620001d4575f8054610100600160a81b03198116600896871b610100600160a81b03161782558751951c8416907f8be0079c531659141344cd1fd0a4f28419497f9722a3daafe3b4186f6b6457e09080a316908115620001925750818160049260805284519283809263ecb4279560e01b82525afa91821562000188575f9262000150575b505060a052516113239081620002398239608051818181610339015281816105af0152818161078f015281816108cb0152610d8a015260a05181818161025f015281816103830152610dcc0152f35b90809250813d831162000180575b6200016a8183620001eb565b810103126200017c57515f8062000101565b5f80fd5b503d6200015e565b83513d5f823e3d90fd5b62461bcd60e51b815260048101839052601460248201527f52656e74616c3a207a65726f20616464726573730000000000000000000000006044820152606490fd5b8551631e4fbdf760e01b81525f6004820152602490fd5b601f909101601f19168101906001600160401b038211908210176200020f57604052565b634e487b7160e01b5f52604160045260245ffd5b51906001600160a01b03821682036200017c5756fe60806040818152600480361015610014575f80fd5b5f925f3560e01c90816301ffc9a714610f55575080632ed2d42914610c385780633f4ba83a14610bd1578063543fd31314610b995780635c975abb14610b77578063715018a614610b1a5780637a56a19714610a5b5780638456cb5914610a025780638da5cb5b146109d65780638fc88c48146109a357838163964bc33f1461084457508063bc197c81146107be578063c06fad061461077a578063c2f1f14a14610719578063ca690ea214610479578063d9ceab13146102fa578063de74e57b14610286578063ecb4279514610247578063f23a6e61146101ef578063f2fde38b146101505763fbd3e06b14610109575f80fd5b3461014c578160031936011261014c57610145906001600160401b03600184602096610133610fa7565b94358152828852200154911690611157565b9051908152f35b8280fd5b503461014c57602036600319011261014c5761016a610fbd565b61017261129f565b6001600160a01b038181169390929084156101d95750505f8054610100600160a81b03198116600893841b610100600160a81b031617825590911c91909116907f8be0079c531659141344cd1fd0a4f28419497f9722a3daafe3b4186f6b6457e09080a380f35b51631e4fbdf760e01b8152908101859052602490fd5b5091346102445760a03660031901126102445761020a610fbd565b50610213610fd3565b50608435906001600160401b0382116102445750602092610236913691016110c1565b505163f23a6e6160e01b8152f35b80fd5b505034610282578160031936011261028257602090517f00000000000000000000000000000000000000000000000000000000000000008152f35b5080fd5b503461014c57602036600319011261014c578160c09360ff923581526001602052209160018060a01b03908184541693600181015492600282015460036001600160401b03930154948451978852602088015282811684880152831c166060860152821660808501521c16151560a0820152f35b50903461014c578260031936011261014c57610314611253565b33835260026020528083205491821561043757338452600260205281842084905583907f00000000000000000000000000000000000000000000000000000000000000006001600160a01b0316803b1561014c578351637921219560e11b8152309281019283523360208401527f000000000000000000000000000000000000000000000000000000000000000060408401526060830186905260a0608084018190525f90840152918391839182908490829060c00103925af1801561042d57610419575b5050519081527f6a8d334a32dfb49dae325dba76deb51b0b8f5ea50b1cdfa70710f4dc1b9c24c560203392a260015f805160206112ce8339815191525580f35b61042290611013565b61014c57825f6103d9565b83513d84823e3d90fd5b6020606492519162461bcd60e51b8352820152601860248201527f52656e74616c3a206e6f7468696e6720746f20636c61696d00000000000000006044820152fd5b50903461014c5761048936610fe9565b91929093610495611253565b61049d611282565b6103e884106106df576001600160401b038084166104bc8115156111cb565b858852600160205260ff6003858a200154851c166106a357835160c08101818110848211176106905785523381526020808201898152868301938452606083018b8152608084018c8152600160a086018181528c8f5294819052898e20955186546001600160a01b0319166001600160a01b0391821617875593519086015594516002850180549251600160401b600160e01b0319928916929092166001600160e01b03199093169290921760409190911b600160401b600160e01b03161790558a959490939260030192511668ff0000000000000000835492511515881b169168ffffffffffffffffff1916171790557f000000000000000000000000000000000000000000000000000000000000000016803b1561014c578351637921219560e11b815233928101928352306020840152604083018790526001606084015260a0608084018190525f90840152918391839182908490829060c00103925af1801561042d57610678575b5050519283526001600160401b0316602083015233917f5b886b3c15d339ca3333d6712726a9665b4ded99f69cce925f48e03f1e891dcd90604090a360015f805160206112ce8339815191525580f35b61068190611013565b61068c57845f610628565b8480fd5b604185634e487b7160e01b5f525260245ffd5b835162461bcd60e51b8152602081850152601660248201527514995b9d185b0e88185b1c9958591e481b1a5cdd195960521b6044820152606490fd5b6020606492519162461bcd60e51b8352820152601560248201527414995b9d185b0e881b9bdd08195c5d5a5c1b595b9d605a1b6044820152fd5b503461014c57602036600319011261014c579160209235815260018352818120906001600160401b0360038301541642105f14610772575060020154811c6001600160a01b0316905b516001600160a01b039091168152f35b905090610762565b505034610282578160031936011261028257517f00000000000000000000000000000000000000000000000000000000000000006001600160a01b03168152602090f35b5091346102445760a0366003190112610244576107d9610fbd565b506107e2610fd3565b506001600160401b039060443582811161028257610803903690860161105b565b506064358281116102825761081b903690860161105b565b506084359182116102445750602092610836913691016110c1565b505163bc197c8160e01b8152f35b9190503461028257602036600319011261028257803592610863611253565b83835260016020528083206108aa6001600160401b03600360018060a01b039361089185825416331461118b565b01546108a160ff82871c16611116565b1642101561120f565b848452600160205283600383822082815582600182015582600282015501557f000000000000000000000000000000000000000000000000000000000000000016803b1561099f578151637921219560e11b815230938101938452336020850152604084018690526001606085015260a0608085018190525f90850152928491849182908490829060c00103925af19081156109965750610982575b505033907f8e51b30707579d5dafbd56c2b27a7d382dd32fce8afa83687e99daf0ee47f8af8380a360015f805160206112ce8339815191525580f35b61098b90611013565b61028257815f610946565b513d84823e3d90fd5b8380fd5b503461014c57602036600319011261014c576003826020946001600160401b039335815260018652200154169051908152f35b5050346102825781600319360112610282579054905160089190911c6001600160a01b03168152602090f35b50503461028257816003193601126102825760207f62e78cea01bee320cd4e420270b5ea74000d11b0c9f74754ebdbfc544b05a25891610a4061129f565b610a48611282565b835460ff1916600117845551338152a180f35b505034610282577fcaf40319e00c3201ebf40b3884d95bed7148025ac71128b6326aabab1cb3c56f610b14610a8f36610fe9565b929091948587526001602052808720610ab260018060a01b03825416331461118b565b60026001600160401b0391610add83881693610acf8515156111cb565b60038301541642101561120f565b85600182015501906001600160401b031982541617905551928392839092916001600160401b036020916040840195845216910152565b0390a280f35b8334610244578060031936011261024457610b3361129f565b5f8054610100600160a81b03198116825560081c6001600160a01b03167f8be0079c531659141344cd1fd0a4f28419497f9722a3daafe3b4186f6b6457e08280a380f35b50503461028257816003193601126102825760ff602092541690519015158152f35b5050346102825760203660031901126102825760209181906001600160a01b03610bc1610fbd565b1681526002845220549051908152f35b503461014c578260031936011261014c57610bea61129f565b82549060ff821615610c2a575060ff19168255513381527f5db9ee0a495bf2e6ff9c91a7834c1ba4fdd244a5e8aa4e537bd38aeae4b073aa90602090a180f35b8251638dfc202b60e01b8152fd5b509034610e6e5780600319360112610e6e57813590610c55610fa7565b92610c5e611253565b610c66611282565b825f52602060018152825f20916003830195865493610c8960ff86881c16611116565b6001600160401b0380921691821595861580610f45575b15610f0b5781164210610ec85781546001600160a01b03939084163314610e8557610ccf816001850154611157565b9662015180808302928304141715610e725790610cee8493924261117e565b600283018054600160401b600160e01b0319163360401b600160401b600160e01b03161790551698896001600160401b031982541617905554165f5260028352845f20610d3c85825461117e565b905583610d88575b5050825194855284015233927f52ba9619c9418494169e2c8836a356f615345860c096daa5eb29dd7f7cbef6089190a360015f805160206112ce8339815191525580f35b7f000000000000000000000000000000000000000000000000000000000000000016803b15610e6e578451637921219560e11b8152339281019283523060208401527f000000000000000000000000000000000000000000000000000000000000000060408401526060830185905260a0608084018190525f90840181905290929091839182908490829060c00103925af18015610e6457610e2b575b80610d44565b7f52ba9619c9418494169e2c8836a356f615345860c096daa5eb29dd7f7cbef6089392919650610e5a90611013565b5f95909192610e25565b84513d5f823e3d90fd5b5f80fd5b601185634e487b7160e01b5f525260245ffd5b875162461bcd60e51b8152808601879052601960248201527f52656e74616c3a206f776e65722063616e6e6f742072656e74000000000000006044820152606490fd5b865162461bcd60e51b8152808501869052601860248201527f52656e74616c3a2063757272656e746c792072656e74656400000000000000006044820152606490fd5b875162461bcd60e51b815280860187905260146024820152732932b73a30b61d103130b210323ab930ba34b7b760611b6044820152606490fd5b5081600284015416841115610ca0565b8234610e6e576020366003190112610e6e57359063ffffffff60e01b8216809203610e6e57602091630271189760e51b8114908115610f96575b5015158152f35b6301ffc9a760e01b14905083610f8f565b602435906001600160401b0382168203610e6e57565b600435906001600160a01b0382168203610e6e57565b602435906001600160a01b0382168203610e6e57565b6060906003190112610e6e5760043590602435906044356001600160401b0381168103610e6e5790565b6001600160401b03811161102657604052565b634e487b7160e01b5f52604160045260245ffd5b90601f801991011681019081106001600160401b0382111761102657604052565b81601f82011215610e6e578035916020916001600160401b038411611026578360051b906040519461108f8584018761103a565b85528380860192820101928311610e6e578301905b8282106110b2575050505090565b813581529083019083016110a4565b81601f82011215610e6e578035906001600160401b03821161102657604051926110f5601f8401601f19166020018561103a565b82845260208383010111610e6e57815f926020809301838601378301015290565b1561111d57565b60405162461bcd60e51b815260206004820152601260248201527114995b9d185b0e881b9bdd081b1a5cdd195960721b6044820152606490fd5b8181029291811591840414171561116a57565b634e487b7160e01b5f52601160045260245ffd5b9190820180921161116a57565b1561119257565b60405162461bcd60e51b81526020600482015260116024820152702932b73a30b61d103737ba1037bbb732b960791b6044820152606490fd5b156111d257565b60405162461bcd60e51b81526020600482015260156024820152742932b73a30b61d103d32b93790323ab930ba34b7b760591b6044820152606490fd5b1561121657565b60405162461bcd60e51b815260206004820152601560248201527414995b9d185b0e881858dd1a5d99481c995b9d185b605a1b6044820152606490fd5b5f805160206112ce83398151915260028154146112705760029055565b604051633ee5aeb560e01b8152600490fd5b60ff5f541661128d57565b60405163d93c066560e01b8152600490fd5b5f5460081c6001600160a01b031633036112b557565b60405163118cdaa760e01b8152336004820152602490fdfe9b779b17422d0df92223018b32b4d1fa46e071723d6817e2486d003becc55f00a2646970667358221220697bb6bcc7c7f55bdc6e419053597458a9d6b3350e8efa0b41067952505e4e2f64736f6c63430008180033","linkReferences":{}},"methodIdentifiers":{"MANA()":"ecb42795","claimEarnings()":"d9ceab13","delist(uint256)":"964bc33f","earnings(address)":"543fd313","items()":"c06fad06","list(uint256,uint256,uint64)":"ca690ea2","listings(uint256)":"de74e57b","onERC1155BatchReceived(address,address,uint256[],uint256[],bytes)":"bc197c81","onERC1155Received(address,address,uint256,uint256,bytes)":"f23a6e61","owner()":"8da5cb5b","pause()":"8456cb59","paused()":"5c975abb","quoteRent(uint256,uint64)":"fbd3e06b","renounceOwnership()":"715018a6","rent(uint256,uint64)":"2ed2d429","supportsInterface(bytes4)":"01ffc9a7","transferOwnership(address)":"f2fde38b","unpause()":"3f4ba83a","updateListing(uint256,uint256,uint64)":"7a56a197","userExpires(uint256)":"8fc88c48","userOf(uint256)":"c2f1f14a"},"id":93}