{"abi":[{"type":"constructor","inputs":[{"name":"feed_","type":"address","internalType":"address"},{"name":"maxStaleness_","type":"uint256","internalType":"uint256"},{"name":"admin_","type":"address","internalType":"address"}],"stateMutability":"nonpayable"},{"type":"function","name":"feed","inputs":[],"outputs":[{"name":"","type":"address","internalType":"contract AggregatorV3Interface"}],"stateMutability":"view"},{"type":"function","name":"getPrice","inputs":[],"outputs":[{"name":"price","type":"uint256","internalType":"uint256"},{"name":"priceDecimals","type":"uint8","internalType":"uint8"}],"stateMutability":"view"},{"type":"function","name":"maxStaleness","inputs":[],"outputs":[{"name":"","type":"uint256","internalType":"uint256"}],"stateMutability":"view"},{"type":"function","name":"owner","inputs":[],"outputs":[{"name":"","type":"address","internalType":"address"}],"stateMutability":"view"},{"type":"function","name":"renounceOwnership","inputs":[],"outputs":[],"stateMutability":"nonpayable"},{"type":"function","name":"setFeed","inputs":[{"name":"newFeed","type":"address","internalType":"address"}],"outputs":[],"stateMutability":"nonpayable"},{"type":"function","name":"setMaxStaleness","inputs":[{"name":"newMaxStaleness","type":"uint256","internalType":"uint256"}],"outputs":[],"stateMutability":"nonpayable"},{"type":"function","name":"transferOwnership","inputs":[{"name":"newOwner","type":"address","internalType":"address"}],"outputs":[],"stateMutability":"nonpayable"},{"type":"function","name":"valueOf","inputs":[{"name":"amount","type":"uint256","internalType":"uint256"}],"outputs":[{"name":"","type":"uint256","internalType":"uint256"}],"stateMutability":"view"},{"type":"event","name":"FeedUpdated","inputs":[{"name":"newFeed","type":"address","indexed":true,"internalType":"address"}],"anonymous":false},{"type":"event","name":"MaxStalenessUpdated","inputs":[{"name":"newMaxStaleness","type":"uint256","indexed":false,"internalType":"uint256"}],"anonymous":false},{"type":"event","name":"OwnershipTransferred","inputs":[{"name":"previousOwner","type":"address","indexed":true,"internalType":"address"},{"name":"newOwner","type":"address","indexed":true,"internalType":"address"}],"anonymous":false},{"type":"error","name":"InvalidPrice","inputs":[{"name":"answer","type":"int256","internalType":"int256"}]},{"type":"error","name":"OwnableInvalidOwner","inputs":[{"name":"owner","type":"address","internalType":"address"}]},{"type":"error","name":"OwnableUnauthorizedAccount","inputs":[{"name":"account","type":"address","internalType":"address"}]},{"type":"error","name":"StalePrice","inputs":[{"name":"updatedAt","type":"uint256","internalType":"uint256"},{"name":"blockTimestamp","type":"uint256","internalType":"uint256"},{"name":"maxStaleness","type":"uint256","internalType":"uint256"}]},{"type":"error","name":"ZeroAddress","inputs":[]}],"bytecode":{"object":"0x60803461013c57601f61070538819003918201601f191683019291906001600160401b0384118385101761014057816060928492604096875283398101031261013c5761004b81610154565b6020820151916001600160a01b03908190610067908601610154565b16908115610125575f549260018060a01b03199280848616175f5582875195167f8be0079c531659141344cd1fd0a4f28419497f9722a3daafe3b4186f6b6457e05f80a316918215610116575082156100d25760015416176001556002555161059c90816101698239f35b835162461bcd60e51b815260206004820152601660248201527f4f7261636c653a207a65726f207374616c656e657373000000000000000000006044820152606490fd5b63d92e233d60e01b8152600490fd5b8451631e4fbdf760e01b81525f6004820152602490fd5b5f80fd5b634e487b7160e01b5f52604160045260245ffd5b51906001600160a01b038216820361013c5756fe60406080815260049081361015610014575f80fd5b5f3560e01c8063100bc9e1146102f057806337a7b7d8146102c857806355b775ea1461024c578063715018a6146101f557806387cf4696146101d75780638da5cb5b146101b057806398d5fdca14610186578063cadf338f146101115763f2fde38b1461007f575f80fd5b3461010d57602036600319011261010d576001600160a01b0382358181169391929084900361010d576100b061053b565b83156100f75750505f54826bffffffffffffffffffffffff60a01b8216175f55167f8be0079c531659141344cd1fd0a4f28419497f9722a3daafe3b4186f6b6457e05f80a3005b905f6024925191631e4fbdf760e01b8352820152fd5b5f80fd5b503461010d57602036600319011261010d5781359061012e6103cd565b90928381029381850414901517156101735760ff16604d811161017357600a0a90811561016057602093505191048152f35b601284634e487b7160e01b5f525260245ffd5b601184634e487b7160e01b5f525260245ffd5b503461010d575f36600319011261010d5760ff6101a16103cd565b83519182529091166020820152f35b503461010d575f36600319011261010d575f5490516001600160a01b039091168152602090f35b503461010d575f36600319011261010d576020906002549051908152f35b3461010d575f36600319011261010d5761020d61053b565b5f80546001600160a01b0319811682556001600160a01b03167f8be0079c531659141344cd1fd0a4f28419497f9722a3daafe3b4186f6b6457e08280a3005b50903461010d57602036600319011261010d5780356001600160a01b038116929083900361010d5761027c61053b565b82156102bb57600180546001600160a01b03191684179055827f3bb3a2cd941891a83cb5e1a494307c71512cdbbc4a87abd52dd499e969cdfa355f80a2005b5163d92e233d60e01b8152fd5b503461010d575f36600319011261010d5760015490516001600160a01b039091168152602090f35b50903461010d57602036600319011261010d5780359061030e61053b565b8115610344577f64a4703c7c168827058126cbd2e71d8d0f026afa821e7dff1480173dffdd3895602083858160025551908152a1005b606490602084519162461bcd60e51b835282015260166024820152754f7261636c653a207a65726f207374616c656e65737360501b6044820152fd5b90601f8019910116810190811067ffffffffffffffff8211176103a257604052565b634e487b7160e01b5f52604160045260245ffd5b519069ffffffffffffffffffff8216820361010d57565b60015460408051633fabe5a360e21b81529092916001600160a01b031660a082600481845afa8015610531575f925f916104dd575b505f8313156104c5578042034281116104b15760025480911161048e575050602060049185519283809263313ce56760e01b82525afa93841561048557505f9361044b57509190565b9092506020813d60201161047d575b8161046760209383610380565b8101031261010d575160ff8116810361010d5790565b3d915061045a565b513d5f823e3d90fd5b6064925085519163033565a560e31b835260048301524260248301526044820152fd5b634e487b7160e01b5f52601160045260245ffd5b84516338ee04a760e01b815260048101849052602490fd5b92505060a0823d60a011610529575b816104f960a09383610380565b8101031261010d5761050a826103b6565b5060208201516105216080606085015194016103b6565b50915f610402565b3d91506104ec565b84513d5f823e3d90fd5b5f546001600160a01b0316330361054e57565b60405163118cdaa760e01b8152336004820152602490fdfea264697066735822122076d9f2f7c703bdff1fa908be7a35f25c9390cb0105dbf91b0fa803db2d372f3d64736f6c63430008180033","linkReferences":{}},"methodIdentifiers":{"feed()":"37a7b7d8","getPrice()":"98d5fdca","maxStaleness()":"87cf4696","owner()":"8da5cb5b","renounceOwnership()":"715018a6","setFeed(address)":"55b775ea","setMaxStaleness(uint256)":"100bc9e1","transferOwnership(address)":"f2fde38b","valueOf(uint256)":"cadf338f"},"id":31}